:020000040800F2
:10000000F8490020A10100088F2100088B21000879
:100010008D210008831500089923000800000000C6
:1000200000000000000000000000000009010008BE
:1000300085150008000000004D010008912100080E
:10004000BB010008BB010008BB010008BB010008A0
:10005000BB010008BB010008BB010008BB01000890
:10006000BB010008BB010008BB010008BB01000880
:10007000BB010008BB010008BB010008BB01000870
:10008000BB010008BB010008BB010008BB01000860
:10009000BB010008BB010008BB010008BB01000850
:1000A000BB01000805220008BB010008BB010008D5
:1000B000BB010008BB010008BB010008BB01000830
:1000C000BB010008BB010008BB010008BB01000820
:1000D000BB010008BB010008BB010008BB01000810
:1000E000BB010008BB010008BB010008DFF814D009
:1000F00000F042FB00F0B0F800480047213E000845
:1001000001F0A6F9F8490020224B19680868B0E808
:10011000F00F80F30988BFF36F8F4FF0000080F37A
:1001200011884EF00D0E7047000000000648006870
:10013000006880F3088862B661B6BFF34F8FBFF3E3
:100140006F8F00DF00BF00BF08ED00E0EFF3098014
:10015000BFF36F8F0F4B1A6820E9F00F106008B5DE
:100160004FF0500080F31188BFF34F8FBFF36F8FB4
:1001700004F044FE4FF0000080F31188BDE8084011
:1001800019680868B0E8F00F80F30988BFF36F8F33
:10019000704700BF18000020EFF305807047000093
:1001A0000648804706480047FEE7FEE7FEE7FEE711
:1001B000FEE7FEE7FEE7FEE7FEE7FEE7BD210008FB
:1001C000ED000008202A04DB203A21FA02F0002189
:1001D000704721FA02F3D040C2F120029140084357
:1001E0001946704710B5431A934209D283188818EC
:1001F00003E010F8011D03F8011D521EF9D210BDD5
:1002000040EA01039B0703D009E008C9121F08C098
:10021000042AFAD203E011F8013B00F8013B521E18
:10022000F9D210BDD2B201E000F8012B491EFBD279
:1002300070470022F6E710B513460A4604461946F1
:10024000FFF7F0FF204610BD421C10F8011B0029EB
:10025000FBD1801A7047000070B5054C054D03E0D6
:10026000206820448047241DAC42F9D170BD0000B5
:10027000D4640008E464000810B503F0C0F8BDE8D9
:10028000104003F00FB830B50B4601460020202285
:10029000012409E021FA02F59D4205D303FA02F593
:1002A000491B04FA02F52844151EA2F10102F1DCF3
:1002B00030BD2DE9F05F0546002092469B468846FA
:1002C0000646814640241BE02846414647462246D2
:1002D000FFF778FF53465A46C01A914110D3114692
:1002E0001846224600F05AFA2D1A67EB01084F46CD
:1002F00022460120002100F051FA17EB00094E417F
:10030000201EA4F10104DFDC484631462A4643465C
:10031000BDE8F09F421E12F8013F002BFBD111F8FF
:10032000013B02F8013B002BF9D17047034611F85D
:10033000012B00F8012B002AF9D11846704702461C
:10034000C9B200E0401C0378002BFBD102E0037827
:100350008B4203D0401E9042F9D20020704700002B
:100360000FB400B58DB010A909900B9000914FF01B
:10037000FF300A9000200C90054806900548079031
:100380006A4609A80F9900F0DFFD0DB05DF814FB77
:10039000650F0008830F00082DE9FE4F804681EAB3
:1003A0000300C00F0C46009021F0004123F00045EF
:1003B000B8EB0200A94105D24046214690461C46B2
:1003C0000B46024623F00040104347D0270DC7F3E9
:1003D0000A00C3F30A510290401A019040286BDAD8
:1003E000C3F3130040F4801B0098924620B1002311
:1003F000D2EB030A63EB0B0B01985946C0F14002A4
:10040000504600F0CBF906460D4650465946019A33
:1004100000F0D3F910EB08006141002487EA115283
:1004200084EAE7731A4340D0009A62B3019A012A22
:100430004FEA075215DC001B61EB02014FF000424E
:1004400002EA0752CDE90042001C41F58011324614
:100450002B4600F0D7FD03B0BDE8F08F40462146A3
:10046000F9E7001B61EB0201001C41F58013001845
:100470005B412018A2F5001747EB030140EAD57055
:10048000B6196D4111E06D084FEA360645EAC075B0
:100490004FEA0752001B61EB0201001C41F580117D
:1004A00049084FEA30000019514132462B4603B04B
:1004B000BDE8F04F00F097BD0098012240000023F6
:1004C000D0EB020263EBE073009821464FEAE07440
:1004D000B8EB000061EB0401E9E783F000435BE760
:1004E00081F0004158E72DE9FE4F81EA030404F052
:1004F000004421F0004100944FF0000B23F0004332
:1005000050EA01045ED052EA03045BD0C3F30A54FC
:10051000C1F30A552C44A4F2F3340194A0FB025415
:10052000C1F3130141F48011C3F3130343F48013A7
:1005300001FB024400FB034E840A970A44EA8154FB
:1005400047EA8357A4FB076802958D0A05FB0785D8
:100550004FEA932C04FB0C542705029D4FEA0658E2
:1005600047EA1637B5EB08056EEB070C870E920EBF
:1005700047EA811742EA8312A7FB0201B6EB0B019F
:1005800064EB00042B0D43EA0C335E1844EB1C5063
:10059000DA465146E7FB0201C5F313044FEA0B3379
:1005A00043EA14534FEA0432019C43EA0603A4F1E0
:1005B0000C040294009CCDE900B400F023FD03B0CC
:1005C000BDE8F08F00200146F9E72DE9F04D81EA02
:1005D000030404F0004B21F0004514464FF0000ADC
:1005E00023F0004150EA050220D054EA01021DD058
:1005F000C5F30A570246C5F31303C1F31300C1F351
:100600000A5640F4801543F48013A7EB0608101B2C
:10061000D64608F2FD3873EB050002D308F1010855
:1006200001E092185B41B8F1000F03DA00200146A7
:10063000BDE8F08D00204FF48011064684460EE0A0
:10064000171B73EB050705D3121B63EB050306436A
:100650004CEA010C49084FEA300092185B4150EA1D
:100660000107EDD152EA030012D082EA040083EAC6
:100670000501084305D0101BAB4106D2012200231F
:1006800006E000224FF0004302E06FF00102531039
:100690001AEB06004CEB085110EB0A0041EB0B0182
:1006A000BDE8F04D00F09FBCC1F30A52C1F3130145
:1006B00040F2FF3341F480119A4202DA00200146F1
:1006C000704740F233439A42A2F2334202DC524274
:1006D000FFF778BD00F062B830B5041E71F1000478
:1006E00004DB4FF00044404264EB0101141E73F13F
:1006F000000405DB1C464FF00043524263EB040349
:10070000994208BF904230BDAFF3008010B500F0B1
:100710000EF8016919B100220261884701E0806882
:100720008047AFF30080000010B5AFF3008070B5D4
:1007300000F03AFC04680546A4B9202003F042FC0E
:10074000040011D0094900202C60C4E900010849C7
:10075000A1602073206160610649A06109B100F0C9
:10076000B1FCE061204670BDAFF3008000000000E6
:100770002907000800000000064C074D06E0E0686D
:1007800040F0010394E8070098471034AC42F6D3D8
:10079000FFF7B0FCB4640008D4640008202A04DB2E
:1007A000203A00FA02F1002070479140C2F1200384
:1007B00020FA03F3194390407047202A06DBCB1739
:1007C000203A41FA02F043EAE07306E041FA02F30C
:1007D000D040C2F120029140084319467047000002
:1007E000004870477061000810B50446FFF7F8FF35
:1007F0000068005D00F0010010BD10B5441A03460A
:10080000944209D28418114403E011F8013D04F820
:10081000013D521EF9D210BD40EA0104A40703D0E5
:1008200009E010C9121F10C3042AFAD203E011F81C
:10083000014B03F8014B521EF9D210BD10B5002236
:1008400000E0521C835C8C5CA34201D1002BF8D1E8
:10085000D8B2E1B2401A10BD2DE9FF4F1C4681B05D
:100860000021D4E9016791464FF0FF358A4688465A
:10087000A1696D1C02988847216A83468847002831
:10088000F6D1BBF1FF3F0CD026F4C066002F1ADD75
:10089000700615D5BBF12B0F0AD0BBF12D0F0FD170
:1008A00004E04FF0FF3005B0BDE8F08F46F48066FD
:1008B000A1696D1C029888477F1E8346002F02DDC8
:1008C000BBF1300F03D0B9F1000F2AD025E0A169A8
:1008D0006D1C46F400767F1E029888478346002FE1
:1008E00005DDBBF1780F06D0BBF1580F03D0B9F18D
:1008F000000F10D011E0B9F1000F02D0B9F1100FC4
:100900000BD1A1696D1C26F400767F1E02988847E2
:100910008346102000E0082081464FEAE9700090ED
:1009200017E00A20F8E74346AAFB092803FB0980E1
:10093000DDF800C07F1E0AFB0C0112EB0B0A41EB35
:10094000EB78A16946F4007605F101050298884725
:100950008346002F06DD4946584600F0D1FB5FEA8A
:10096000000BE0D5E16902988847B00502D46FF02A
:10097000010098E7F00718D1700610D570055146B0
:1009800005D50023D1EB030163EB080200E04246EA
:100990002068031D23600068C0E9001205E020689C
:1009A000011D21600068C0E900A828467BE72DE909
:1009B000FF5F1D464FF0FF3BD5E9014691465F467C
:1009C0004FF00008A9697F1C01988847296A824670
:1009D00088470028F6D1BAF1FF3F0CD024F4C06458
:1009E000002E19DD600614D5BAF12B0F09D0BAF12B
:1009F0002D0F0ED103E0584604B0BDE8F09F44F43B
:100A00008064A9697F1C01988847761E8246002E63
:100A100002DDBAF1300F03D0B9F1000F26D032E079
:100A2000A969761E44F400747F1C019888478246A9
:100A3000002E05DDBAF1780F06D0BAF1580F03D0B9
:100A4000B9F1000F10D01EE0B9F1000F02D0B9F1DA
:100A5000100F18D1A969761E24F400747F1C019828
:100A600088478246102002E0082000E00A208146E4
:100A700009E008FB0908A969761E44F400747F1C8C
:100A8000019888478246002E05DD4946504600F011
:100A900037FB0028EDDAE96901988847A00502D400
:100AA0006FF00100A8E7E00725D1600613D56005C7
:100AB00002D5C8F1000000E0404629680A1D2A60FE
:100AC0000968220501D5087015E0220701D50880C4
:100AD00011E008600FE02868011D29600068210509
:100AE00002D580F8008006E0210702D5A0F800803A
:100AF00001E0C0F8008038467EE72DE9FF5FD2E9CB
:100B000001A74FF00008916999461446DDF838B006
:100B1000464601988847054659EA0B0005D009E08A
:100B2000A169761C019888470546216A28468847AE
:100B30000028F5D1681C03D05FEACA7005D015E023
:100B40004FF0FF3004B0BDE8F09F2068011D216028
:100B5000D0F800800AE05FEACA7001D108F8015BB2
:100B6000A169761C7F1E019888470546002F1ADD73
:100B7000681C18D0B9F1000F0DD0E81705EBD06054
:100B8000421120F01F0059F822102A1A012090402B
:100B90000142E0D107E0BBF1000FDCD1216A284619
:100BA00088470028D7D0E16901988847BBF1000F3A
:100BB00007D1002E05DD5FEACA7002D1002188F856
:100BC0000010A068B84203DDBBF1000F03D017B1DD
:100BD0006FF00100B6E73046B4E700002DE9FF4FA3
:100BE000087883B09946FF2805D0491C2D2804D0E9
:100BF0000024002008E000200BE00124F9E700EBCE
:100C0000800003EB4000491C0B78FF2BF7D104B1A7
:100C1000404200230293147819461D462D2C01D022
:100C20002B2C04D1521C2D2C13D000240294AA4644
:100C30001478FF2C0FD00A25A3FB057801FB058152
:100C40004FF0000C03FB0C11521CE3194AEB01019D
:100C5000EEE70124EAE7814453EA010002D019F5E6
:100C6000C87F06DA03980021C0E9001107B0BDE88B
:100C7000F08F0025AE4E2F46DFF8B882184600F000
:100C800008FCCDE90001B9F1000002DAC9F1000465
:100C900000E004460023A74A1AEB030B42EB045A78
:100CA00012E0E00707D02A46334638464146FFF7B0
:100CB0001AFC074688462A46334610461946FFF76F
:100CC00012FC05460E466410002CEAD1DDE9000155
:100CD000B9F1000F5A46534606DAFFF776FC3A465A
:100CE0004346FFF772FC05E0FFF7FDFB3A4643463B
:100CF000FFF7F9FB029A0AB181F00041039AC2E9B9
:100D00000001B3E72DE9FF4F1F468DB0D7E901463B
:100D10004FF0FF382E2045464FF000090B90B9697F
:100D20006D1C0E988847396A824688470028F6D19C
:100D3000BAF1FF3F0AD024F4D064002E11DDBAF1DD
:100D40002B0F08D0BAF12D0F0BD102E0404611B0A5
:100D50008DE744F48064B9696D1C0E98884782461B
:100D6000761E6946600501D52D2000E02B208DF808
:100D7000000001F1010B0DF1200809E0B9696D1CBB
:100D80000E98884782460F9844F40074761E0560DA
:100D9000002E02DDBAF1300FF0D00B998A453ED11A
:100DA00044F0800406E00F99681CA9F1010944F49D
:100DB00000740860B9696D1C761E0E9888478246DB
:100DC0003028F0D02BE00B998A4505D1200603D4BA
:100DD00044F08004761E18E0504602F043FC08B34D
:100DE0000DF11301761E44F400748B4508D2AAF16C
:100DF00030000BF8010B200607D5A9F1010003E034
:100E0000200602D409F101008146A00502D50F9900
:100E1000681C0860B9696D1C0E9888478246002ED0
:100E2000D1DC53E0002E51DDBAF1650F02D0BAF1EA
:100E3000450F4BD1A00549D5B9696D1C24F4407408
:100E4000761E0E9888478246002E0CDD2B2804D093
:100E5000BAF12D0F07D144F48074B9696D1C0E9856
:100E600088478246761EE00501D52D2100E02B2122
:100E700008F8011BCDF82C8021E00DF12901761E28
:100E800044F4007488450CD2AAF1300010F0FF0041
:100E900088F8000002D10B99884509D908F10108AA
:100EA00006E0E00501D5244801E042F20F708146DA
:100EB000B9696D1C0E98884782460F980560002E10
:100EC00004DD504602F0CEFB0028D6D1F9690E9819
:100ED0008847FF208BF8000088F80000002006906B
:100EE00007904B466A4608A906A8FFF777FEA005BB
:100EF00002D46FF001002AE714F0240F0AD0E007B3
:100F000014D1DDE906123868031D3B600068C0E9B2
:100F100000120BE0DDE9060100F0C7FA0146E00728
:100F200004D13868021D3A600068016028460EE767
:100F3000000014400000F03FF1D8FFFF02681144A8
:100F40001378016018467047D16004495161044923
:100F5000116200211161114600F0E0B83D0F000858
:100F6000E9070008426842B1016811F8013B23B16A
:100F7000521EC0E90012184670470121C160881E48
:100F8000704742685AB1C368016843B983688B42AD
:100F900005D0491E521CC0E90012002070474FF0D6
:100FA000FF307047034870470248001D011F8860EA
:100FB000001D7047E00000202DE9F041074615466E
:100FC0000E46102002F0FEFF04000AD06760C4E95C
:100FD000026500F039FA0168216004600020BDE874
:100FE000F0810120FBE710B5141E73F1000408DA4C
:100FF000401C41F1000192185B411A4301D120F0DD
:10100000010010BD2DE9F04D92469B4611B1B1FA99
:1010100081F202E0B0FA80F220329046FFF7BEFB88
:1010200004460F4640EA0A0041EA0B0153465A467D
:10103000084313D0114653EA010019D0C8F1400209
:101040005046FFF7BFF805460E4650465946424601
:10105000FFF7A4FB084305D0012004E020463946F1
:10106000BDE8F08D0020054346EAE0762C43374387
:101070000A986305E40AA0EB08000022FD0A44EA8E
:1010800047540A3002D500200146E9E7010510194E
:101090006941DDE9084500196941BDE8F04DA2E765
:1010A00000DE2DE9F04117460E46054633B107FB39
:1010B0000354E41B2046B047A542FAD1A5F108002D
:1010C000BDE8F08110B5882002F07CFF002801D037
:1010D0000021017010BD802902D808B1017809B142
:1010E00000207047012100F8081B704718B100F17B
:1010F0000802914201D00020704700210170704722
:101100003A2800D2303820F02002412A01D3A2F13F
:101110003700884201D34FF0FF3070472DE9F34F7D
:101120008BB04FF0000801F10C000C464FF0010BA2
:1011300046460DF1080A0190626901210198904725
:10114000051E2DD0252D2CD0216A8847C0B162699B
:10115000012101989047216A88470028F7D1411E54
:1011600062690198904700E0761CA1690B98884756
:10117000216A88470028F7D1E1690B988847DBE7A7
:10118000A1690B9888470746A84201D1761CD3E78E
:10119000E1690B9888477F1C02D1B8F1000F6FD02E
:1011A00046E1002762693D463946019890472A2862
:1011B00004D162690121019890470125DFF88492EA
:1011C0006269012101989047A0F130010A290AD2F1
:1011D0004F45E5DC07EB870100EB4107303FDFD4EB
:1011E00045F01005ECE7E90601D46FF000476C28E4
:1011F0000AD04C2814D0682815D06A280DD074283D
:101200001CD07A281AD01DE062690121019890470C
:101210006C2802D045F0040514E045F002050DE00D
:1012200045F020050AE0626901210198904768288D
:1012300002D045F0080505E045F40065626901212A
:1012400001989047C4E9015765283DD019DC58281A
:101250007AD00CDC452837D004DC252826D041285C
:1012600031D131E046282FD047282CD12CE05B2803
:1012700077D0612828D063287CD0642823D15AE015
:10128000D0E06F2848D008DC66281DD067281BD026
:10129000692821D06E2816D127E0702845D0732800
:1012A00068D0752847D078280DD14DE0A1690B98FA
:1012B0008847054625283FF469AFE1690B988847C0
:1012C0006D1C3FF46AAFB3E023466A466FF001003D
:1012D0000B99FFF717FD9EE045F040006060A807FE
:1012E00023464FF0000236D43EE0E8077FF447AFD4
:1012F0002068011D21600068290501D506701BE7E3
:10130000290701D5068017E7A90703D5F117C0E91A
:10131000006111E706600FE745F040006060A80734
:1013200023464FF0080216D41EE040F60E0125EACF
:101330000100606016E045F040006060A8072346A9
:101340004FF00A0207D40FE045F040006060A807A4
:1013500008D5234610226FF001000B99FFF77CFAA5
:1013600059E007E0234610226FF001000B99FFF7C8
:101370001EFB50E04FF000094F464B46632802D059
:101380005B2806D040E0E80601D40120A0600127D8
:101390003AE062690121019890475E2805D14FF03B
:1013A00001096269494601989047216939B90021CC
:1013B0000A46534643F82120491C0829FADBB0B3FA
:1013C000216969B9C11700EBD16253110AEB83019E
:1013D00022F01F02821A01200B68904003430B6029
:1013E00062690121019890475D28E8D1B9F1000FA9
:1013F00009D00020514651F82020D24341F8202046
:10140000401C0828F7DB02AB224600976FF0010072
:101410000B99FFF772FB00280CDA401C08D1BBF1D6
:10142000000F05D04FF0FF300DB0BDE8F08FFFE7A3
:101430004046F9E7E90701D108F1010806444FF0F9
:10144000000B79E6CCCCCC0C00487047F4000020AF
:101450002DE9F0410646FFF7F7FF8046454613E0C9
:1014600016B1E068B0420ED120682860D4E90101CD
:10147000D8F800708847204602F0AAFCD8F800008F
:10148000B842EBD100E025462C68002CE8D1BDE83D
:10149000F0810EB540F2334202920022CDE90022E3
:1014A0001346FFF7AFFD03B000BD01F0004330B4B9
:1014B00021F0004150EA010206D00A0DA2F5607247
:1014C000C1F31301002A02DC30BC00207047440F36
:1014D00044EAC104C100E01830BC00EBC25000F087
:1014E00001B870470029A8BF7047401C490008BFD9
:1014F00020F00100704710B4B0FA80FC00FA0CF044
:1015000050EA010404BF10BC704749B1CCF120047B
:1015100021FA04F411FA0CF118BF01212143084308
:10152000A3EB0C01CB1D4FEA00614FEA102042BF34
:10153000002010BC704700EBC35010440029A4BF2A
:1015400010BC7047401C490008BF20F0010010BCCF
:1015500070472DE9F04116461F460C46851B02E0F8
:101560002846B847AD1B641EFAD2BDE8F08138B5F5
:1015700004466846AFF300800146204604F0AEFB07
:1015800038BDFEE7704700002DE9F84FDFF8B8914D
:10159000002409F1040A0AF1040B23460F270BF17A
:1015A000040EC9E00125A5402A40AA427DD1674E1C
:1015B000D1F804C0ACEB0608B44532D014DCBCF161
:1015C000030F3AD009DCBCF1000F2AD0BCF1010FA7
:1015D0001CD0BCF1020F31D11DE0BCF1110F17D0AE
:1015E000BCF1120F2AD119E0B8F5881F19D006DC1A
:1015F000B8F5803F15D0B8F5801F1FD111E0B8F5C0
:10160000001F0ED0B8F5041F18D10AE0CB6815E012
:10161000CB681B1D12E0CB6808330FE0CB680C339E
:101620000CE08B682BB1012B4FF0080303D0456110
:1016300004E0042302E0056100E00023FF2A01D852
:10164000064601E000F104064FEA840501D9A5F140
:101650002005D6F8008007FA05FC28EA0C0803FAF2
:1016600005F548EA0508C6F800804D68ED0062D52A
:10167000374DAE6946F00106AE61AD6924F0030650
:1016800005F001050095334D06EB050CDCF808501C
:10169000A607360F07FA06F825EA0805DFF8B8802E
:1016A000404503D14FF0000817E044E0DFF8AC807C
:1016B000404502D14FF001080FE0DFF8A48040451B
:1016C00002D14FF0020808E0DFF89880404502D1CF
:1016D0004FF0030801E04FF0040808FA06F848EA62
:1016E0000508CCF808804D68D9F80060ED034D4638
:1016F00001D5164300E096432E604D68DAF800608D
:10170000AD03554601D5164300E096432E604D6863
:10171000DBF80060ED025D4601D5164300E096431C
:101720002E604D68DEF80060AD02754601D51643A7
:1017300000E096432E60641C0D682A46E5407FF465
:1017400031AFBDE8F88F0000000401400000111027
:10175000001002400000014000080140000C014060
:1017600000100140001401400148806870470000EB
:1017700008000020024881680278114481607047A7
:1017800008000020074810B5016841F01001016011
:10179000032000F095F8002000F006F800F03EF875
:1017A000002010BD0020024000B5014687B0002295
:1017B000192000F065F8192000F054F813488169E9
:1017C00041F400618161806905A900F40060069020
:1017D000684600F01DF900F04BF90D490D4AB0FBC9
:1017E000F1F10D48491E0260416040F2E7320021EC
:1017F000C0E90321816000F013FB10B1012007B0A4
:1018000000BD054800F028FBF9E700000010024089
:1018100040420F00002C0140BC0600200F4808B5D4
:10182000816941F001018161816901F0010100914B
:10183000C16941F08051C161C069002200F080504F
:1018400000900F21901E00F01BF80548416821F020
:10185000E06141F00071416008BD000000100240ED
:1018600000000140002809DB00F01F020121914027
:101870004009800000F1E020C0F80011704700002E
:10188000F0B40E4B1B680C46C3F30223C3F10705EB
:10189000042D00D90425191D072901D2002300E0D9
:1018A000DB1E012606FA05F1491E214099409E40A3
:1018B000761E16403143F0BC01F091BD0CED00E006
:1018C000064900F0070208684FF6FF03184040EA97
:1018D0000220034A10430860704700000CED00E04E
:1018E0000000FA052DE9F0470F46050061D0434E90
:1018F000306800F00700B84209D2306820F00700D5
:1019000038433060306800F00700B84251D1286891
:101910003B4C810712D5400703D5606840F4E06076
:1019200060602878000703D5606840F4605060600C
:101930006068A96820F0F000084360602878C0075C
:1019400028D06868012810D02168022810D08907A3
:1019500000292EDA616821F0030101436160FFF77D
:1019600003FF804641F288390DE021688903EFE7E3
:101970008901EDE7FFF7F8FEA0EB0801494502D920
:101980000320BDE8F0876068696800F00C00B0EBE8
:10199000810FEFD1306800F00700B8420BD93068F2
:1019A00020F0070038433060306800F00700B8428C
:1019B00001D00120E5E72878400705D56068E9688F
:1019C00020F4E060084360602878000706D560686E
:1019D000296920F4605040EAC100606000F058F8C6
:1019E0006168084AC1F30311515CC84006490860A8
:1019F00006480068FFF7D8FE0020C2E7002002403A
:101A000000100240785E0008140000200C00002046
:101A10000F2202600C4A536803F0030343605368CB
:101A200003F0F0038360536803F4E063C36052681B
:101A30004FF4E06303EAD20202610448006800F058
:101A400007000860704700000010024000200240BC
:101A50000448054900684968044AC1F30221515C01
:101A6000C84070471400002000100240885E000843
:101A70000448054900684968044AC1F3C221515C21
:101A8000C84070471400002000100240885E000823
:101A900012A185B00FC98DE80F0014A0144A006888
:101AA00004905168134801F00C03042B10D0082B4C
:101AB0000ED1C1F38343C9031DF803000AD5516851
:101AC00004AAC1F34041515C0A4A5043B0FBF1F013
:101AD00005B0704708494843FAE7000002030405CF
:101AE000060708090A0B0C0D0E0F1010010200006A
:101AF0000010024000127A0000093D002DE9F84F65
:101B0000040070D02078C04DC00749D06868C0F389
:101B10008100012807D06868C0F38100022809D13C
:101B20006868C00306D52868800339D56068002836
:101B3000E7D035E06068B0F5803F0BD010B1B0F56C
:101B4000A02F11D0286820F480302860286820F465
:101B5000802002E0286840F480302860606890B1FE
:101B6000FFF702FE06460AE0286840F4802028605D
:101B7000F0E700BFFFF7F8FD801B642873D82868E2
:101B80008003F7D50CE0FFF7EFFD064605E000BF48
:101B9000FFF7EAFD801B6428F0D828688003F7D49B
:101BA00020789A4E80074FF001094FF0000839D590
:101BB000686810F00C0F07D06868C0F38100022835
:101BC00009D16868C00306D42868800714D5206945
:101BD000012808D110E02069B0B1C6F80090FFF7E5
:101BE000C3FD074605E00AE1FFF7BEFDC01B022862
:101BF000C4D828688007F7D52868616920F0F80004
:101C000040EAC10028600DE0C6F80080FFF7ACFD97
:101C1000074604E0FFF7A8FDC01B022823D8286868
:101C20008007F7D4207800072CD57948A169D9B16D
:101C3000C0F80090FFF798FD074604E0FFF794FD19
:101C4000C01B02280FD8686A8007F7D571484FF487
:101C5000FA510068B0FBF1F0009000BF0098411EFF
:101C60000091FAD20EE080E0C0F80080FFF77CFD22
:101C7000074604E0FFF778FDC01B022875D8686AA4
:101C80008007F7D42078400760D5E8690027C000B6
:101C900008D4E86940F08050E861E869012700F065
:101CA000805000905C480168C90513D401688346E0
:101CB00041F480710160FFF757FD824606E000BFE6
:101CC000FFF752FDA0EB0A0064284ED8DBF80000B5
:101CD000C005F5D5E06801280AD008B1052813D061
:101CE000286A20F001002862286A20F0040002E03F
:101CF000286A40F001002862E06841F2883B98B110
:101D0000FFF732FD82460BE0286A40F004002862AB
:101D1000EEE700BFFFF728FDA0EB0A0159455AD8AE
:101D2000286A8007F6D50CE0FFF71EFD824605E025
:101D3000FFF71AFDA0EB0A0159454CD8286A800725
:101D4000F6D41FB1E86920F08050E861E06988B3FB
:101D50006968C1F38101022944D00228C6F8608075
:101D600004D0FFF701FD044638E034E0FFF7FCFC47
:101D7000074604E0FFF7F8FCC01B02282BD82868B0
:101D80008001F7D4206AB0F5803F05D16868A1686A
:101D900020F4003008436860D4E90801084369680A
:101DA00021F4741108436860C6F86090FFF7DCFC0A
:101DB000044606E025E000BFFFF7D6FC001B022822
:101DC00009D828688001F7D51BE000BFFFF7CCFCDD
:101DD000001B022802D90320BDE8F88F2868800183
:101DE000F4D40EE00128F7D06868226A00F480314C
:101DF000914204D1616A00F47010884201D0012040
:101E0000EAE70020E8E7000000100240000042423C
:101E10008004424214000020007000407047704768
:101E200010B5040003D094F83D0010B107E0012084
:101E300010BD002084F83C00204600F00CF8022081
:101E400084F83D00211D206800F0E2F9012084F8AB
:101E50003D00002010BD70470168CA6842F00102D1
:101E6000CA600068816801F00701062903D0016893
:101E700041F00101016000207047704770B50446D1
:101E8000006801694FF00005C943890715D4C1688E
:101E9000C943890711D4E91E016101202077206818
:101EA00080698007204602D0FFF7E7FF04E000F0DA
:101EB00098F8204600F096F8257720680169C94314
:101EC000490717D4C168C943490713D46FF0040107
:101ED0000161022020772068806910F4407F20464D
:101EE00002D0FFF7CAFF04E000F07BF8204600F0C4
:101EF00079F8257720680169C943090716D4C168B4
:101F0000C943090712D46FF008010161042020774A
:101F10002068C0698007204602D0FFF7AEFF04E0CA
:101F200000F05FF8204600F05DF825772068016931
:101F3000C943C90617D4C168C943C90613D46FF091
:101F400010010161082020772068C06910F4407FEB
:101F5000204602D0FFF791FF04E000F042F820464F
:101F600000F040F8257720680169C943C90708D106
:101F7000C168C943C90704D1891E0161204600F028
:101F800033F820680169C943090609D4C168C94307
:101F9000090605D46FF0800101612046FFF73EFF7E
:101FA00020680169C943490609D4C168C943490683
:101FB00005D46FF040010161204600F01FF8206851
:101FC0000169C94389060BD4C168C943890607D48E
:101FD0006FF0200101612046BDE87040FFF71FBF90
:101FE00070BD70477047000000680349884201D106
:101FF000FFF7C0BB70470000002C0140704770B570
:10200000040004D094F83900002510B106E0012046
:1020100070BD84F83850204600F022F8242084F85F
:1020200039002068C16821F40051C160204600F0E9
:1020300025F92068016921F4904101612068416916
:1020400021F02A0141612068C16841F40051C1605A
:10205000E563202084F8390084F83A00002070BD40
:1020600030B585B000240094019402940394006874
:102070001449884224D11448816941F48041816126
:10208000816901F480410491816941F00401816119
:1020900080690E4D00F0040004904FF40070009031
:1020A000022001900320039069462846FFF76CFA4E
:1020B0002815CDE90004694628460294FFF764FA22
:1020C00005B030BD0038014000100240000801405A
:1020D0002DE9F843044690F839001F4616460D4690
:1020E000202850D1A5B19EB194F8380001284AD0DB
:1020F000012084F838004FF00008C4F83C8021200B
:1021000084F83900FFF730FBA6848146E68426E098
:102110000120BDE8F883E08C401EE084A0684B46B7
:10212000B0F5805F4FF000024FF08001204600972D
:1021300003D000F0FFF8E8B90DE000F0FBF8C8B9F3
:1021400028882168C0F308004860206908B16D1C28
:1021500005E0AD1C03E0216815F8010B4860E08C38
:102160000028D8D14B46002240212046009700F09D
:10217000E1F808B10320CCE7202084F8390084F886
:1021800038800020C5E70220C3E7FEE7FEE770477E
:1021900010B5502080F31188BFF34F8FBFF36F8FBE
:1021A00003F09EF918B104494FF0805008600020F8
:1021B00080F3118810BD000004ED00E00D480168B7
:1021C00041F00101016041680B4A11404160016822
:1021D0000A4A11400160016821F4802101604168D0
:1021E00021F4FE0141604FF41F0181600449C003E6
:1021F00008607047001002400000FFF8FFFFF6FE85
:1022000008ED00E00148FFF739BE0000BC060020E1
:10221000F0B50268164B174C174D4FF080479842A7
:1022200005D0B84203D0A04201D0A84203D122F089
:1022300070064A683243984205D0B84203D0A042A3
:1022400001D0A84203D122F44074CA6822434C69E9
:1022500022F08002224302608A68C2620A688262B7
:10226000984201D10969016301214161F0BD00007B
:10227000002C014000040040000800402DE9F0411E
:10228000044600680169E26821F44051114301618C
:102290002169A0680843616908432168CA6841F25E
:1022A0000C639A430243CA6020684169A26921F421
:1022B0004071114341611E492068642532268842DD
:1022C00002D1FFF7D5FB01E0FFF7C2FB00EBC00135
:1022D00001EB001160686FF018078000B1FBF0F2AD
:1022E000B2FBF5F2B1FBF0F37A4303EB8202B1FBF0
:1022F000F0F306EB0212B2FBF5F2B3FBF5F302F0DA
:10230000F00202EB0312B1FBF0F3B1FBF0F0B0FB13
:10231000F5F0784303EB800006EB0010B0FBF5F01E
:10232000216800F00F0010448860BDE8F0810000D3
:10233000003801402DE9F041984617460E46044604
:10234000069D1DE0681C1BD02DB1FFF70DFAA0EB18
:102350000800A84214D92068C16821F4D071C16076
:102360002068416921F001014161202084F8390091
:1023700084F83A00002084F838000320BDE8F0819A
:102380002068006836EA000004D00020B842D9D0A6
:102390000020F3E70120F9E7FEE7000005A000F0C8
:1023A000AFFF4FF47A7408A000F0AAFF204601F0B6
:1023B0003FFEF8E75374617274496E697454617337
:1023C0006B2E2E200D0A0000496E69742E2E200DF2
:1023D0000A00000010B590B028216846FDF729FFDB
:1023E00014210AA8FDF725FF022000900120049087
:1023F00010200024059007946846FFF77FFB0F200C
:10240000CDE90A040C940D9400210AA80E94FFF75C
:1024100069FA10B010BD00001FB51C4600F03CFA70
:102420000449496804B0204610BDAFF30080AFF303
:102430000080F7E7D800002013B50024012000F049
:102440003DFF0446204600F031FF4FF0FF301CBD39
:10245000AFF30080AFF30080F4E72DE9F0411F46B1
:1024600090460D00064601D00C4600E040241EB9FF
:10247000204600F01FFF06463B464246214600F03C
:102480004FFF002802DA0020307010E0844202DAA8
:1024900000F1010402E00AD14FEA44041DB14FF0FB
:1024A0000000BDE8F081304600F0FCFEE0E7304679
:1024B000F7E700002DE9FF4F484D002789B0286855
:1024C0009B469246002857D145A0002000BF04003B
:1024D00001D105F10C0420463A21FDF730FF68B127
:1024E0003E4A00F8017B121D40A1FDF739FF01288B
:1024F00002D16868002801DC012068603C49142092
:102500008946084600BF06001BD04FF40070C6E99C
:1025100001073848F760306006F1100807A8AFF3EC
:1025200000800246344904A803F0BCFB0146404643
:1025300003F0DCFBA0F1100604A803F0F6FB2F4823
:1025400030602B4E06A8AFF3008002462146684655
:1025500003F0A8FB074601A800F038FE02463068E9
:102560003946C36830469847A86001A800F03EFE8F
:10257000684603F0DAFB2C60AC68601C26D06F68FC
:102580000DF108081A4E554605A8AFF30080024623
:1025900015A103A803F086FBCDE9005030683B4647
:1025A0002246056931464046A84703A803F0BDFB13
:1025B000029A52F8040C60B1DDE909015B46FFF7AD
:1025C0004CFF044602A803F0B0FB20460DB0BDE866
:1025D000F08F02A803F0A9FB0020F7E7900000208D
:1025E00052575354444552520000000025640000E5
:1025F000D04300207C6100083B6200080C620008A8
:102600007821017080214170402181700021C170CA
:102610000121017144F62061816000F16701C0F879
:10262000681470470FB47FB5144D2A68002A04D08F
:102630000898032804DC002190477FBC5DF814FB58
:1026400009AE69460820084600BF18B100F0DCFB5F
:10265000044600E0002432462046089900F092FB30
:10266000206881682046884701462A680898904774
:102670002068016820468847DFE70000CC00002082
:1026800013B5002400F01AFE044614B90320FFF726
:10269000C9FF20461CBDAFF30080AFF30080F4E714
:1026A00000F004BE704700002DE9FC4707464FF0DC
:1026B0000008C7F800809A46894600F10805C0F86E
:1026C00004801400464608D0B4F1804F01D3AFF324
:1026D0000080A00000F0EEFD00E00020C5E900044D
:1026E00003E02868641E40F82460002CF9D1A5F1AD
:1026F0000804C5F80880C5F80C80C4E9068AB9F159
:1027000000000AD0FDF7A0FD401C054600F0D2FDF8
:102710002A464946FEF771F8A061062701A8AFF3E3
:1027200000800146684603F0D9FA82463946174BC5
:10273000174A042000F06BFE65688046062D00D322
:102740003D46C146266806E03146484603F01AFB7E
:1027500009F10409361D206800EB8500B042F3D171
:1027600005E008EB850051466D1C03F00BFBBD42F4
:10277000F7D306492068FDF77FFDC4E90087684666
:1027800003F0D3FA2046BDE8FC8700002B5D00086B
:102790006F15000810B50446806900F083FD04F150
:1027A000080003F097F8083803F0A2F810BD2DE9EF
:1027B000F04104460D4616461046002122600020D6
:1027C00000BF606048B1FDF73FFD401C00F072FDA6
:1027D00007466168FDF7AAFD67602946304600207C
:1027E00000BF2046BDE8F08110B54168044629B11C
:1027F0002068002000BF606800F054FD204610BD36
:102800000C0008D00A460DA1104800F06BFD2046D0
:1028100000F048FD09E050B101280AD002280AD092
:102820000BA206A1094800F05DFDAFF300800AA2EB
:10283000F7E70CA2F5E711A2F3E70000457863651E
:102840007074696F6E3A2025732E0A00D400002040
:10285000756E6B6E6F776E20657863657074696FE7
:102860006E000000756E6578706563746564206540
:102870007863657074696F6E000000006261645F68
:10288000616C6C6F633A206F7574206F66206D65A4
:102890006D6F72790000000010B50A4904460020EF
:1028A000D1E9003200E0401C824204D953F82010E4
:1028B00009B1A142F7D153F82010002900D11046E8
:1028C00010BD0000D800002044210170002141709B
:1028D00080218170A021C170C0210171E02141716E
:1028E000402181716021C17170210172704740687F
:1028F00070472DE9FC410D46174601684FF0FF3443
:1029000006226846FFF753FF21462868FFF794FD2B
:102910000646401C12D000F0A7FC0546D5E9004150
:1029200004EBC100A0420FD12846491C02F0EAFF87
:10293000D5E9000100EBC104083C0AE06846FFF756
:1029400053FF2046BDE8FC812268521C01D00834A8
:10295000E8E73946201D266000F058FC2868201A58
:10296000C410EBE710B50C4600F07EFC4168A142B4
:1029700004DD006800EBC400001D10BDBDE8104080
:1029800000F0ECBBF8B51C4615460E4600F06CFC9A
:102990004168B1420EDD006850F83600411C09D094
:1029A000002100916B4622462946FFF735FD694616
:1029B000884200D10020F8BD406930F8120008407C
:1029C00000D00120704700002DE9F84F064600684E
:1029D00089461D464169DDF828B09246294201D05A
:1029E000002406E000693749284201D0CC6800E0A5
:1029F0008C684FF0000884B1D9F80070E068B842E4
:102A000007D86A46791C04F10800CDF8008002F06E
:102A100036FFA06850F82770F7BBBAF1000F02D15B
:102A20000420FFF7FFFD84B1D9F80070E068B842D8
:102A300007D86A46791C04F10800CDF8008002F03E
:102A40001EFFA06850F8277037BB326800231EA114
:102A5000506928420ED00223102100200D4203D0DD
:102A6000116851F8201009E04900401C0628F5D3F0
:102A7000164903E01069284200D0012318460022BD
:102A80005B46984707463CB13068A04212D02146C9
:102A9000684600F085FB00E00CE04A46394668468F
:102AA00000F016F8CDF80080E069401EE06168464D
:102AB00000F09CFB4A463946304600F009F838469B
:102AC000BDE8F88FB0000020000000003862000868
:102AD000F8B50646087A15460C46C0070FD1286897
:102AE00020B917490868401C0860286020683146F2
:102AF000826820469047A06840F00100A0603068DE
:102B00002D68C068A84207D80020009030686A4647
:102B1000691C083002F0B3FE3068806850F8250068
:102B200030B1C168491EC16002D101684968884757
:102B3000E068401CE0603068806840F82540F8BDDF
:102B4000F80000207CB5054608680C46806948B14D
:102B50006846AFF30080024620688169284603F08A
:102B6000A1F87CBD01A8AFF30080024600A1F5E703
:102B70002A00000010B50446FDF73FFE204610BDB8
:102B80007CB504462DA1FDF759FEE8B32CA12046E3
:102B9000FDF754FEC0B34FF4007000F08BFB054608
:102BA000022221466846FFF702FE0024FDF718FEC8
:102BB00006464FF4807330680021005D10F0010F6D
:102BC00000D0012110F03E0F01D041F0020110F0C1
:102BD000400F01D041F0040110F0100F01D041F07E
:102BE000080110F0080F01D041F0100110F0980F0B
:102BF00001D041F0200120281DD000220AB141F06F
:102C0000400110F0020F00E013E001D041F080011C
:102C100080EA800010F0800F01D041F4807125F827
:102C20001410641C9C42C6D16846FFF7DDFD28469F
:102C30007CBD05487CBD0122E0E7000043000000A8
:102C4000504F534958000000EC5E00082DE9FC414C
:102C5000064615460C460846FFF792FF01462B46EE
:102C60000022304600F086F93E4901600646406980
:102C70003D49884273D001203076022221466846C1
:102C8000FFF795FD0024FF25E2B210213046FFF743
:102C900093FE38B909E0EAB210213046FFF78CFE06
:102CA00030B96D1EA542F6D802E0641CAC42EBD3ED
:102CB000C6E90745F76A18E0A4F16100192810D8A1
:102CC000E2B210213046FFF777FE50B1A4F12008A0
:102CD00008F0FF0208213046FFF76EFE08B14046BB
:102CE00000E0204607F8010B641CAC42E4D9002444
:102CF000FF25E2B208213046FFF75EFE38B909E051
:102D0000EAB208213046FFF757FE30B96D1EA542E2
:102D1000F6D802E0641CAC42EBD3C6E90945376B38
:102D200018E0A4F14100192810D8E2B20821304679
:102D3000FFF742FE50B104F1200808F0FF02102115
:102D40003046FFF739FE08B1404600E0204607F85C
:102D5000010B641CAC42E4D96846FFF745FD3046E0
:102D6000BDE8FC8190610008EC5E000810B500F041
:102D700004F8BDE8104000F099BA10B500F08EF9E3
:102D800010BD0000F7B51746002413460D46064651
:102D90000A4621462046FFF78DFB04000DD1002D89
:102DA00001DB172D00D30025164800213B4650F8C3
:102DB00025200846FFF751FB04467068B8B1FDF7BF
:102DC00043FA05462046FDF73FFA2844401C00F030
:102DD00071FA7168FDF7AAFA2146FDF79BFA0546DC
:102DE000706800F05FFA204600F05CFA2C467460D0
:102DF0003046FEBDAFF30080204600F053FAAFF33B
:102E00000080F5E7905E000810B500F027FA02494F
:102E100001600021416010BDC461000810B5044686
:102E200004482060606800F03DFA2046AFF300805F
:102E300010BD0000C461000810B502F076FF10BD9F
:102E400010B504464FF0FF30206000F087F90146CE
:102E5000201D00F0B5F9001F10BD10B5001D00F0D9
:102E6000C5F9001F10BD10B5044601C92060201D22
:102E700000F0CCF9204610BD2DE9FE43064602A81D
:102E8000FFF760FE022268460299FFF790FC02A855
:102E900002F04BFF0024FF25E2B210213046FFF77D
:102EA0008BFD38B909E0EAB210213046FFF784FD06
:102EB00030B96D1EA542F6D802E0641CAC42EBD3DB
:102EC000C6E90745F76A18E0A4F16100192810D88F
:102ED000E2B210213046FFF76FFD50B1A4F1200897
:102EE00008F0FF0208213046FFF766FD08B14046B2
:102EF00000E0204607F8010B641CAC42E4D9002432
:102F0000FF25E2B208213046FFF756FD38B909E047
:102F1000EAB208213046FFF74FFD30B96D1EA542D9
:102F2000F6D802E0641CAC42EBD3C6E90945376B26
:102F300018E0A4F14100192810D8E2B20821304667
:102F4000FFF73AFD50B104F1200808F0FF0210210C
:102F50003046FFF731FD08B1404600E0204607F853
:102F6000010B641CAC42E4D96846FFF73DFCBDE8A8
:102F7000FE8300002DE9F04106462020706000200D
:102F8000C6E902033F4B33607161327611B93E49A5
:102F9000716130760024FF25E2B210213046FFF740
:102FA0000BFD38B909E0EAB210213046FFF704FD05
:102FB00030B96D1EA542F6D802E0641CAC42EBD3DA
:102FC000281BC6E90745401C00F074F90746F0626B
:102FD00018E0A4F16100192810D8E2B2102130469F
:102FE000FFF7EAFC50B1A4F1200808F0FF02082125
:102FF0003046FFF7E1FC08B1404600E0204607F804
:10300000010B641CAC42E4D90024FF25E2B2082184
:103010003046FFF7D1FC38B909E0EAB20821304662
:10302000FFF7CAFC30B96D1EA542F6D802E0641C59
:10303000AC42EBD3281BC6E90945401C00F03AF925
:103040000746306318E0A4F14100192810D8E2B215
:1030500008213046FFF7B0FC50B104F1200808F019
:10306000FF0210213046FFF7A7FC08B1404600E000
:10307000204607F8010B641CAC42E4D93046BDE899
:10308000F0810000D8610008EC5E000810B500F087
:1030900005F8BDE8104000F009B9000010B504467D
:1030A00008482060207E10B1606900F0FBF8E06AFB
:1030B00000F0F8F8206B00F0F5F82046AFF3008040
:1030C00010BD0000D861000810B5AFF30080BDE866
:1030D000104000F0EBB8000070B51D4E30690028BC
:1030E00027D1202000F0EAF8044602230A2219A181
:1030F000FFF7DAFA00241025B06008E0B16808682C
:10310000896900EB840002F017FE6D00641C15F461
:103110007C7FF3D1202000F0D1F8044601230A225D
:103120000DA1FFF7C1FA4FF47C71F0600161B06846
:10313000306170BDAFF30080B06818B1FFF72AFBB3
:1031400000F0B4F800203061B060AFF3008070BDD3
:10315000B0000020430000000000000010B50D4C3E
:10316000206908B9FFF7B8FF2078C0070FD10948D8
:1031700000F057F958B10748A168001D00F010F899
:10318000054A0649FDF718FF0248AFF300800148E1
:10319000001D10BDB000002000000008ED31000847
:1031A00010B5044601600548006908B9FFF794FFAF
:1031B0002168C869401CC861204610BDB0000020CD
:1031C00009680160CA69521CCA61704770B5064C33
:1031D0000546206808B9FFF77FFF21682960C869A4
:1031E000401CC861284670BDC000002010B50446D0
:1031F000006848B1C169491EC16105D1206818B194
:10320000FFF7C8FA00F052F8204610BD70B50D4621
:1032100004460168286881420FD0C169491CC16118
:103220002068C169491EC16105D1206818B1FFF746
:10323000B1FA00F03BF828682060204670BD10B558
:1032400000F004F8BDE8104000F030B810B51030C0
:10325000FFF7F2FD1038AFF3008010BD01490160A7
:10326000704700002C6200080A4810B50078C007BB
:103270000ED1084800F0D5F850B107480021074AA0
:10328000016041600649FDF797FE0248AFF30080F8
:10329000014810BDFC0000200001002000000008D3
:1032A0008D59000810B500F001F810BD10B500F000
:1032B0008FFD10BD10B500F001F810BD10B5040071
:1032C00007D1012405E0FDF76DFE006800B9044850
:1032D0008047204600F076FE0028F4D010BD0000A4
:1032E000090700080FB4024610B504A9034B039860
:1032F00000F0C0F910BC5DF814FB0000B93D0008F7
:103300000FB4054B10B503A9044A029800F0B2F9B6
:1033100010BC5DF814FB0000B93D0008D00000208F
:103320007CB5044600201D46164600290BD0491ED8
:10333000CDE90041044B6A462946304600F09AF92F
:10334000009A002111707CBDA33D00082DE9FF4DBE
:1033500082B08B46824601200F9990460AFB0BF6FD
:10336000009006B901261446301911B1884720B1E2
:1033700001E0FFF79FFF044400E0002484B1B8F1AE
:10338000000F01D044E902BA059848B1002527464C
:1033900004E00599384688475F446D1C5545F8DBC5
:1033A00006B02046BDE8F08DAFF300800E9828B13E
:1033B00003465A4629463846FEF7CBF8009860B1D6
:1033C000109AA4EB080006EB0801904705E0AFF364
:1033D0000080FDF79BF9AFF30080FDF761FE090760
:1033E000090E002804DB00F1E02080F8001470478B
:1033F00000F00F0000F1E02080F8141D7047002855
:1034000004D0A0F108020CCAFDF74BBE704738B5D6
:103410000C460093134601460822204600F00AF8A5
:1034200038BD016809B100207047012101600846DC
:1034300070470000FEB5044E089C00258DE8700022
:10344000FFF784FFFEBD0000A532000802E008C8B7
:10345000121F08C1002AFAD170477047002001E00E
:1034600001C1121F002AFBD1704700000248002151
:103470000160001D01607047C400002070B50A4D56
:10348000022400260820FFF715FFC5E9000428687C
:10349000641E40F82460FAD12846BDE87040034A13
:1034A0000349FDF789BD0000D80000200000000896
:1034B000E3580008024800210160001D01607047C8
:1034C000A800002010B50448FFF79AF8BDE81040A6
:1034D0000248FFF7F9B9000048010020B4050020B8
:1034E0002DE9FF5F82B00021DDE90430020DDDF837
:1034F00040B0034318D044F61050A2F2FF324243CA
:103500001514119801281FD0A5EB0B00401C5FEA91
:10351000000A4FF000064E4FDFF83891B046504693
:1035200015D5CAF1000413E0119801244AA301281B
:1035300001D16FEA0B010298119AC0E90031C0E98C
:10354000024206B0BDE8F09FCBF10000DFE7044681
:103550000021404A491842EB0450CDE9001012E026
:10356000E00707D032463B4640464946FCF7BBFFE2
:103570008046894632463B4610461946FCF7B3FF63
:1035800006460F466410002CEAD1DDE90401DDE9AE
:103590000023BAF1000F06DAFCF7A5FF42464B46BE
:1035A000FCF7A1FF05E0FDF710F842464B46FDF79A
:1035B0000CF804460E460022284BFDF78DF803D880
:1035C0004FF0FF30014607E00022254B20463146F0
:1035D000FCF7E2FEFDF768F8102409E0002C0ADB96
:1035E0000A220023FCF765FE039B30321A55641E45
:1035F00050EA0102F2D1641C039AC4F1110314448D
:10360000119A012A03D0012208430DD10AE0084390
:1036100004D000204FF0110B119072E7A3EB0B05C3
:103620006D1E0DE05B4504DD4FF0000205F1010564
:1036300004E003DA4FF00002A5F10105002AECD006
:1036400002981199C0E90231C0E9004579E700000C
:10365000000014400000F03F300000000000F04384
:103660000000E03F30380A2801D2012070470020D6
:10367000704700002DE9FF4F95B09B4689460646EE
:1036800000250FE2252877D100242746F84A01219A
:10369000059400E0044316F8013F203B01FA03F0D3
:1036A0001042F7D130782A2811D06FF02F033078EC
:1036B000A0F13002092A16D8059A44F0020402EB60
:1036C000820203EB42021044761C0590EFE759F8A2
:1036D000042B0592002A03DA504244F4005405906A
:1036E00044F00204761C30782E2816D116F8010F0B
:1036F00044F004042A280DD06FF02F023078A0F196
:103700003003092B09D807EB870302EB4303C718E3
:10371000761CF3E759F8047B761C30786C280FD0C0
:1037200006DC4C2817D068280DD06A2814D104E094
:10373000742810D07A280FD10DE044F400140AE068
:1037400044F4801401E044F440147278824202D1BF
:1037500004F58014761C761C307866280BD013DCB8
:10376000582877D009DC002875D04528F6D046289F
:10377000F4D047281AD19DE118E0632835D0642899
:1037800079D0652812D195E1702873D008DC6728BC
:10379000F1D069286FD06E280DD06F2806D1B5E022
:1037A00073282CD0752875D0782874D05A4617996C
:1037B00090476D1C75E1C4F30250022809D003281C
:1037C0000DD0D9F8001004280DD00D6009F10409BE
:1037D00067E1D9F80010EA17C1E90052F6E7D9F815
:1037E00000100D80F2E70D70F0E719F8041B8DF85A
:1037F000001000208DF80100EA46012003E059F88E
:1038000004AB4FF0FF3061074FF0000102D40DE030
:1038100008F101018846B9420FDA8045F8DB1AF851
:1038200008100029F4D108E008F10101884681421E
:10383000FADB1AF808100029F6D105985B46A0EBD0
:10384000080721463846179A00F094FA284400EBFE
:10385000080507E04DE029E10DE01AF8010B5A4692
:1038600017999047B8F10108F7D25B4621463846D0
:10387000179A13E142E00A220092C4F302524FF079
:10388000000A022A08D059F804CB032A4FEAEC7147
:103890000AD00DE029E02AE009F1070121F0070232
:1038A000F2E802C1914609E00FFA8CFC4FEAEC7194
:1038B000042A03D14FFA8CFC4FEAEC71002907DA95
:1038C0000A460021DCF1000C61EB02012D2202E02E
:1038D000220504D52B228DF80420012203E0E20703
:1038E00001D02022F7E7904659E00A2102E0102299
:1038F0000DE010214FF0000A00910BE010224FF074
:10390000000A44F004040827009203E008224FF064
:10391000000A0092C4F30252022A05D059F804CBDF
:103920000021032A08D009E009F1070121F007026C
:10393000F2E802C1914605E01FFA8CFC042A01D18D
:103940000CF0FF0C4FF00008220728D5702806D095
:10395000009B83F0100353EA0A0305D00EE04022D7
:103960008DF80420012208E05CEA010206D0302232
:103970008DF804208DF8050002229046009B83F00C
:10398000080353EA0A030AD15CEA010201D1620783
:1039900005D530228DF804204FF001087F1E5828ED
:1039A00004D034A003900EA802900DE036A0F9E7F1
:1039B00053466046009AFCF77CFC84460398825C80
:1039C0000298401E029002705CEA0100F0D1029859
:1039D00006A9081A00F1200A600702D524F48034F1
:1039E00000E00127574502DDA7EB0A0000E00020B8
:1039F00000EB0A01009005984144401A0590E0034D
:103A000006D45B462146179A059800F0B3F90544A1
:103A1000002706E001A85A46C05D179990476D1C23
:103A20007F1C4745F6DBE0030CD55B462146179A21
:103A3000059800F09FF9054404E030205A46179994
:103A400090476D1C0099481E00900029F5DC08E0A5
:103A5000029802995A460078491C0291179990479A
:103A60006D1CBAF10001AAF1010AF1DC65E1000068
:103A70000928010030313233343536373839616244
:103A80006364656600000000303132333435363708
:103A900038394142434445460000000000F058F9DF
:103AA0000544761C307800287FF4ECAD19B0284628
:103AB000BDE8F08F620700D4062709F1070222F063
:103AC000070CFCE80223E14603F000485FEA080C1B
:103AD00002D00FF2702C0DE05FEA045C02D50FF209
:103AE000682C07E05FEAC47C02D00FF2602C01E092
:103AF000AFF2700C4FF0FF3823F00043CDF850C008
:103B000065280CD006DC452809D046281DD047285A
:103B10003DD13DE0662818D067287ED138E00021ED
:103B2000112F01DB112000E0781CCDE9000106A96E
:103B30000EA8FFF7D5FCDDE90F010E9A03910021D5
:103B4000009207F1010A04914DE04FF00040009708
:103B5000CDE9011006A90EA8FFF7C2FCDDE90F02AE
:103B600003920E9B11990022DDF80CA000930492A1
:103B700011B9791C00EB010AB7EB0A0004D4C0F1BB
:103B8000FF3007F1010A0490AAEB0700019044E01E
:103B9000012F00DA01270021112F01DD112000E0A3
:103BA0003846CDE9000106A90EA8FFF799FCDDE92A
:103BB0000F010E9A0391002104910092BA46210749
:103BC0000CD40399514500DA8A46BAF1010F05DD9C
:103BD000009AAAF10101515C302908D0B84202DAFA
:103BE00010F1040F06DA0121CDE9011015E0AAF168
:103BF0000101E9E7002805DC049901440491AAEBDE
:103C0000000102E0411C514500DD8A460499401A3A
:103C1000401C01904FF000400290200704D401980E
:103C2000504501DBCDF8048000208DF84F0002984C
:103C30000DF14F07B0F1004F25D02B200E900298C8
:103C40004FF0020800280CDA404202902D200E901E
:103C500007E00A210298FCF716FB3031029007F8C2
:103C6000011DB8F10001A8F10108F2DC029800285A
:103C7000EFD1791E0E980870307800F0200040F0E7
:103C8000450007F8020D12A8C01B00F107081498A0
:103C9000007800B1012000EB0A01019801EBE0710E
:103CA00005984144401A401E0590E00306D45B4647
:103CB0002146179A059800F05DF80544149800789D
:103CC00018B15A46179990476D1CE00324D55B46FE
:103CD0002146179A059800F04DF805441CE0049819
:103CE000002807DBDDE90301884203DD0098405C22
:103CF000179901E0179930205A469047049805F12A
:103D00000105401C04900198401E019004D12E2012
:103D10005A46179990476D1CBAF10001AAF1010AA1
:103D2000DDDC05E017F8010B5A46179990476D1C2A
:103D3000B8F10001A8F10108F4DC5B462146179AAE
:103D40000598ABE62D0000002B00000020000000CD
:103D50002DE9F041044600251E461746880404D488
:103D600005E039462020B0476D1C641EF9D5284671
:103D7000BDE8F0812DE9F041044600251E4690463D
:103D8000C80301D5302700E02027880404D505E0CA
:103D900041463846B0476D1C641EF9D52846BDE83B
:103DA000F0814A68002A06D00A68531C0B60107024
:103DB0004868401E4860704713B54FF6FF730122F4
:103DC00069460248FEF784F900981CBD08010020EE
:103DD00010B5002821D0114B0022001F196803E004
:103DE000814203D80A4649680029F9D152B11368C3
:103DF000841A9C4204D1006818441060104602E006
:103E0000506000E0186039B102680B1A934203D188
:103E10000B681A4402604968416010BDEC00002044
:103E200088B041480590FDF7ADFCFEF7D3FA0024B9
:103E30003E48029403940494816941F02001816119
:103E4000816901F020010691816941F004018161DD
:103E5000816901F004010691816941F008018161E5
:103E6000806901A900F00800069005200190304803
:103E7000FDF78AFB30482F4901604FF4E131C0E97A
:103E800001140C21C460C0E904418461C461FEF7DF
:103E9000B6F82AA105A801F04FFF2CA205A9684693
:103EA00001F096FF2AA00099FFF72AFA684601F070
:103EB000D5FE15B927A0FFF723FA29A105A801F01F
:103EC0003BFF00F0CFF82B4927A0182208604FF4E1
:103ED0008060C1E90502243127A30B6010238B61A8
:103EE00043004B61243127A30B60C1E90502243153
:103EF00027A20A602022C1E90502243127A0086018
:103F00000A460221082000F0E9F8274C194A00214E
:103F10006060264800F01CF9206025A0FFF7F0F94A
:103F200000F0BCF8FEE70000F4430020001002405F
:103F300000080140003801400801002048656C6C11
:103F40006F2073746D333266313033000D0A000018
:103F5000257300004C4344204572726F72210000AB
:103F600048656C6C6F210000496E69745461736B15
:103F70000000000014060020446973706C617954DD
:103F800061736B00566F6C756D655461736B0000E7
:103F9000436F6E74726F6C5461736B00566F6C7507
:103FA0006D65517565756500000000209D23000852
:103FB0006F734B65726E656C53746172742E2E2034
:103FC0000D0A0000F0B50B30154D20F0070100245C
:103FD000144A0FE003688B420BD38B4205D95E1A5B
:103FE00043184768C3E9006700E04368136002C0F4
:103FF00004E0021D10680028ECD12046002802D100
:10400000286808B10020F0BD064A07481060074A3A
:10401000121A22F00702C0E9002401202860D7E725
:10402000F0000020EC000020FC430020F8450020B8
:1040300010B5EFF3058149B9EFF3108131B90849A3
:104040000968022905D1EFF3118111B16FF0050460
:1040500003E0002408B100F01DFE204610BD000062
:1040600068000020EFF3058058B9EFF3108040B9E5
:1040700009490868022801D030B109E0EFF3118046
:1040800030B16FF0050070470120086000207047D4
:104090004FF0FF30704700006800002010B5EFF3CC
:1040A000058060B9EFF3108048B90B490868022811
:1040B00002D0012806D00BE0EFF3118040B16FF081
:1040C000050010BD0220086000F04CFE002010BD6D
:1040D0004FF0FF3010BD000068000020F8B5144616
:1040E0004FF00005EFF305826ABBEFF3108252BB7D
:1040F000164A1268022A02D1EFF311821ABB10B3DA
:1041000009B3ACB1D4E902326BB1502A1BD3226996
:10411000CAB1676900FB01F6B74214D300250095C8
:1041200000F016FF07E072B9226962B9626952B9FC
:10413000002200F0E9FE050005D00CB1216800E086
:10414000002100F071FD2846F8BD00006800002045
:10415000F0B585B04FEA01034FF00004EFF305819D
:104160000394A1BBEFF3108189BB2149096802299F
:1041700002D1EFF3118151BB48B3802618218DF88D
:10418000104004AD42B3176807B13D4697691FB1AF
:1041900039467F1E382F02D21779FF0702D0002040
:1041A00005B0F0BD576907B1BE08D2F808C0BCF130
:1041B000000F0DD0D4685C2C18D312693AB137B116
:1041C0008DE806103246294601F04BF903900DE0C8
:1041D000D7685FB912694AB903AACDE90012B2B231
:1041E000294601F011F9012800D003940398D7E77C
:1041F000680000202DE9F041134C0F460546666922
:104200002068001D00F016FC681C07D137B121683A
:10421000BDE8F0410D48091D00F05CBC2068354444
:10422000B5424560216805D2A068BDE8F041091D8E
:1042300000F038BC6068091D00F034FC206B85423A
:1042400000D22563BDE8F08118000020EC0B0020AF
:104250002DE9F041054600F049FC2D4C2069401C39
:10426000206120682B4F10B1E06930B32BE025604E
:104270002069012827D1002606EB860007EB800085
:1042800000F002FC761C382EF6D3234800F0FCFB2D
:104290002148143000F0F8FB1F48283000F0F4FBF0
:1042A0001D483C3000F0F0FB1B48503000F0ECFBA8
:1042B000194860601430A06005E02068E96AC06AAF
:1042C000884200D82560E06A401CE0626864E86AC1
:1042D000A169884200D9A06100EB800007EB800053
:1042E000291D00F0F7FB00F021FCE06900280CD04C
:1042F0002068E96AC06A884207D208494FF08050B6
:104300000860BFF34F8FBFF36F8FBDE8F0810000EF
:10431000180000203C0700209C0B002004ED00E06A
:1043200038B500F0E3FB104CA068C8B90F4800F0A6
:10433000ABFB0E48143000F0A7FB0C482060143093
:1043400060600A4B00202833009003F150021021D6
:104350000A2000F0FDFDA06010B105A100F064FC92
:10436000BDE8384000F0E2BB54000020000C002003
:10437000546D72510000000030B4026C0B46002AEC
:104380000BD0C1681144C1604468A14201D30168E7
:10439000C16030BC1846FCF730BA30BC70472DE91C
:1043A000F041856B174604460026026C82B1C7B106
:1043B000E068FCF722FAE168206C091AE1602268E3
:1043C000914202D26168081AE060022F16D017E00D
:1043D0002068A8B9606801F0E7F806460020606030
:1043E0000EE0A068FCF709FA216CA0680844A06000
:1043F0006168884204D32068A06001E005B16D1EA9
:104400006D1CA5633046BDE8F08110B5044690F8F8
:10441000590058B101280CD002280FD0502080F349
:104420001188BFF34F8FBFF36F8FFEE7206B00F053
:1044300091FB2046BDE8104000F08CBB10BD000091
:1044400010484FF44051420706D0C01D0D4920F0DE
:104450000700411AC1F540510B4A00230144C2E94B
:1044600000030839103A21F0070111604B600B601E
:104470000B1AC0E9001393604FF000405360D06006
:1044800070470000D01300207C000020144E154C13
:10449000A6F29C474FF08058DFF84C9012E000BF26
:1044A00000F024FBF068C568281D00F0C3FA2069FD
:1044B000401E2061E068401EE06000F037FB2846A7
:1044C000FFF7A3FFE0680028EAD138680128F9D98E
:1044D000C9F80080BFF34F8FBFF36F8FF2E7000082
:1044E000D80B00201800002004ED00E070B51D4638
:1044F000049C51B1C4F80020C4E90F0101212046F9
:1045000000F05AFD84F84C5070BD2460F4E72DE9AA
:10451000F0470E46DDE90984174682469100994628
:10452000089DA522206BFBF77DFE6FF00301206B39
:1045300001EB8701084420F00707780707D05020D7
:1045400080F31188BFF34F8FBFF36F8FFEE7221800
:10455000315C82F83410315C11B1401C1028F6D364
:10456000002684F84360382D00D33725E562C4E97E
:104570001356201D00F093FA04F1180000F08FFA92
:104580002461C5F138006462A061666584F85860F2
:104590004A465146384600F03BFA2060B8F1000F19
:1045A00001D0C8F80040BDE8F087000030B51149DF
:1045B00000E011460A688242FBD34B685C188442D3
:1045C00003D1406818444860084643681C18944268
:1045D00009D1084C103C2468A24209D052681A4400
:1045E00042600A6812680260814200D0086030BDF3
:1045F0000460F9E77C00002070B5002441600B4D99
:104600000061914206D8D11A8269914206D2011DF9
:10461000686807E09A4203D2994201D3012403E07B
:10462000011D286800F03EFA204670BD54000020AD
:1046300010B5044600F05AFAA06B28B15FF00004F0
:1046400000F074FA204610BD0124F9E730B589B0B6
:10465000304D55E00498002806DADDE90601059A98
:104660009047049800284BDB069C606910B1201D20
:1046700000F0E0F902A800F0B9F8024604980A2810
:104680003ED2DFE800F00505053D263705053D264D
:104690000598A169034601442046FFF7ADFF00B32A
:1046A000616A20468847E069012829D100200090EE
:1046B0000598A169002342181946204601F07EF8AA
:1046C00078B9502080F31188BFF34F8FBFF36F8FFD
:1046D000FEE70598A06128B1811813462046FFF730
:1046E0008BFF0DE0502080F31188BFF34F8FBFF395
:1046F0006F8FFEE794F82C0010B9204600F02AFADC
:10470000002204A9A86800F0A9FD0028A2D109B0E0
:1047100030BD0000540000202DE9FC410F46054645
:1047200000F064FB01A800F061F80446019818B19C
:1047300000F0B2FFBDE8FC81224EAFB170680068A6
:10474000A8B30027291B3A46B06800F081FA00F0B0
:10475000A3FF0028EED11C494FF080500860BFF342
:104760004F8FBFF36F8FE5E7A542EBD800F094FFC2
:1047700030682746C068C468201D00F05BF9E06916
:10478000012810D1A0692B4641193A462046FFF76F
:1047900033FF40B100200346014600902A462046E0
:1047A00001F00CF820B1616A20468847C2E707E0B3
:1047B000502080F31188BFF34F8FBFF36F8FFEE758
:1047C0000127BFE75400002004ED00E006484168DF
:1047D000096829B14168C968C968496801637047B7
:1047E0004FF0FF31FAE700001800002070B50546D1
:1047F00000F070FE064E04463069844203D200F099
:1048000009F8012000E0002028602046346170BDD6
:1048100054000020F8B5194D1FE0C068C468066850
:10482000201D00F007F9616A20468847E0690128E9
:1048300013D1A0693044B04206D924616060211DC3
:10484000286800F02FF908E0002003460146009098
:104850003246204600F0B2FF38B1286801680029CE
:10486000DBD16968C5E90010F8BD502080F31188DC
:10487000BFF34F8FBFF36F8FFEE70000540000209F
:1048800008484068401C4FF0500080F3118804D065
:10489000BFF34F8FBFF36F8FFEE7BFF34F8FBFF3B1
:1048A0006F8FFEE784000020074C2068016841B14B
:1048B000C0680021D0F80000FFF72EFFFFF7C6FE0A
:1048C000F3E701210020F7E7540000202DE9F04133
:1048D000044600F00BF994F9455004F1240609E070
:1048E000606A48B1304600F09FFE08B100F000FA5F
:1048F0006D1E6DB2002DF3DC4FF0FF3684F845607D
:1049000000F014F900F0F2F894F9445004F11007A3
:1049100009E0206948B1384600F086FE08B100F091
:10492000E7F96D1E6DB2002DF3DC84F84460BDE83C
:10493000F04100F0FBB800002DE9F04105460027EA
:1049400000F054FA314E306808B9FFF779FDF0688D
:1049500005424BD1C5B3083568070ED005F00700F6
:10496000C0F108000544680707D0502080F3118883
:10497000BFF34F8FBFF36F8FFEE72DB37068854293
:1049800034D82248103001460C6801E020460C461D
:104990006168A94202D221680029F7D131688C42AE
:1049A00024D007682168016060680837411B10291E
:1049B0000FD96019420708D0502080F31188BFF347
:1049C0004F8FBFF36F8FFEE710E041606560FFF728
:1049D000EDFD61687068401A7060B268904200D264
:1049E000B060F06801430020C4E9000100F054FE0B
:1049F000780707D0502080F31188BFF34F8FBFF3A3
:104A00006F8FFEE73846BDE8F08100006C000020A3
:104A100010B5031F4FF080741C601B1F21F00101B3
:104A20001960191F024B0B60143940380A6010BD21
:104A300081480008D0E9013201699A60D0E9012378
:104A40005A604A68824201D182684A60002202614B
:104A50000868401E0860086870470000034B036048
:104A600003F15C000860802010607047180D002082
:104A7000044B036003F15C0008604FF48070106029
:104A800070470000740F002000F108014FF0FF3262
:104A9000C0E90112C160016100210160704700217D
:104AA0000161704730B50B685A1C02D000F1080252
:104AB00002E0026904E02246546825689D42FAD962
:104AC00053684B6099608A60516008610168491CB5
:104AD000016030BD42684A6093688B60936859609A
:104AE000916008610168491C01607047502080F3A3
:104AF0001188BFF34F8FBFF36F8F0A494868401C7E
:104B0000486001280CD10848006810F0FF0F07D05A
:104B1000502080F31188BFF34F8FBFF36F8FFEE7F4
:104B2000704700008400002004ED00E00849486858
:104B300028B1401E486001D180F311887047502091
:104B400080F31188BFF34F8FBFF36F8FFEE7000034
:104B50008400002070B5002827D0144DA0F108046F
:104B60006168E868014207D1502080F31188BFF3E3
:104B70004F8FBFF36F8FFEE722683AB1502080F36A
:104B80001188BFF34F8FBFF36F8FFEE781436160E2
:104B900000F02CF960686968084468602046FFF7F7
:104BA00005FDBDE8704000F077BD70BD6C000020D1
:104BB0004FF0E02000210161816105494FF47A72D4
:104BC0000968B1FBF2F1491E41610721016170479B
:104BD0001400002010B5FBF7DFFA114910280ED39E
:104BE00000F1E02090F8F0030A78904207D25020BC
:104BF00080F31188BFF34F8FBFF36F8FFEE7094833
:104C00000068896800F4E060884207D9502080F38A
:104C10001188BFF34F8FBFF36F8FFEE710BD000009
:104C2000840000200CED00E010B5084B002200BF0E
:104C300053F832401CB1521C082AF9D310BD43F876
:104C4000321003EBC201486010BD0000FC060020DA
:104C500070B515460E460446FFF748FF94F9441018
:104C60000020491C01D184F8440094F94510491CE6
:104C700001D184F84500FFF759FFA06B28B92A46F7
:104C8000314604F1240000F051F82046BDE87040A0
:104C9000FFF71CBE10B5020014D00F48806B38B16E
:104CA000502080F31188BFF34F8FBFF36F8FFEE763
:104CB00000F09CF800211046FFF79CFA00F0ECFC95
:104CC000002807D105494FF080500860BFF34F8F8F
:104CD000BFF36F8F10BD00001800002004ED00E04E
:104CE00002498A6A026049694160704718000020E1
:104CF00001490120486270471800002010B50C4699
:104D000050B1094909681831FFF7CCFE2046BDE8CB
:104D100010400121FFF76EBA502080F31188BFF3D5
:104D20004F8FBFF36F8FFEE71800002070B5144659
:104D30000D4668B10A4909681831FFF7CBFE0CB17E
:104D40004FF0FF3521462846BDE87040FFF752BAC4
:104D5000502080F31188BFF34F8FBFF36F8FFEE7B2
:104D60001800002030B587B00024039405AA04A9D8
:104D700003A80494FFF772FEDDE903010094CDE976
:104D80000110002315A11748059A00F06AFB164D83
:104D9000002868631FD000F0E1FC012809D0401C06
:104DA00019D1502080F31188BFF34F8FBFF36F8F5D
:104DB000FEE7502080F31188BFF34F8FBFF36F8F52
:104DC0004FF0FF3028630120E8616C6107B0BDE857
:104DD000304000F045B807B030BD000049444C45B4
:104DE000000000008D440008180000200248816B7C
:104DF000491C81637047000018000020164810B558
:104E0000816B11B10121416210BD002141628169B4
:104E1000124A01E0B9B1491E01EB810352F8233077
:104E2000002BF7D001EB810302EB830202F10804AF
:104E300053685B685360A34201D15B685360DA68D2
:104E40000260816110BD502080F31188BFF34F8F45
:104E5000BFF36F8FFEE70000180000203C07002022
:104E60001CB5264908780190FF20087008788DF855
:104E700000009DF800009DF8002000F0F000904236
:104E800007D0502080F31188BFF34F8FBFF36F8F8F
:104E9000FEE79DF800001A4B00F050001870072044
:104EA000986005E09DF8002052008DF80020401E1B
:104EB0009DF800201206F5D49860032807D05020F2
:104EC00080F31188BFF34F8FBFF36F8FFEE74FF46E
:104ED00040709860019808700A48016841F47001B8
:104EE0000160016841F070410160FFF761FE002040
:104EF0005860FBF71BF900201CBD000000E400E037
:104F00008400002020ED00E0F8B517460E460500AD
:104F100014D0DEB105FB06F05030FFF70DFD0400A4
:104F20000AD0002084F8460004F150023B46314686
:104F300028460094FFF7DAFA2046F8BD502080F3A7
:104F40001188BFF34F8FBFF36F8FFEE70020E3E7B9
:104F500038B5049D18B153B1CAB181B120E05020D9
:104F600080F31188BFF34F8FBFF36F8FFEE75020A0
:104F700080F31188BFF34F8FBFF36F8FFEE7502090
:104F800080F31188BFF34F8FBFF36F8FFEE739B106
:104F9000502080F31188BFF34F8FBFF36F8FFEE770
:104FA00050241C46012384F846302B460094FFF71A
:104FB0009DFA204638BD000070B50D46040025D08E
:104FC000FFF794FDD4E90F20216802FB0011616016
:104FD0000021A1632168A1600A46D4E90F01401EA7
:104FE00000FB0121E16021464FF0FF3001F8440F42
:104FF000487004F110008DB1FFF746FD04F1240064
:10500000FFF742FDFFF792FD012070BD502080F3B5
:105010001188BFF34F8FBFF36F8FFEE7216900291F
:10502000F0D000F001FB0028ECD004494FF0805094
:105030000860BFF34F8FBFF36F8FE3E704ED00E02D
:105040002DE9FF4782B01D468A464FF00008040054
:1050500003D0BAF1000F08D011E0502080F311887E
:10506000BFF34F8FBFF36F8FFEE7206C38B1502036
:1050700080F31188BFF34F8FBFF36F8FFEE7022DD0
:105080000AD1E06B012807D0502080F31188BFF3CC
:105090004F8FBFF36F8FFEE700F00EFA3F4F4FF0D8
:1050A00000094FF0805648B9049838B1502080F379
:1050B0001188BFF34F8FBFF36F8FFEE7FFF716FD29
:1050C000A06BE16B884207D3022D05D00498D0B1C4
:1050D000B8F1000F1AD01EE02A4651462046FFF7CD
:1050E0005EF9616A19B104F1240000F09DFA20B163
:1050F0003E60BFF34F8FBFF36F8FFFF717FD0120A7
:1051000006B0BDE8F087FFF711FD22E06846FFF723
:10511000E7FD4FF00108FFF709FDFFF767FEFFF716
:10512000E5FC94F94400401C01D184F8449094F9C2
:105130004500401C01D184F84590FFF7F7FC04A915
:10514000684600F027F930B12046FFF7BFFB00F0BA
:10515000A3FA0020D4E7FFF7C9FCA06BE16B8842FB
:1051600013D1FFF7E3FC04F110000499FFF7C6FD2B
:105170002046FFF7ABFB00F08FFA00289ED13E607F
:10518000BFF34F8FBFF36F8F98E7FFF7CFFC204639
:10519000FFF79CFB00F080FA90E7000004ED00E0D0
:1051A0002DE9F0471F4690468946040003D0B9F127
:1051B000000F08D011E0502080F31188BFF34F8F0B
:1051C000BFF36F8FFEE7206C38B1502080F3118859
:1051D000BFF34F8FBFF36F8FFEE7022F0AD1E06B53
:1051E000012807D0502080F31188BFF34F8FBFF301
:1051F0006F8FFEE7FFF7EEFC5020EFF3118680F390
:105200001188BFF34F8FBFF36F8FA06BE16B8842A4
:1052100006D3022F04D0002086F31188BDE8F08762
:1052200094F945503A4649462046FFF7B8F8681CBD
:1052300004D06D1C84F845500120EDE7606A002819
:10524000FAD004F1240000F0EFF90028F4D0B8F10E
:10525000000FF1D00121C8F80010EDE72DE9F74764
:10526000002683B08A46040003D0BAF1000F08D0AC
:1052700011E0502080F31188BFF34F8FBFF36F8F81
:10528000FEE7206C38B1502080F31188BFF34F8FB8
:10529000BFF36F8FFEE700F00FF9DFF8F4804FF0F7
:1052A00000094FF0805748B9059838B1502080F375
:1052B0001188BFF34F8FBFF36F8FFEE7FFF716FC28
:1052C000A56BC5B151462046FFF756F86D1EA56384
:1052D000206950B104F1100000F0A6F928B1C8F817
:1052E0000070BFF34F8FBFF36F8FFFF71FFC0120DC
:1052F00006B0BDE8F087059808B11EB106E0FFF7DB
:1053000015FC27E06846FFF7EBFC0126FFF70EFCD3
:10531000FFF76CFDFFF7EAFB94F94400401C01D154
:1053200084F8449094F94500401C01D184F84590DC
:10533000FFF7FCFB05A9684600F02CF80028204682
:105340000AD0FFF7C3FA00F0A7F92046FFF770F97B
:105350000028B3D00020CBE7FFF76AF990B104F141
:1053600024000599FFF7CAFC2046FFF7AFFA00F0CA
:1053700093F90028A2D1C8F80070BFF34F8FBFF394
:105380006F8F9BE72046FFF7A1FA00F085F995E7BC
:1053900004ED00E02DE9F0410C46050011D0C4B148
:1053A000FFF7A4FB174B5A696E682068911B471CD6
:1053B00017D02F689B6A9F4219D0964217D80124B4
:1053C00010E0502080F31188BFF34F8FBFF36F8F31
:1053D000FEE7502080F31188BFF34F8FBFF36F8F2C
:1053E000FEE70024FFF7A2FB2046BDE8F0818842DB
:1053F00005D9401A20602846FFF772FCF1E700202B
:105400002060DCE7180000202DE9FF5F8346DDE91E
:105410000E87994616468A469000FFF78DFA0500DA
:105420001CD05C20FFF788FA040014D0002025630C
:1054300084F85900CDE90240CDE900874B46324659
:1054400051465846FFF763F82046FEF701FF01205A
:1054500004B0BDE8F09F2846FFF77CFB4FF0FF301B
:10546000F6E7F0B585B0DDE90B640A9DA6B1DCB1C5
:105470005C2700972663022684F85960002604AF53
:10548000CDE90246CDE90057FFF741F82046FEF787
:10549000DFFE049805B0F0BD502080F31188BFF303
:1054A0004F8FBFF36F8FFEE7502080F31188BFF35B
:1054B0004F8FBFF36F8FFEE70548C16919B1806B4D
:1054C00018B100207047012070470220704700008B
:1054D00018000020014840697047000018000020B3
:1054E0002DE9F0412E4C0027A06B40B1206A401CF2
:1054F0002062606A00B101273846BDE8F081666924
:10550000761C666113D16068006838B1502080F362
:105510001188BFF34F8FBFF36F8FFEE76068A168FC
:105520006160A060A06A401CA062FFF74FF9206B89
:10553000DFF87080864209D36068006880B16068D7
:10554000C068C568686886420DD220632068C06A5A
:1055500000EB800158F821000128CAD90127C8E7CB
:105560004FF0FF30F1E7281DFFF764FAA86A18B181
:1055700005F11800FFF75EFAE86AA169884200D9D0
:10558000A06100EB800108EB8100291DFFF7A2FA62
:10559000E86A2168C96A8842CED30127CCE70000B7
:1055A000180000203C07002070B504004FF00001F7
:1055B00033D01B4D2868844207D0502080F31188D7
:1055C000BFF34F8FBFF36F8FFEE7206D38B1401EE2
:1055D0002065E36CE26A9A421FD040B11DE0502082
:1055E00080F31188BFF34F8FBFF36F8FFEE7201D4D
:1055F000FFF720FAE06CE062C0F13800A061E06AD9
:10560000A969884200D9A861064900EB800001EB36
:105610008000211DFFF75EFA0121084670BD0000E1
:10562000180000203C07002070B5C068C46854B161
:1056300004F118000646FFF7FDF9144DA86B50B1B0
:105640003146134815E0502080F31188BFF34F8F87
:10565000BFF36F8FFEE7201DFFF7ECF9E06AA96941
:10566000884200D9A8610B4900EB800001EB800063
:10567000211DFFF72FFAE06A2968C96A884202D91A
:105680000120686270BD002070BD0000180000207D
:10569000C40B00203C0700202DE9F0472C4D0024CE
:1056A0002746A86B38B1FFF721FAA86B401EA86304
:1056B000A86B40B146E0502080F31188BFF34F8FB4
:1056C000BFF36F8FFEE72969224E0120D1B3A6F503
:1056D000916980463068E0B1F068C46804F1180050
:1056E000FFF7A8F9201DFFF7A5F9E06AA96988422C
:1056F00000D9A86100EB800109EB8100211DFFF7B3
:10570000E9F9E06A2968C96A8842E3D3C5F82480C8
:10571000E0E70CB1FFF75AF82C6A4CB14FEA0806E3
:10572000FFF7DEFE00B16E62641EF9D10020286230
:10573000686A38B10849012738070860BFF34F8FFE
:10574000BFF36F8FFFF7F2F93846BDE8F08700002E
:1057500018000020C40B002004ED00E010B586B056
:10576000FEF7DEFD114CA068B8B100200390049054
:1057700005AA04A903A8FFF77BF9DDE903210220AC
:105780008DE8070000230AA10B48059AFFF769FE80
:10579000E06010B106B0012010BD502080F31188E8
:1057A000BFF34F8FBFF36F8FFEE700005400002060
:1057B000546D722053766300A94800082DE9FF411B
:1057C0001E46134602000A9D4FF0000016D0144CEE
:1057D000A768002F0FD0CDE900130292062917DA2F
:1057E000FFF76AFE02284FF000030FD0002269463F
:1057F000A068FFF725FC04B0BDE8F081502080F3DD
:105800001188BFF34F8FBFF36F8FFEE72A46EEE795
:105810000023324669463846FFF7C2FCEBE700003A
:10582000540000200349884202D00168491C0160ED
:1058300070470000E843002070B560B1012814D023
:105840000C4615463420FDF739FD06462A4621460A
:10585000FDF7FCF970BD3420FDF730FD0023044650
:105860001A461946FDF786FB70BD3420FDF726FD6C
:105870000022044601231146FDF77CFB70BD2DE993
:10588000F04117460D460446B1F1804F01D3AFF306
:105890000080A800FDF70EFD06466068A84200D310
:1058A00028463246216801E008C908C2236803EB94
:1058B00080038B42F8D103E0396846F82010401C81
:1058C000A842F9D32068FDF7EDFCC4E90065304635
:1058D000BDE8F08110B504460068FDF7E3FC204602
:1058E00010BD10B504460068FDF7DCFC204610BD75
:1058F00010B5044600680249FAF7BEFC204610BD08
:105900002B5D00082DE9FC4706460D466846FDF76D
:1059100097FA82461A48854201D9AFF3008029469A
:10592000184B194A0820FDF772FD74688046AC4296
:1059300000D32C46C146376806E039464846FDF795
:1059400092FA09F108090837306800EBC400B84240
:10595000F3D105E008EBC4005146641CFDF783FA5F
:10596000AC42F7D307493068FAF786FCC6E90085F0
:1059700044466846FDF771FA2046BDE8FC87000002
:10598000FEFFFF1F5B2E0008412E000810B50446E5
:1059900000680249FAF770FC204610BD5B2E000833
:1059A0002DE9FE431D461746DDE90A3801F11004D2
:1059B00006462A4639462046FCF7E4FF05002CD06F
:1059C00039462046FCF7CEFF1749026804460868AE
:1059D000D2F80C8001272023DFF850C0804503D97E
:1059E000926852F8200000E0002028B93A4620468C
:1059F000CDF800C0FCF7E8FF02A8AFF30080024634
:105A0000294601A800F04EF90146304600F06EF933
:105A100001A800F08AF9BDE8FE8303B04146304694
:105A2000BDE8F04300F062B9A80000203958000832
:105A30001030FCF75EBF7FB5064601EB510000EB6E
:105A4000D104203182B01D46A14200D90C4604A9E0
:105A50006846009400F0B5F901682A46304600F027
:105A6000C3F806B00C3070BD3EB50546069C00205C
:105A7000CDE900402846029400F002F828463EBDD9
:105A80002DE9FC5F05460068DDE90C6A50F8040C5E
:105A90000C46DDF8389098469346A04201D3B245B3
:105AA0000FD9B04201D9014600E03146A04201D2EF
:105AB000234600E053464A4A009111460920FCF76C
:105AC000B1FD2868594650F8040C071BBB4500D2AD
:105AD0000F46A6EB0A064946B14500D20E46C31B47
