:020000040800F2
:10000000D8450020A1010008B33400085B30000887
:10001000AF340008A5150008F937000800000000FB
:1000200000000000000000000000000009010008BE
:10003000E5150008000000004D010008DD3400084F
:10004000BB010008BB010008BB010008BB010008A0
:10005000BB010008BB010008BB010008BB01000890
:10006000BB010008BB010008BB010008BB01000880
:10007000BB010008BB010008BB010008BB01000870
:10008000A9150008BB010008BB010008BB0100085E
:10009000BB010008BB010008BB010008BB01000850
:1000A000BB01000869350008BB010008BB0100085E
:1000B000BB010008BB010008BB010008BB01000830
:1000C000BB010008BB010008BB010008BB01000820
:1000D000BB010008BB010008BB010008BB01000810
:1000E000BB010008BB010008BB010008DFF814D009
:1000F00000F042FB01F03CFA00480047515700086D
:1001000001F0A6F9D8450020224B19680868B0E82C
:10011000F00F80F30988BFF36F8F4FF0000080F37A
:1001200011884EF00D0E7047000000000648006870
:10013000006880F3088862B661B6BFF34F8FBFF3E3
:100140006F8F00DF00BF00BF08ED00E0EFF3098014
:10015000BFF36F8F0F4B1A6820E9F00F106008B5DE
:100160004FF0500080F31188BFF34F8FBFF36F8FB4
:1001700006F030FD4FF0000080F31188BDE8084024
:1001800019680868B0E8F00F80F30988BFF36F8F33
:10019000704700BF2C000020EFF30580704700007F
:1001A0000648804706480047FEE7FEE7FEE7FEE711
:1001B000FEE7FEE7FEE7FEE7FEE7FEE71135000893
:1001C000ED000008202A04DB203A21FA02F0002189
:1001D000704721FA02F3D040C2F120029140084357
:1001E0001946704740EA01039B0703D009E008C99C
:1001F000121F08C0042AFAD203E011F8013B00F8EC
:10020000013B521EF9D2704710B5431A934209D2EE
:100210008318881803E010F8011D03F8011D521E11
:10022000F9D210BD40EA01039B0703D009E008C9D9
:10023000121F08C0042AFAD203E011F8013B00F8AB
:10024000013B521EF9D210BDD2B201E000F8012BE1
:10025000491EFBD270470022F6E710B513460A4646
:1002600004461946FFF7F0FF204610BD421C10F867
:10027000011B0029FBD1801A704710B504F05CFD0A
:10028000BDE8104004F09EBC30B50B46014600208E
:100290002022012409E021FA02F59D4205D303FA48
:1002A00002F5491B04FA02F52844151EA2F10102C9
:1002B000F1DC30BD2DE9F05F0546002092469B46FB
:1002C00088460646814640241BE02846414647466C
:1002D0002246FFF777FF53465A46C01A914110D382
:1002E00011461846224600F059FA2D1A67EB01080C
:1002F0004F4622460120002100F050FA17EB00097A
:100300004E41201EA4F10104DFDC484631462A4656
:100310004346BDE8F09F421E12F8013F002BFBD17F
:1003200011F8013B02F8013B002BF9D1704703465D
:1003300011F8012B00F8012B002AF9D1184670475B
:100340000246C9B200E0401C0378002BFBD102E05A
:1003500003788B4203D0401E9042F9D200207047B0
:100360000FB400B58DB010A909900B9000914FF01B
:10037000FF300A9000200C90054806900548079031
:100380006A4609A80F9900F0DFFD0DB05DF814FB77
:10039000650F0008830F00082DE9FE4F804681EAB3
:1003A0000300C00F0C46009021F0004123F00045EF
:1003B000B8EB0200A94105D24046214690461C46B2
:1003C0000B46024623F00040104347D0270DC7F3E9
:1003D0000A00C3F30A510290401A019040286BDAD8
:1003E000C3F3130040F4801B0098924620B1002311
:1003F000D2EB030A63EB0B0B01985946C0F14002A4
:10040000504600F0CBF906460D4650465946019A33
:1004100000F0D3F910EB08006141002487EA115283
:1004200084EAE7731A4340D0009A62B3019A012A22
:100430004FEA075215DC001B61EB02014FF000424E
:1004400002EA0752CDE90042001C41F58011324614
:100450002B4600F0D7FD03B0BDE8F08F40462146A3
:10046000F9E7001B61EB0201001C41F58013001845
:100470005B412018A2F5001747EB030140EAD57055
:10048000B6196D4111E06D084FEA360645EAC075B0
:100490004FEA0752001B61EB0201001C41F580117D
:1004A00049084FEA30000019514132462B4603B04B
:1004B000BDE8F04F00F097BD0098012240000023F6
:1004C000D0EB020263EBE073009821464FEAE07440
:1004D000B8EB000061EB0401E9E783F000435BE760
:1004E00081F0004158E72DE9FE4F81EA030404F052
:1004F000004421F0004100944FF0000B23F0004332
:1005000050EA01045ED052EA03045BD0C3F30A54FC
:10051000C1F30A552C44A4F2F3340194A0FB025415
:10052000C1F3130141F48011C3F3130343F48013A7
:1005300001FB024400FB034E840A970A44EA8154FB
:1005400047EA8357A4FB076802958D0A05FB0785D8
:100550004FEA932C04FB0C542705029D4FEA0658E2
:1005600047EA1637B5EB08056EEB070C870E920EBF
:1005700047EA811742EA8312A7FB0201B6EB0B019F
:1005800064EB00042B0D43EA0C335E1844EB1C5063
:10059000DA465146E7FB0201C5F313044FEA0B3379
:1005A00043EA14534FEA0432019C43EA0603A4F1E0
:1005B0000C040294009CCDE900B400F023FD03B0CC
:1005C000BDE8F08F00200146F9E72DE9F04D81EA02
:1005D000030404F0004B21F0004514464FF0000ADC
:1005E00023F0004150EA050220D054EA01021DD058
:1005F000C5F30A570246C5F31303C1F31300C1F351
:100600000A5640F4801543F48013A7EB0608101B2C
:10061000D64608F2FD3873EB050002D308F1010855
:1006200001E092185B41B8F1000F03DA00200146A7
:10063000BDE8F08D00204FF48011064684460EE0A0
:10064000171B73EB050705D3121B63EB050306436A
:100650004CEA010C49084FEA300092185B4150EA1D
:100660000107EDD152EA030012D082EA040083EAC6
:100670000501084305D0101BAB4106D2012200231F
:1006800006E000224FF0004302E06FF00102531039
:100690001AEB06004CEB085110EB0A0041EB0B0182
:1006A000BDE8F04D00F09FBCC1F30A52C1F3130145
:1006B00040F2FF3341F480119A4202DA00200146F1
:1006C000704740F233439A42A2F2334202DC524274
:1006D000FFF778BD00F062B830B5041E71F1000478
:1006E00004DB4FF00044404264EB0101141E73F13F
:1006F000000405DB1C464FF00043524263EB040349
:10070000994208BF904230BDAFF3008010B500F0B1
:100710000EF8016919B100220261884701E0806882
:100720008047AFF30080000010B5AFF3008070B5D4
:1007300000F03AFC04680546A4B9202005F0F6F85C
:10074000040011D0094900202C60C4E900010849C7
:10075000A1602073206160610649A06109B100F0C9
:10076000B1FCE061204670BDAFF3008000000000E6
:100770002907000800000000064C074D06E0E0686D
:1007800040F0010394E8070098471034AC42F6D3D8
:10079000FFF7B0FC90900008B0900008202A04DB1E
:1007A000203A00FA02F1002070479140C2F1200384
:1007B00020FA03F3194390407047202A06DBCB1739
:1007C000203A41FA02F043EAE07306E041FA02F30C
:1007D000D040C2F120029140084319467047000002
:1007E000004870474C8D000810B50446FFF7F8FF2D
:1007F0000068005D00F0010010BD10B5441A03460A
:10080000944209D28418114403E011F8013D04F820
:10081000013D521EF9D210BD40EA0104A40703D0E5
:1008200009E010C9121F10C3042AFAD203E011F81C
:10083000014B03F8014B521EF9D210BD10B5002236
:1008400000E0521C835C8C5CA34201D1002BF8D1E8
:10085000D8B2E1B2401A10BD2DE9FF4F1C4681B05D
:100860000021D4E9016791464FF0FF358A4688465A
:10087000A1696D1C02988847216A83468847002831
:10088000F6D1BBF1FF3F0CD026F4C066002F1ADD75
:10089000700615D5BBF12B0F0AD0BBF12D0F0FD170
:1008A00004E04FF0FF3005B0BDE8F08F46F48066FD
:1008B000A1696D1C029888477F1E8346002F02DDC8
:1008C000BBF1300F03D0B9F1000F2AD025E0A169A8
:1008D0006D1C46F400767F1E029888478346002FE1
:1008E00005DDBBF1780F06D0BBF1580F03D0B9F18D
:1008F000000F10D011E0B9F1000F02D0B9F1100FC4
:100900000BD1A1696D1C26F400767F1E02988847E2
:100910008346102000E0082081464FEAE9700090ED
:1009200017E00A20F8E74346AAFB092803FB0980E1
:10093000DDF800C07F1E0AFB0C0112EB0B0A41EB35
:10094000EB78A16946F4007605F101050298884725
:100950008346002F06DD4946584600F0D1FB5FEA8A
:10096000000BE0D5E16902988847B00502D46FF02A
:10097000010098E7F00718D1700610D570055146B0
:1009800005D50023D1EB030163EB080200E04246EA
:100990002068031D23600068C0E9001205E020689C
:1009A000011D21600068C0E900A828467BE72DE909
:1009B000FF5F1D464FF0FF3BD5E9014691465F467C
:1009C0004FF00008A9697F1C01988847296A824670
:1009D00088470028F6D1BAF1FF3F0CD024F4C06458
:1009E000002E19DD600614D5BAF12B0F09D0BAF12B
:1009F0002D0F0ED103E0584604B0BDE8F09F44F43B
:100A00008064A9697F1C01988847761E8246002E63
:100A100002DDBAF1300F03D0B9F1000F26D032E079
:100A2000A969761E44F400747F1C019888478246A9
:100A3000002E05DDBAF1780F06D0BAF1580F03D0B9
:100A4000B9F1000F10D01EE0B9F1000F02D0B9F1DA
:100A5000100F18D1A969761E24F400747F1C019828
:100A600088478246102002E0082000E00A208146E4
:100A700009E008FB0908A969761E44F400747F1C8C
:100A8000019888478246002E05DD4946504600F011
:100A900037FB0028EDDAE96901988847A00502D400
:100AA0006FF00100A8E7E00725D1600613D56005C7
:100AB00002D5C8F1000000E0404629680A1D2A60FE
:100AC0000968220501D5087015E0220701D50880C4
:100AD00011E008600FE02868011D29600068210509
:100AE00002D580F8008006E0210702D5A0F800803A
:100AF00001E0C0F8008038467EE72DE9FF5FD2E9CB
:100B000001A74FF00008916999461446DDF838B006
:100B1000464601988847054659EA0B0005D009E08A
:100B2000A169761C019888470546216A28468847AE
:100B30000028F5D1681C03D05FEACA7005D015E023
:100B40004FF0FF3004B0BDE8F09F2068011D216028
:100B5000D0F800800AE05FEACA7001D108F8015BB2
:100B6000A169761C7F1E019888470546002F1ADD73
:100B7000681C18D0B9F1000F0DD0E81705EBD06054
:100B8000421120F01F0059F822102A1A012090402B
:100B90000142E0D107E0BBF1000FDCD1216A284619
:100BA00088470028D7D0E16901988847BBF1000F3A
:100BB00007D1002E05DD5FEACA7002D1002188F856
:100BC0000010A068B84203DDBBF1000F03D017B1DD
:100BD0006FF00100B6E73046B4E700002DE9FF4FA3
:100BE000087883B09946FF2805D0491C2D2804D0E9
:100BF0000024002008E000200BE00124F9E700EBCE
:100C0000800003EB4000491C0B78FF2BF7D104B1A7
:100C1000404200230293147819461D462D2C01D022
:100C20002B2C04D1521C2D2C13D000240294AA4644
:100C30001478FF2C0FD00A25A3FB057801FB058152
:100C40004FF0000C03FB0C11521CE3194AEB01019D
:100C5000EEE70124EAE7814453EA010002D019F5E6
:100C6000C87F06DA03980021C0E9001107B0BDE88B
:100C7000F08F0025AE4E2F46DFF8B882184600F000
:100C800008FCCDE90001B9F1000002DAC9F1000465
:100C900000E004460023A74A1AEB030B42EB045A78
:100CA00012E0E00707D02A46334638464146FFF7B0
:100CB0001AFC074688462A46334610461946FFF76F
:100CC00012FC05460E466410002CEAD1DDE9000155
:100CD000B9F1000F5A46534606DAFFF776FC3A465A
:100CE0004346FFF772FC05E0FFF7FDFB3A4643463B
:100CF000FFF7F9FB029A0AB181F00041039AC2E9B9
:100D00000001B3E72DE9FF4F1F468DB0D7E901463B
:100D10004FF0FF382E2045464FF000090B90B9697F
:100D20006D1C0E988847396A824688470028F6D19C
:100D3000BAF1FF3F0AD024F4D064002E11DDBAF1DD
:100D40002B0F08D0BAF12D0F0BD102E0404611B0A5
:100D50008DE744F48064B9696D1C0E98884782461B
:100D6000761E6946600501D52D2000E02B208DF808
:100D7000000001F1010B0DF1200809E0B9696D1CBB
:100D80000E98884782460F9844F40074761E0560DA
:100D9000002E02DDBAF1300FF0D00B998A453ED11A
:100DA00044F0800406E00F99681CA9F1010944F49D
:100DB00000740860B9696D1C761E0E9888478246DB
:100DC0003028F0D02BE00B998A4505D1200603D4BA
:100DD00044F08004761E18E0504604F0D9F808B3B9
:100DE0000DF11301761E44F400748B4508D2AAF16C
:100DF00030000BF8010B200607D5A9F1010003E034
:100E0000200602D409F101008146A00502D50F9900
:100E1000681C0860B9696D1C0E9888478246002ED0
:100E2000D1DC53E0002E51DDBAF1650F02D0BAF1EA
:100E3000450F4BD1A00549D5B9696D1C24F4407408
:100E4000761E0E9888478246002E0CDD2B2804D093
:100E5000BAF12D0F07D144F48074B9696D1C0E9856
:100E600088478246761EE00501D52D2100E02B2122
:100E700008F8011BCDF82C8021E00DF12901761E28
:100E800044F4007488450CD2AAF1300010F0FF0041
:100E900088F8000002D10B99884509D908F10108AA
:100EA00006E0E00501D5244801E042F20F708146DA
:100EB000B9696D1C0E98884782460F980560002E10
:100EC00004DD504604F064F80028D6D1F9690E9884
:100ED0008847FF208BF8000088F80000002006906B
:100EE00007904B466A4608A906A8FFF777FEA005BB
:100EF00002D46FF001002AE714F0240F0AD0E007B3
:100F000014D1DDE906123868031D3B600068C0E9B2
:100F100000120BE0DDE9060100F0C7FA0146E00728
:100F200004D13868021D3A600068016028460EE767
:100F3000000014400000F03FF1D8FFFF02681144A8
:100F40001378016018467047D16004495161044923
:100F5000116200211161114600F0E0B83D0F000858
:100F6000E9070008426842B1016811F8013B23B16A
:100F7000521EC0E90012184670470121C160881E48
:100F8000704742685AB1C368016843B983688B42AD
:100F900005D0491E521CC0E90012002070474FF0D6
:100FA000FF307047034870470248001D011F8860EA
:100FB000001D7047F40000202DE9F041074615465A
:100FC0000E46102004F0B2FC04000AD06760C4E9A9
:100FD000026500F039FA0168216004600020BDE874
:100FE000F0810120FBE710B5141E73F1000408DA4C
:100FF000401C41F1000192185B411A4301D120F0DD
:10100000010010BD2DE9F04D92469B4611B1B1FA99
:1010100081F202E0B0FA80F220329046FFF7BEFB88
:1010200004460F4640EA0A0041EA0B0153465A467D
:10103000084313D0114653EA010019D0C8F1400209
:101040005046FFF7BFF805460E4650465946424601
:10105000FFF7A4FB084305D0012004E020463946F1
:10106000BDE8F08D0020054346EAE0762C43374387
:101070000A986305E40AA0EB08000022FD0A44EA8E
:1010800047540A3002D500200146E9E7010510194E
:101090006941DDE9084500196941BDE8F04DA2E765
:1010A00000DE2DE9F04117460E46054633B107FB39
:1010B0000354E41B2046B047A542FAD1A5F108002D
:1010C000BDE8F08110B5882004F030FC002801D084
:1010D0000021017010BD802902D808B1017809B142
:1010E00000207047012100F8081B704718B100F17B
:1010F0000802914201D00020704700210170704722
:101100003A2800D2303820F02002412A01D3A2F13F
:101110003700884201D34FF0FF3070472DE9F34F7D
:101120008BB04FF0000801F10C000C464FF0010BA2
:1011300046460DF1080A0190626901210198904725
:10114000051E2DD0252D2CD0216A8847C0B162699B
:10115000012101989047216A88470028F7D1411E54
:1011600062690198904700E0761CA1690B98884756
:10117000216A88470028F7D1E1690B988847DBE7A7
:10118000A1690B9888470746A84201D1761CD3E78E
:10119000E1690B9888477F1C02D1B8F1000F6FD02E
:1011A00046E1002762693D463946019890472A2862
:1011B00004D162690121019890470125DFF88492EA
:1011C0006269012101989047A0F130010A290AD2F1
:1011D0004F45E5DC07EB870100EB4107303FDFD4EB
:1011E00045F01005ECE7E90601D46FF000476C28E4
:1011F0000AD04C2814D0682815D06A280DD074283D
:101200001CD07A281AD01DE062690121019890470C
:101210006C2802D045F0040514E045F002050DE00D
:1012200045F020050AE0626901210198904768288D
:1012300002D045F0080505E045F40065626901212A
:1012400001989047C4E9015765283DD019DC58281A
:101250007AD00CDC452837D004DC252826D041285C
:1012600031D131E046282FD047282CD12CE05B2803
:1012700077D0612828D063287CD0642823D15AE015
:10128000D0E06F2848D008DC66281DD067281BD026
:10129000692821D06E2816D127E0702845D0732800
:1012A00068D0752847D078280DD14DE0A1690B98FA
:1012B0008847054625283FF469AFE1690B988847C0
:1012C0006D1C3FF46AAFB3E023466A466FF001003D
:1012D0000B99FFF717FD9EE045F040006060A807FE
:1012E00023464FF0000236D43EE0E8077FF447AFD4
:1012F0002068011D21600068290501D506701BE7E3
:10130000290701D5068017E7A90703D5F117C0E91A
:10131000006111E706600FE745F040006060A80734
:1013200023464FF0080216D41EE040F60E0125EACF
:101330000100606016E045F040006060A8072346A9
:101340004FF00A0207D40FE045F040006060A807A4
:1013500008D5234610226FF001000B99FFF77CFAA5
:1013600059E007E0234610226FF001000B99FFF7C8
:101370001EFB50E04FF000094F464B46632802D059
:101380005B2806D040E0E80601D40120A0600127D8
:101390003AE062690121019890475E2805D14FF03B
:1013A00001096269494601989047216939B90021CC
:1013B0000A46534643F82120491C0829FADBB0B3FA
:1013C000216969B9C11700EBD16253110AEB83019E
:1013D00022F01F02821A01200B68904003430B6029
:1013E00062690121019890475D28E8D1B9F1000FA9
:1013F00009D00020514651F82020D24341F8202046
:10140000401C0828F7DB02AB224600976FF0010072
:101410000B99FFF772FB00280CDA401C08D1BBF1D6
:10142000000F05D04FF0FF300DB0BDE8F08FFFE7A3
:101430004046F9E7E90701D108F1010806444FF0F9
:10144000000B79E6CCCCCC0C00487047080100209A
:101450002DE9F0410646FFF7F7FF8046454613E0C9
:1014600016B1E068B0420ED120682860D4E90101CD
:10147000D8F800708847204604F042F9D8F80000F8
:10148000B842EBD100E025462C68002CE8D1BDE83D
:10149000F0810EB540F2334202920022CDE90022E3
:1014A0001346FFF7AFFD03B000BD01F0004330B4B9
:1014B00021F0004150EA010206D00A0DA2F5607247
:1014C000C1F31301002A02DC30BC00207047440F36
:1014D00044EAC104C100E01830BC00EBC25000F087
:1014E00001B870470029A8BF7047401C490008BFD9
:1014F00020F00100704710B4B0FA80FC00FA0CF044
:1015000050EA010404BF10BC704749B1CCF120047B
:1015100021FA04F411FA0CF118BF01212143084308
:10152000A3EB0C01CB1D4FEA00614FEA102042BF34
:10153000002010BC704700EBC35010440029A4BF2A
:1015400010BC7047401C490008BF20F0010010BCCF
:1015500070472DE9F04116461F460C46851B02E0F8
:101560002846B847AD1B641EFAD2BDE8F0810000E2
:1015700070B5054C054D03E0206820448047241DCC
:10158000AC42F9D170BD0000B0900008BC900008DA
:1015900038B504466846AFF300800146204606F0A1
:1015A000A5FC38BD00BFFEE710B5024800F020F8EA
:1015B00010BD0000B001002030B590F8405001246B
:1015C000AC40C56B6C60046863604468102C04D147
:1015D0000468A2600468E16003E00468A160046834
:1015E000E26030BD70477047014691F821007047B6
:1015F00070B50446E06B05682068066894F84010F2
:10160000042088402840002846D006F00400002826
:1016100042D02068006800F0200028B920680068E7
:1016200020F004002168086057492068884201D1F1
:10163000042027E0544914312068884201D1402019
:1016400020E0514928312068884201D1001519E075
:101650004D493C312068884202D14FF4804011E06E
:10166000494950312068884202D14FF4802009E076
:10167000454964312068884202D14FF4800001E07E
:101680004FF08060404908394860E06A00287AD00D
:101690002046E16A884776E094F8401002208840AE
:1016A0002840A0B306F0020088B32068006800F06C
:1016B000200040B92068006820F00A002168086016
:1016C000012084F8210030492068884201D102209D
:1016D00028E02D4914312068884201D1202021E0E2
:1016E000294928312068884201D140151AE026494D
:1016F0003C312068884202D14FF4005012E0224968
:1017000050312068884203D14FF400300AE017E0DE
:101710001D4964312068884202D14FF4001001E075
:101720004FF0007018490839486000BF002084F865
:10173000200000BFA06A30B32046A16A884722E09B
:1017400094F84010082088402840E0B106F00800D6
:10175000C8B12068006820F00E002168086094F885
:10176000401001208840E16B48600120A06384F8AC
:10177000210000BF002084F8200000BF206B10B1C2
:101780002046216B884770BD0800024001460022B8
:1017900009B901207047164B0868C01A1423B0FB22
:1017A000F3F08000086412480838C863022081F80A
:1017B00021000868026843F6F0708243D1E9010312
:1017C0001843CB6818430B6918434B6918438B695E
:1017D0001843CB69184302430868026000208863FD
:1017E000012081F82100002081F8200000BFD1E70E
:1017F000080002402DE9F04104460D4616461F46FA
:101800004FF0000800BF94F82000012802D1022008
:10181000BDE8F081012084F8200000BF94F8210089
:1018200001282CD1022084F821000020A063206828
:10183000006820F00100216808603B4632462946D6
:101840002046FFF7B9FEE06A30B12068006840F03A
:101850000E00216808600BE02068006820F004009A
:10186000216808602068006840F00A00216808606C
:101870002068006840F001002168086006E000BFB1
:10188000002084F8200000BF4FF002084046BFE768
:1018900070B5044600F0A0F906462546681C10B154
:1018A00004480078054400BF00F096F9801BA84268
:1018B000FAD370BD240000202DE9F847034600222A
:1018C00094466EE14FF0010808FA02F4D1F8008066
:1018D00008EA0400A0427DD1DFF8DCA2D1F8048040
:1018E000A8EB0A09D0453AD014DCB8F1030F50D068
:1018F00009DCB8F1000F31D0B8F1010F1CD0B8F1FC
:10190000020F49D120E0B8F1110F18D0B8F1120F31
:1019100042D11EE0B9F5881F25D006DCB9F5803F1D
:1019200020D0B9F5801F37D11AE0B9F5001F18D0C3
:10193000B9F5041F30D117E0D1F80CC02DE0D1F873
:101940000C8008F1040C28E0D1F80C8008F1080C98
:1019500023E0D1F80C8008F10C0C1EE000BF00BFA2
:1019600000BF00BF00BF00BFD1F80880B8F1000F72
:1019700002D14FF0040C0BE0D1F80880B8F1010F50
:1019800003D14FF0080C1C6102E04FF0080C5C61C1
:1019900003E04FF0000C00E000BF00BFFF2801D8BB
:1019A000984601E003F104084646FF2802D84FEAB2
:1019B000820803E0A2F108084FEA88084746D6F8F3
:1019C00000804FF00F0909FA07F928EA09080CFA14
:1019D00007F900E088E048EA0908C6F80080D1F875
:1019E000048008F08058B8F1805F7DD100BFDFF837
:1019F000CC81D8F8188048F00108DFF8C091C9F808
:101A00001880C846D8F8188008F00108CDF8008082
:101A100000BF00BF4FEAB9384FEA920958F8295081
:101A20004FEA82784FEA18794FF00F0808FA09F860
:101A300025EA0805DFF88881434502D14FF0000808
:101A400016E0DFF88081434502D14FF001080FE036
:101A5000DFF87481434502D14FF0020808E0DFF857
:101A60006C81434502D14FF0030801E04FF00408B8
:101A70004FEA82794FEA197908FA09F848EA050528
:101A8000DFF84C814FEA920948F82950D1F80480D8
:101A900008F48038B8F5803F0AD1DFF83881D8F8EB
:101AA000008048EA0008DFF82C91C9F8008009E0BE
:101AB000DFF82081D8F8008028EA0008DFF81491C8
:101AC000C9F80080D1F8048008F40038B8F5003F68
:101AD00010D1DFF8008108F10408D8F8008048EA46
:101AE0000008DFF8F09000E05AE009F10409C9F8B5
:101AF00000800DE0DFF8DC8008F10408D8F80080F1
:101B000028EA0008DFF8CC9009F10409C9F8008040
:101B1000D1F8048008F48018B8F5801F0ED1DFF8E2
:101B2000B48008F10808D8F8008048EA0008DFF817
:101B3000A49009F10809C9F800800DE0DFF894804D
:101B400008F10808D8F8008028EA0008DFF8849037
:101B500009F10809C9F80080D1F8048008F40018D8
:101B6000B8F5001F0ED1DFF86C8008F10C08D8F82A
:101B7000008048EA0008DFF85C9009F10C09C9F818
:101B800000800DE0DFF84C8008F10C08D8F80080E8
:101B900028EA0008DFF83C9009F10C09C9F8008038
:101BA000521CD1F8008028FA02F8B8F1000F7FF437
:101BB00089AEBDE8F8870000000011100010024057
:101BC00000080140000C01400010014000140140D9
:101BD000080001400004014001480068704700000F
:101BE0001C0000207047000070B504460CB90120AD
:101BF00070BD94F83D0028B9002084F83C002046D0
:101C000000F030FB242084F83D002068006820F0BC
:101C100001002168086000F08FFD05465C4960689E
:101C2000884206D85B48854201D2012007E00020A7
:101C300005E05948854201D2012000E0002001283A
:101C400000D1D5E75548B5FBF0F62068406820F094
:101C50003F003043216848604D496068884201D8A0
:101C6000701C07E04FF4967070434FF47A71B0FB2C
:101C7000F1F0401C2168096A21F03F010843216806
:101C8000086243496068884214D8681E6168490048
:101C9000B0FBF1F0401CC0F30B00042801D204207B
:101CA0003DE0681E61684900B0FBF1F0401CC0F3E4
:101CB0000B0034E0A06838B9681E616801EB41018F
:101CC000B0FBF1F0401C0AE0681E616801EBC10244
:101CD00002EB0111B0FBF1F0401C40F48040C0F376
:101CE0000B0008B901201AE0A06848B9681E6168B5
:101CF00001EB4101B0FBF1F0401CC0F30B000CE024
:101D0000681E616801EBC10202EB0111B0FBF1F04A
:101D1000401CC0F30B0040F4804040F400402168B8
:101D2000C9694CF6FF72914308432168C861D4E940
:101D3000070108432168096821F0C00108432168B0
:101D40000860D4E9031008432168896848F2FF322B
:101D50009143084321688860D4E90501084321685C
:101D6000C96821F0FF0108432168C8602068006845
:101D700040F001002168086000202064202084F8E1
:101D80003D000020206384F83E0000BF30E70000E3
:101D9000A086010080841E0000093D0040420F0023
:101DA0002DE9F84F04460F4690461E46FFF714FFF4
:101DB00005464FF0010994F83D0020287ED11923F3
:101DC00001225E492046009501F09EFA10B10220E2
:101DD000BDE8F88F00BF94F83C00012801D1022033
:101DE000F6E7012084F83C0000BF2068006800F09E
:101DF000010028B92068006840F0010021680860EF
:101E00002068006820F4006021680860242084F8BD
:101E10003D00002020644A48E06200BF206800685E
:101E200040F4807021680860334600224FF00111B1
:101E30002046009501F068FA08B10120C8E707F0D4
:101E4000FE0021680861FFF7C7FE0546206840696B
:101E5000C0F3400A20684069C0F3802B10E0FFF710
:101E6000BBFE401BB04200D816B9A02084F83D004C
:101E700020684069C0F3400A20684069C0F3802BA5
:101E800094F83D00A02805D0BAF1000F02D1BBF1B3
:101E9000000FE4D0202084F83D0020684069C0F3A2
:101EA000400028B32068006840F400702168086092
:101EB00000BF002000902068406900E03BE00090F7
:101EC00020688069009000BF00BF192301221B49D0
:101ED0002046009501F018FA08B1012078E720208B
:101EE00084F83D0000BF002084F83C0000BF6FE78D
:101EF0002068006840F40070216808606FF480601A
:101F000021684861192301220C492046009501F0FF
:101F1000FBF908B101205BE709F10109C145FFF4B4
:101F20007DAF202084F83D0000BF002084F83C00F5
:101F300000BF01204CE702204AE700000200100029
:101F40000000FFFF704700002DE9F8430446894672
:101F500016461F46DDF82080FFF73EFE054694F842
:101F60003D0020287ED119230122514920460095A9
:101F700001F0CAF910B10220BDE8F88300BF94F85F
:101F80003C00012801D10220F6E7012084F83C0042
:101F900000BF2068006800F0010028B920680068D0
:101FA00040F00100216808602068006820F40060AB
:101FB00021680860212084F83D00102084F83E004C
:101FC0000020206466626785608D20853948E06264
:101FD0002B4642464946204601F012F908B101203D
:101FE000CAE700BF00200090206840690090206888
:101FF0008069009000BF00BF44E02A464146204669
:1020000001F027FA50B1206C042805D1206800683F
:1020100040F40070216808600120ADE7606A007834
:1020200021680861606A401C6062608D401E6085A6
:10203000208D401E208520684069C0F3800070B16B
:10204000208D60B1606A007821680861606A401C78
:102050006062608D401E6085208D401E20852A466E
:10206000414600E022E0204601F020F950B1206C0A
:10207000042805D12068006840F4007021680860D9
:10208000012079E7208D0028B7D12068006840F44E
:10209000007021680860202084F83D00002084F84A
:1020A0003E0000BF84F83C0000BF65E7022063E704
:1020B000020010000000FFFF2DE9F84304460E4621
:1020C000174698460020009094F83D0020287DD1C6
:1020D0005F4800681921B0FBF1F04FF47A71B0FB52
:1020E000F1F000EBC00101EB0010009000BF009880
:1020F000401E0090009898B900202063202084F8AA
:102100003D00002084F83E00206C40F02000206458
:1021100000BF002084F83C0000BF0120BDE8F88328
:1021200020688069C0F340000028E0D100BF94F827
:102130003C00012801D10220F0E7012084F83C0096
:1021400000BF2068006800F0010028B9206800681E
:1021500040F00100216808602068006820F40060F9
:1021600021680860212084F83D00102084F83E009A
:10217000002020646762A4F82A80608D208535489D
:10218000E0626664208D002846D03348616B886227
:102190003248616B08630020616BC862616B486301
:1021A000238DD4F800C00CF11002616A606BFFF758
:1021B00021FB0546FDB92068006840F48060216875
:1021C00008602068006840F4807000E03DE021680D
:1021D000086000BF002084F83C0000BF2068406811
:1021E00040F44070216848602068406840F4006016
:1021F0002168486027E0202084F83D00002084F812
:102200003E00206C40F01000206400BF002084F8E5
:102210003C0000BF012081E72068006840F4806036
:10222000216808602068006840F4807021680860B8
:1022300000BF002084F83C0000BF2068406840F4E4
:10224000E06021684860002068E7022066E700003F
:10225000280000200000FFFF9B3000085F300008CE
:102260007047000010B586B004460020029003902D
:10227000049005903749206888423ED100BF364817
:10228000806940F00800344988610846806900F0A0
:102290000800019000BF00BFC020029012200390F0
:1022A0000320059002A92D48FFF706FB00BF2A482E
:1022B000C06940F400102849C8610846C06900F4AC
:1022C0000010019000BF00BF25482649086010207B
:1022D00048600021234881608021C16000210161A4
:1022E00041618161C161FFF751FA08B1FFF77BF9E4
:1022F00000BF1C48606344622AE01B492068884292
:1023000026D100BF1448806940F008001249886156
:102310000846806900F00800019000BF00BF4FF43C
:1023200040600290122003900320059002A90B4800
:10233000FFF7C2FA00BF0848C06940F480000649B0
:10234000C8610846C06900F48000019000BF00BF6A
:1023500006B010BD0054004000100240000C0140C7
:102360006C000240B00100200058004070477047E8
:102370000348006803490978084401490860704728
:102380001C0000202400002010B50848006840F020
:10239000100006490860032000F0CCF8002000F08F
:1023A00007F800F049F8002010BD000000200240AE
:1023B00070B588B004460025002600222146192069
:1023C00000F07AF8192000F067F800BF164880691D
:1023D00040F40060144988610846806900F4006098
:1023E000019000BF00BF02A903A800F07DF900F032
:1023F000B3F905460D48B5FBF0F0461E0C480D49F3
:10240000086040F2E7310B48C1604660002101617D
:10241000816000F02FFC20B9064800F046FC08B0AF
:1024200070BD0120FBE700000010024040420F0099
:10243000002C01409C02002008B500BF14488069B0
:1024400040F00100124988610846806900F00100EF
:10245000009000BF00BF00BF0846C06940F0805038
:10246000C8610846C06900F08050009000BF00BFFE
:1024700000220F21901E00F01FF800BF0549486898
:1024800020F0E06040F00070486000BF08BD000030
:10249000001002400000014001460846002809DB08
:1024A00000F01F0301229A4043099B0003F1E0233F
:1024B000C3F8002100BF70472DE9F05F80460D464C
:1024C0001646002702F01CFC074639462A463346CA
:1024D00001F00700C0F1070ABAF1040F02D94FF06A
:1024E000040A01E0C0F1070AD14600F1040ABAF17A
:1024F000070F02D24FF0000A01E0A0F1030AD44610
:102500004FF0010A0AFA09FAAAF1010A0AEA020AD4
:102510000AFA0CFA4FF0010B0BFA0CFBABF1010BB2
:102520000BEA030B4AEA0B042146404602F0F0FB9B
:10253000BDE8F09F00BF00F00702064B19684FF698
:10254000FF031940044B0B4343EA0221014B19607E
:1025500000BF70470CED00E00000FA0570B50446BE
:102560000D460CB9012070BD5A48006800F0070004
:10257000A8420ED25748006820F00700284355496A
:1025800008600846006800F00700A84201D001205A
:10259000E9E7207800F0020002281DD1207800F041
:1025A0000400042805D14C48406840F4E0604A49E2
:1025B0004860207800F00800082805D146484068A7
:1025C00040F46050444948604348406820F0F000BF
:1025D000A168084340494860207800F0010078B3C2
:1025E0006068012806D13C48006800F4003090B9CA
:1025F0000120B8E76068022806D13748006800F07B
:10260000007040B90120AEE73348006800F00200D6
:1026100008B90120A7E73048406820F0030061684E
:1026200008432D494860FFF7D7FA064609E0FFF74F
:10263000D3FA801B41F28831884202D9032092E705
:1026400007E02548406800F00C006168B0EB810F9E
:10265000EDD12048006800F00700A8420ED91D48BF
:10266000006820F0070028431A49086008460068FF
:1026700000F00700A84201D0012074E7207800F0A4
:102680000400042807D11448406820F4E060E168A1
:10269000084311494860207800F00800082808D154
:1026A0000D48406820F46050216940EAC1000A49A1
:1026B000486000F061F808494968C1F30311074A0E
:1026C000515CC8400649086006480068FFF770FE84
:1026D000002048E70020024000100240548A000811
:1026E00028000020200000200F2202600D4A5268BE
:1026F00002F0030242600B4A526802F0F00282606C
:10270000084A526802F4E062C260064A526802F463
:102710006052D2080261044A126802F007020A609D
:10272000704700000010024000200240014800688D
:10273000704700002800002000B5FFF7F7FF0449AC
:102740004968C1F30221034A515CC84000BD000042
:1027500000100240648A000800B5FFF7E7FF044953
:102760004968C1F3C221034A515CC84000BD000062
:1027700000100240648A0008F0B585B00FF26C0CBE
:102780009CE8E01001A8A0E8E0101CA52D680095C9
:1027900000210022002300240020194D696801F067
:1027A0000C05F5B1042D02D0082D19D101E0154812
:1027B00019E001ADC1F38346AC5D01F4803555B13C
:1027C0000F4D6D68C5F340451DF805200D4D65435F
:1027D000B5FBF2F302E00C4D04FB05F3184602E0F2
:1027E00000BF084800BF00BF05B0F0BD02030405EC
:1027F000060708090A0B0C0D0E0F1010010200004D
:102800000010024000127A0000093D00F8B50446AD
:102810000CB90120F8BD207800F00100002878D024
:10282000F848406800F00C0004280CD0F5484068D7
:1028300000F00C00082811D1F248406800F4803004
:10284000B0F5803F0AD1EF48006800F4003000285E
:102850005FD0606800285CD10120DBE700BF6068C2
:10286000B0F5803F06D1E748006840F48030E54984
:10287000086028E0606858B9E248006820F48030B9
:10288000E04908600846006820F4802008601AE0EB
:102890006068B0F5A02F0BD1DA48006840F48020C2
:1028A000D84908600846006840F4803008600AE0B3
:1028B000D448006820F48030D24908600846006897
:1028C00020F48020086000BF606888B1FFF784F9B9
:1028D000054606E0FFF780F9401B642801D9032074
:1028E00098E7C848006800F400300028F2D010E0F3
:1028F000FFF772F9054606E0FFF76EF9401B642802
:1029000001D9032086E7BF48006800F400300028A2
:10291000F2D1207800F00200022857D1B94840686F
:1029200000F00C0050B1B748406800F00C000828D7
:1029300018D1B448406800F4803098B9B1480068B4
:1029400000F0020020B12069012801D0012061E7D8
:10295000AC48006820F0F800616940EAC100A9496C
:10296000086033E02069E8B10120A7490860FFF75B
:1029700033F9054606E0FFF72FF9401B022801D97D
:10298000032047E79F48006800F002000028F2D0CB
:102990009C48006820F0F800616940EAC10099494C
:1029A000086013E0002098490860FFF715F9054614
:1029B00006E0FFF711F9401B022801D9032029E79F
:1029C0009048006800F002000028F2D1207800F062
:1029D000080008282DD1A069B8B101208B490860F2
:1029E000FFF7FAF8054606E0FFF7F6F8401B022865
:1029F00001D903200EE78348406A00F00200002856
:102A0000F2D0012000F056FD13E000207F4908605D
:102A1000FFF7E2F8054606E0FFF7DEF8401B022864
:102A200001D90320F6E67748406A00F0020000284A
:102A3000F2D1207800F00400042873D100277148F7
:102A4000C06900F0805070B900BF6E48C06940F0A6
:102A500080506C49C8610846C06900F08050009001
:102A600000BF00BF01276A48006800F48070B0B959
:102A70006748006840F4807065490860FFF7ACF86B
:102A8000054606E0FFF7A8F8401B642801D903209B
:102A9000C0E65F48006800F480700028F2D000BFF4
:102AA000E068012806D15748006A40F00100554906
:102AB000086227E0E06858B95248006A20F0010037
:102AC000504908620846006A20F00400086219E0D4
:102AD000E06805280BD14B48006A40F004004949E2
:102AE00008620846006A40F0010008620AE04548B2
:102AF000006A20F00100434908620846006A20F09D
:102B00000400086200BFE068A0B1FFF765F8054661
:102B100009E0FFF761F8401B41F28831884202D991
:102B2000032077E622E03748006A00F00200002820
:102B3000EFD012E0FFF750F8054608E0FFF74CF839
:102B4000401B41F28831884201D9032062E62D48BA
:102B5000006A00F002000028F0D1012F05D12948B9
:102B6000C06920F080502749C86100BFE069C8B340
:102B70002448406800F00C00082860D0E069022872
:102B800048D1002020490866FFF726F8054606E0F0
:102B9000FFF722F8401B022801D903203AE6194822
:102BA000006800F000700028F2D1206AB0F5803F84
:102BB00007D11448406820F40030A1680843114947
:102BC0004860D4E9080108430E49496821F47411AA
:102BD00008430C49486001200B490866FEF7FCFFDA
:102BE000054607E03DE0FEF7F7FF401B022801D94C
:102BF00003200FE60348006800F000700028F2D0C0
:102C00002FE00000001002400000424280044242D7
:102C100000700040002014490866FEF7DDFF0546FD
:102C200006E0FEF7D9FF401B022801D90320F1E599
:102C30000E48006800F000700028F2D111E0E06951
:102C4000012800D1E6E50948466806F48031206A8B
:102C5000814204D106F47011606A814201D00120E2
:102C6000D8E50020D6E500000000424200100240F6
:102C70007047704710B504460CB9012010BD94F898
:102C80003D0028B9002084F83C00204600F00CF8F4
:102C9000022084F83D00211D206800F06DFC012019
:102CA00084F83D000020E9E7704701460868C068E5
:102CB00040F001000B68D8600868806800F00702E7
:102CC000062A05D00868006840F001000B6818600B
:102CD00000207047704710B5044620680069C0F3B3
:102CE0004000D8B12068C068C0F34000B0B16FF0B8
:102CF000020021680861012020772068806900F0C7
:102D0000030018B12046FFF7E5FF05E0204600F07C
:102D1000ADF8204600F0ABF800202077206800696D
:102D2000C0F38000D8B12068C068C0F38000B0B1A3
:102D30006FF0040021680861022020772068806914
:102D400000F4407018B12046FFF7C4FF05E02046AC
:102D500000F08CF8204600F08AF8002020772068E8
:102D60000069C0F3C000D8B12068C068C0F3C000DB
:102D7000B0B16FF008002168086104202077206856
:102D8000C06900F0030018B12046FFF7A3FF05E07B
:102D9000204600F06BF8204600F069F8002020770C
:102DA00020680069C0F30010D8B12068C068C0F383
:102DB0000010B0B16FF01000216808610820207782
:102DC0002068C06900F4407018B12046FFF782FF08
:102DD00005E0204600F04AF8204600F048F80020C0
:102DE00020772068006900F0010058B12068C068B1
:102DF00000F0010030B16FF0010021680861204649
:102E000000F036F820680069C0F3C01058B120689F
:102E1000C068C0F3C01030B16FF080002168086155
:102E20002046FFF725FF20680069C0F3801058B1E5
:102E30002068C068C0F3801030B16FF04000216896
:102E40000861204600F020F820680069C0F34010B7
:102E500058B12068C068C0F3401030B16FF0200056
:102E6000216808612046FFF704FF10BD70477047D6
:102E700010B5044603492068884201D1FFF778FA6B
:102E800010BD0000002C0140704710B504460CB97D
:102E9000012010BDA06900B100E000BF94F8390026
:102EA00028B9002084F83800204600F027F82420B4
:102EB00084F839002068C06820F400502168C86098
:102EC000204600F093FB2068006920F490402168C0
:102ED00008612068406920F02A0021684861206864
:102EE000C06840F400502168C8600020E0632020E2
:102EF00084F8390084F83A000020CAE710B586B09B
:102F00000446002002900390049005901A4920681E
:102F100088422ED100BF1948806940F4804017498B
:102F200088610846806900F48040019000BF00BFBE
:102F300000BF0846806940F0040088610846806947
:102F400000F00400019000BF00BF4815029002206D
:102F500003900320059002A90948FEF7ADFC4FF449
:102F60008060029000200390049002A90448FEF7BC
:102F7000A3FC06B010BD0000003801400010024064
:102F8000000801402DE9F84304460D4616461F4649
:102F90004FF0000994F8390020285CD105B116B92A
:102FA0000120BDE8F88300BF94F83800012801D162
:102FB0000220F6E7012084F8380000BF0020E0631B
:102FC000212084F83900FEF707FE8146A684E684B6
:102FD0002BE0E08C401EE084A068B0F5805F16D145
:102FE0004B46002280212046009700F0CFFB08B11D
:102FF0000320D6E7A846B8F80000C0F3080021680F
:103000004860206908B9AD1C0FE06D1C0DE04B460F
:10301000002280212046009700F0B8FB08B1032071
:10302000BFE715F8010B21684860E08C0028D0D17B
:103030004B46002240212046009700F0A7FB08B134
:103040000320AEE7202084F8390000BF002084F878
:10305000380000BFA5E70220A3E700BFFEE770B578
:1030600005466C6A0020616B8862A16B88622068EB
:10307000006820F4806021680860002060852020BE
:1030800084F83D00002084F83E00206C40F01000E1
:1030900020642046FEF7A6FD70BD2DE9F0410746ED
:1030A0007C6A94F83D5094F83E80E66A2068406857
:1030B00020F44070216848600020616B8862A16B39
:1030C000886205F02100212806D005F02200222880
:1030D00026D1B8F1200F23D12068406820F4006089
:1030E0002168486000206085292D08D121202063B7
:1030F000282084F83D002046FFF739F909E02A2D01
:1031000007D122202063282084F83D002046FFF7C5
:103110002DF92068406840F44070216848604DE017
:1031200094F83E00002849D0608D012805D1206820
:10313000006820F48060216808602068406820F4FE
:1031400040702168486016F5803F06D0082E04D0F4
:10315000B6F12A4F01D0202E05D12068006840F436
:103160000070216808602068406820F48050216861
:1031700048602068406820F40060216848600020B2
:103180006085206C18B12046FEF72CFD16E020204B
:1031900084F83D0094F83E00402807D1002084F8D0
:1031A0003E0020632046FFF75BF807E0002084F82C
:1031B0003E00122020632046FEF7C4FEBDE8F081E9
:1031C000014608684069C0F38020B0B16FF48060A8
:1031D0000A68506100200863202081F83D0000202B
:1031E00081F83E00086C40F00400086400BF002035
:1031F00081F83C0000BF012070470020FCE7000080
:103200002DE9F84304460D4617469846E66A082E0F
:1032100004D0012E02D016F5803F06D12068006848
:1032200040F480702168086008E0206B122805D106
:103230002068006840F48070216808603B460022E6
:103240004FF001112046CDF8008000F05DF810B17C
:103250000120BDE8F8832069B0F5804F04D105F066
:10326000FE002168086112E005F44070F02141EA97
:10327000E0102168086143463A460B49204600F0B9
:1032800086F808B10120E4E7E8B221680861434606
:103290003A460549891F204600F079F808B1012017
:1032A000D7E70020D5E700000800010070B504460C
:1032B0000D46164620E02046FFF782FF08B10120A8
:1032C00070BD681CC0B1FEF787FC801BA84200D807
:1032D00095B900202063202084F83D00002084F868
:1032E0003E00206C40F02000206400BF002084F8E5
:1032F0003C0000BF0120E3E720684069C0F3800084
:103300000028D8D00020DBE72DE9F04104460D4627
:1033100017461E46DDF818801CE0701CD0B1FEF781
:103320005BFCA0EB0800B04200D89EB900202063EF
:10333000202084F83D00002084F83E00206C40F0FE
:103340002000206400BF002084F83C0000BF012062
:10335000BDE8F081C5F3074001280AD12068406923
:10336000A9B20840A9B2884201D101200BE0002097
:1033700009E020688069A9B20840A9B2884201D159
:10338000012000E00020B842C7D00020E0E72DE98E
:10339000F04104460D4616461F463DE02068406950
:1033A000C0F38020E8B12068006840F40070216814
:1033B00008606FF48060216848610020206320204D
:1033C00084F83D00002084F83E00206C40F00400AA
:1033D000206400BF002084F83C0000BF0120BDE84D
:1033E000F081701CC0B1FEF7F7FBC01BB04200D8E3
:1033F00096B900202063202084F83D00002084F846
:103400003E00206C40F02000206400BF002084F8C3
:103410003C0000BF0120E2E7C5F3074001280AD1C4
:1034200020684069A9B20840A9B2884201D10120B0
:103430000BE0002009E020688069A9B20840A9B229
:10344000884201D1012000E000200028A6D0002001
:10345000C5E770B504460D46164620E02046FFF746
:10346000AFFE08B1012070BD681CC0B1FEF7B4FB0F
:10347000801BA84200D895B900202063202084F842
:103480003D00002084F83E00206C40F020002064C5
:1034900000BF002084F83C0000BF0120E3E7206863
:1034A0004069C0F3C0100028D8D00020DBE700BF7F
:1034B000FEE7704708B508490968C9084FF47A72F1
:1034C000B1FBF2F14143009100BF00BF00994A1ED9
:1034D00000920029F9D108BD2800002010B500BFD6
:1034E000502080F31188BFF34F8FBFF36F8F00BF61
:1034F00004F00CF818B14FF080500449086000BF88
:10350000002080F3118800BF10BD000004ED00E032
:103510001148006840F001000F4908600846406803
:103520000E4908400C494860084600680C490840AC
:10353000094908600846006820F4802008600846B1
:10354000406820F4FE0048604FF41F008860C80304
:103550000449086070470000001002400000FFF8B6
:10356000FFFFF6FE08ED00E010B50248FFF7B3FBE1
:1035700010BD00009C02002010B50268184B984254
:1035800008D0B0F1804F05D0164B984202D0164BB0
:10359000984203D122F070024B681A43104B9842B4
:1035A00008D0B0F1804F05D00E4B984202D00E4BA0
:1035B000984203D122F44072CB681A4322F0800370
:1035C0004C6943EA040202608B68C3620B68836241
:1035D000034B984201D10B6903630123436110BD82
:1035E000002C0140000400400008004070B5044673
:1035F0002168096921F44051E26811432268116190
:103600002269A1681143626941EA02052168C9681B
:1036100041F20C62914329432268D16021684969D3
:1036200021F44071A269114322685161564A216810
:10363000914254D1FFF790F800EBC00101EB00116B
:1036400062689200B1FBF2F100EBC00202EB0012E3
:1036500063689B00B2FBF3F26423B2FBF3F202EB6C
:10366000C20303EB0212A1EB8201322202EB011131
:103670006422B1FBF2F101F0F00100EBC00202EBB9
:10368000001263689B00B2FBF3F26423B2FBF3F217
:1036900001EB021200EBC00101EB001163689B001B
:1036A000B1FBF3F100EBC00303EB00136668B60057
:1036B000B3FBF6F36426B3FBF6F303EBC30606EBAA
:1036C0000313A1EB8301322303EB01116423B1FB4C
:1036D000F3F101F00F0111442268916053E0FFF70C
:1036E0002BF800EBC00101EB001162689200B1FB06
:1036F000F2F100EBC00202EB001263689B00B2FB28
:10370000F3F26423B2FBF3F202EBC20303EB021207
:10371000A1EB8201322202EB01116422B1FBF2F132
:1037200001F0F00100EBC00202EB001263689B00A5
:10373000B2FBF3F26423B2FBF3F201EB021200EBF3
:10374000C00101EB001163689B00B1FBF3F100EBDA
:10375000C00303EB00136668B600B3FBF6F3642600
:10376000B3FBF6F303EBC30606EB0313A1EB8301F4
:10377000322303EB01116423B1FBF3F101F00F01DC
:1037800011442268916070BD003801402DE9F0417C
:1037900004460D4617469846069E21E0701CF8B177
:1037A0002EB1FEF719FAA0EB0800B04218D9206834
:1037B000C06820F4D0702168C8602068406920F09B
:1037C000010021684861202084F8390084F83A001B
:1037D00000BF002084F8380000BF0320BDE8F0815E
:1037E000206800682840A84201D1012000E00020A4
:1037F000B842D3D00020F1E700BFFEE708B500BF14
:103800000A48406940F0010008494861084640699B
:1038100000F00100009000BF002205211020FEF7FB
:103820004BFE1020FEF738FE08BD000000100240DD
:1038300000B585B00020019002900390049000BF75
:103840001748806940F02000154988610846806962
:1038500000F02000009000BF00BF0846806940F0E3
:10386000040088610846806900F00400009000BFF1
:1038700000BF0846806940F00800886108468069FA
:1038800000F00800009000BF052001900020029089
:10389000039001A90348FEF70FF805B000BD000032
:1038A000001002400008014010B50A480A490860AB
:1038B0000A484860002108488160C1604FF4804197
:1038C0000161002141618161C1610162FEF78CF9F2
:1038D00010BD0000005800405C010020A0860100DF
:1038E00005A001F09DF900BF08A001F099F94FF47F
:1038F0007A7002F051F8F7E75374617274496E6997
:10390000745461736B2E2E200D0A0000496E697489
:103910002E2E200D0A00000000B58FB0282105A82A
:10392000FCF799FC14216846FCF795FC02200590F1
:103930000120099010200A9000200C9005A8FEF7A5
:1039400065FF08B1FDF74FFE0F20009000200190A9
:1039500002900390049000216846FEF7FFFD08B135
:10396000FDF741FE0FB000BD10B50B480B490860D4
:103970004FF4E1304860002108488160C160016176
:103980000C21416100218161C161FFF77EFA08B11C
:10399000FDF729FE10BD0000003801401C01002089
:1039A0001FB51C4600F002FC0449496804B02046DB
:1039B00010BDAFF30080AFF30080F7E7EC0000200C
:1039C00013B50024012001F009F90446204601F056
:1039D000FDF84FF0FF301CBDAFF30080AFF3008067
:1039E000F4E72DE9F0411F4690460D00064601D050
:1039F0000C4600E040241EB9204601F0EBF80646D4
:103A00003B464246214601F01BF9002802DA00201D
:103A1000307010E0844202DA00F1010402E00AD1C1
:103A20004FEA44041DB14FF00000BDE8F08130467C
:103A300001F0C8F8E0E73046F7E700002DE9FF4F56
:103A4000484D002789B028689B469246002857D1E8
:103A500045A0002000BF040001D105F10C04204660
:103A60003A21FCF76DFC68B13E4A00F8017B121D5B
:103A700040A1FCF775FC012802D16868002801DC30
:103A8000012068603C4914208946084600BF0600B2
:103A90001BD04FF40070C6E901073848F76030606A
:103AA00006F1100807A8AFF300800246344904A8C5
:103AB00004F0C6F90146404604F020FAA0F11006D1
:103AC00004A804F03AFA2F4830602B4E06A8AFF352
:103AD000008002462146684604F0B2F9074601A874
:103AE00001F004F8024630683946C368304698470A
:103AF000A86001A801F00AF8684604F01EFA2C60DC
:103B0000AC68601C26D06F680DF108081A4E554647
:103B100005A8AFF30080024615A103A804F090F9B0
:103B2000CDE9005030683B462246056931464046A3
:103B3000A84703A804F001FA029A52F8040C60B1F5
:103B4000DDE909015B46FFF74CFF044602A804F0DB
:103B5000F4F920460DB0BDE8F08F02A804F0EDF9AD
:103B60000020F7E7A4000020525753544445525216
:103B70000000000025640000B03F0020588D0008C0
:103B8000178E0008E88D000870B50446402084F8C0
:103B900066006078A27800FB02F5E81705EB50702C
:103BA000C010431C217804F1660204F10C00FEF7FA
:103BB00083FA02E00120FDF76BFE206CFDF714FD97
:103BC0000128F7D170BD70B504460D4621782B460B
:103BD0000022204600F088F970BD70B504460D46FD
:103BE0006078A17800FB01F6E378AB4201D10023B5
:103BF00000E0FF231A46F31706EB5373D910D4F8ED
:103C00006804FCF721FB70BD70B50446204600F047
:103C1000F5F8217844F62063012204F10C00FEF748
:103C2000BFF808B1002070BD40F6C41500E06D1E5D
:103C3000002DFCD1AE212046FFF7C5FF20212046F4
:103C4000FFF7C1FF10212046FFF7BDFFB02120463E
:103C5000FFF7B9FFC8212046FFF7B5FF0021204636
:103C6000FFF7B1FF10212046FFF7ADFF40212046AE
:103C7000FFF7A9FF81212046FFF7A5FFFF2120467E
:103C8000FFF7A1FFA1212046FFF79DFFA6212046B7
:103C9000FFF799FFA8212046FFF795FF3F21204617
:103CA000FFF791FFA4212046FFF78DFFD321204687
:103CB000FFF789FF00212046FFF785FFD521204629
:103CC000FFF781FFF0212046FFF77DFFD921204635
:103CD000FFF779FF22212046FFF775FFDA21204602
:103CE000FFF771FF12212046FFF76DFFDB21204611
:103CF000FFF769FF20212046FFF765FF8D21204651
:103D0000FFF761FF14212046FFF75DFFAF2120463A
:103D1000FFF759FFE1782046FFF75FFF2046FFF7E6
:103D200033FF0020A4F8600000216220015301212C
:103D300065200155012076E72DE9F04704468846C5
:103D400015469A464FF00009002634E000272EE081
:103D5000A87800FB08F000EBD9006968085C09F05E
:103D60000701084100F0010060B16220005B3044AF
:103D700082B2B4F86000384481B25346204600F065
:103D800057F811E0BAF1000F01D1012000E0002046
:103D900003466220005B304482B2B4F860003844CD
:103DA00081B2204600F044F809F101097F1C28780F
:103DB000B842CDD8761C6878B042C7D8B4F8600055
:103DC00029780844A4F860004046BDE8F087F0B5C3
:103DD00005460C4616461F460BE021783B46324608
:103DE0002846FFF7A9FF2178884201D02078F0BD4E
:103DF000641C20780028F0D12078F8E710B504463C
:103E00000948E0600949216100216161A161011453
:103E1000E161002121626162A162E16204F10C00B2
:103E2000FDF7E2FE10BD000000540040A086010036
:103E3000F0B50C461D464178A14202DD81789142E1
:103E400000DCF0BD6421095C21B10DB9012100E065
:103E500000210D460179A94222D11146D61702EB65
:103E60005676F610477806FB0746D0F86874BE5DB4
:103E70001346D71702EB5777FF10A2EBC70C0127A9
:103E800007FA0CF73E43D71702EB5777FF1090F86D
:103E900001C007FB0C47D0F868C40CF8076021E0AC
:103EA000D61702EB5676F610477806FB0746D0F891
:103EB0006874BE5D1346D71702EB5777FF10A2EB6D
:103EC000C70C012707FA0CF7BE431146D71702EBC0
:103ED0005777FF1090F801C007FB0C47D0F868C473
:103EE0000CF8076000BFACE72DE9FC4104460F4623
:103EF00015461E468DF804508DF805600A200223F1
:103F000001AA3946009004F10C00FEF71DF8BDE847
:103F1000FC81782101708021417040218170002155
:103F2000C1700121017144F62061816000F16701D7
:103F3000C0F86814704700000FB47FB5144D2A68AC
:103F4000002A04D00898032804DC002190477FBC95
:103F50005DF814FB09AE69460820084600BF18B199
:103F600000F0E2FB044600E00024324620460899B7
:103F700000F098FB206881682046884701462A683F
:103F8000089890472068016820468847DFE70000CE
:103F9000E000002013B5002400F020FE044614B910
:103FA0000320FFF7C9FF20461CBDAFF30080AFF32D
:103FB0000080F4E700F00ABE704700002DE9FC47DE
:103FC00007464FF00008C7F800809A46894600F17E
:103FD0000805C0F804801400464608D0B4F1804FAC
:103FE00001D3AFF30080A00000F0F4FD00E000205A
:103FF000C5E9000403E02868641E40F82460002C32
:10400000F9D1A5F10804C5F80880C5F80C80C4E909
:10401000068AB9F100000AD0FCF728F9401C0546D1
:1040200000F0D8FD2A464946FCF7E7FBA0610627C9
:1040300001A8AFF300800146684603F057FF8246AF
:104040003946174B174A042000F07EFE656880460B
:10405000062D00D33D46C146266806E03146484657
:1040600003F098FF09F10409361D206800EB850074
:10407000B042F3D105E008EB850051466D1C03F01A
:1040800089FFBD42F7D306492068FCF7F6F8C4E97A
:104090000087684603F051FF2046BDE8FC8700001A
:1040A0003B7F00089115000810B50446806900F0B8
:1040B00089FD04F1080003F0C5FC083803F0D0FCCA
:1040C00010BD2DE9F04104460D461646104600216C
:1040D0002260002000BF606048B1FCF7C7F8401CB8
:1040E00000F078FD07466168FCF721F96760294612
:1040F0003046002000BF2046BDE8F08110B5416881
:10410000044629B12068002000BF606800F05AFD15
:10411000204610BD0C0008D00A460DA1104800F042
:1041200071FD204600F04EFD09E050B101280AD093
:1041300002280AD00BA206A1094800F063FDAFF3E4
:1041400000800AA2F7E70CA2F5E711A2F3E700004E
:10415000457863657074696F6E3A2025732E0A0086
:10416000E8000020756E6B6E6F776E206578636572
:104170007074696F6E000000756E657870656374A9
:10418000656420657863657074696F6E0000000077
:104190006261645F616C6C6F633A206F7574206F4D
:1041A00066206D656D6F72790000000010B50A49D8
:1041B00004460020D1E9003200E0401C824204D9CC
:1041C00053F8201009B1A142F7D153F8201000296B
:1041D00000D1104610BD0000EC0000204422027007
:1041E00000BF0022427080228270A022C270C022D2
:1041F0000271E0224271402282716022C2717022FB
:1042000002727047406870472DE9FC410D46174621
:1042100001684FF0FF3406226846FFF752FF21463F
:104220002868FFF7CDFB0646401C12D000F0ACFC1E
:104230000546D5E9004104EBC100A0420FD1284654
:10424000491C03F017FCD5E9000100EBC104083C50
:104250000AE06846FFF752FF2046BDE8FC8122686D
:10426000521C01D00834E8E73946201D266000F0D2
:104270005DFC2868201AC410EBE710B50C4600F06E
:1042800083FC4168A14204DD006800EBC400001D0E
:1042900010BDBDE8104000F0F1BBF8B51C46154656
:1042A0000E4600F071FC4168B1420EDD006850F826
:1042B0003600411C09D0002100916B462246294658
:1042C000FFF76EFB6946884200D10020F8BD4069C7
:1042D00030F81200084000D0012070472DE9F84F57
:1042E0000646006889461D464169DDF828B09246B9
:1042F000294201D0002406E000693749284201D054
:10430000CC6800E08C684FF0000884B1D9F80070E8
:10431000E068B84207D86A46791C04F10800CDF875
:10432000008003F064FBA06850F82770F7BBBAF177
:10433000000F02D10420FFF7FFFD84B1D9F800700F
:10434000E068B84207D86A46791C04F10800CDF845
:10435000008003F04CFBA06850F8277037BB326830
:1043600000231EA1506928420ED0022310210020F4
:104370000D4203D0116851F8201009E04900401C9B
:104380000628F5D3164903E01069284200D001231E
:10439000184600225B46984707463CB13068A04269
:1043A00012D02146684600F08BFB00E00CE04A4644
:1043B0003946684600F016F8CDF80080E069401EE6
:1043C000E061684600F0A2FB4A463946304600F0FC
:1043D00009F83846BDE8F88FC4000020000000004E
:1043E000148E0008F8B50646087A15460C46C00734
:1043F0000FD1286820B917490868401C0860286058
:1044000020683146826820469047A06840F001004D
:10441000A06030682D68C068A84207D800200090CE
:1044200030686A46691C083003F0E1FA3068806839
:1044300050F8250030B1C168491EC16002D1016841
:1044400049688847E068401CE0603068806840F850
:104450002540F8BD0C0100207CB5054608680C46D7
:10446000806948B16846AFF30080024620688169E0
:10447000284603F0E5FC7CBD01A8AFF300800246AE
:1044800000A1F5E72A00000010B50446FBF7AAFEDC
:10449000204610BD10B504462046FBF7E7FE10BDD0
:1044A0007CB504462DA1FCF7C9F9E8B32CA1204640
:1044B000FCF7C4F9C0B34FF4007000F08BFB054665
:1044C000022221466846FFF7FCFD0024FCF788F92C
:1044D00006464FF4807330680021005D10F0010F34
:1044E00000D0012110F03E0F01D041F0020110F088
:1044F000400F01D041F0040110F0100F01D041F045
:10450000080110F0080F01D041F0100110F0980FD1
:1045100001D041F0200120281DD000220AB141F035
:10452000400110F0020F00E013E001D041F08001E3
:1045300080EA800010F0800F01D041F4807125F8EE
:104540001410641C9C42C6D16846FFF7D7FD28466C
:104550007CBD05487CBD0122E0E70000430000006F
:10456000504F534958000000C88A00082DE9FC410B
:10457000064615460C460846FFF792FF01462B46B5
:104580000022304600F086F93E4901600646406947
:104590003D49884273D00120307602222146684688
:1045A000FFF78FFD0024FF25E2B210213046FFF710
:1045B0008EFE38B909E0EAB210213046FFF787FED7
:1045C00030B96D1EA542F6D802E0641CAC42EBD3B4
:1045D000C6E90745F76A18E0A4F16100192810D868
:1045E000E2B210213046FFF772FE50B1A4F120086C
:1045F00008F0FF0208213046FFF769FE08B1404687
:1046000000E0204607F8010B641CAC42E4D900240A
:10461000FF25E2B208213046FFF759FE38B909E01C
:10462000EAB208213046FFF752FE30B96D1EA542AE
:10463000F6D802E0641CAC42EBD3C6E90945376BFF
:1046400018E0A4F14100192810D8E2B20821304640
:10465000FFF73DFE50B104F1200808F0FF021021E1
:104660003046FFF734FE08B1404600E0204607F828
:10467000010B641CAC42E4D96846FFF73FFD3046AD
:10468000BDE8FC816C8D0008C88A000810B500F0F8
:1046900004F8BDE8104000F099BA10B500F08EF9AA
:1046A00010BD0000F7B51746002413460D46064618
:1046B0000A4621462046FFF7C1F904000DD1002D1E
:1046C00001DB172D00D30025164800213B4650F88A
:1046D00025200846FFF785F904467068B8B1FBF756
:1046E000C5FD05462046FBF7C1FD2844401C00F0EF
:1046F00071FA7168FBF71BFE2146FBF70CFE0546BD
:10470000706800F05FFA204600F05CFA2C46746096
:104710003046FEBDAFF30080204600F053FAAFF301
:104720000080F5E76C8A000810B500F027FA02490E
:1047300001600021416010BDA08D000810B5044645
:1047400004482060606800F03DFA2046AFF3008026
:1047500010BD0000A08D000810B503F0EEFB10BDE9
:1047600010B504464FF0FF30206000F087F9014695
:10477000201D00F0B5F9001F10BD10B5001D00F0A0
:10478000C5F9001F10BD10B5044601C92060201DE9
:1047900000F0CCF9204610BD2DE9FE43064602A8E4
:1047A000FFF75AFE022268460299FFF78AFC02A828
:1047B00003F0C3FB0024FF25E2B210213046FFF7CF
:1047C00086FD38B909E0EAB210213046FFF77FFDD7
:1047D00030B96D1EA542F6D802E0641CAC42EBD3A2
:1047E000C6E90745F76A18E0A4F16100192810D856
:1047F000E2B210213046FFF76AFD50B1A4F1200863
:1048000008F0FF0208213046FFF761FD08B140467D
:1048100000E0204607F8010B641CAC42E4D90024F8
:10482000FF25E2B208213046FFF751FD38B909E013
:10483000EAB208213046FFF74AFD30B96D1EA542A5
:10484000F6D802E0641CAC42EBD3C6E90945376BED
:1048500018E0A4F14100192810D8E2B2082130462E
:10486000FFF735FD50B104F1200808F0FF021021D8
:104870003046FFF72CFD08B1404600E0204607F81F
:10488000010B641CAC42E4D96846FFF737FCBDE875
:10489000FE8300002DE9F0410646202070600020D4
:1048A000C6E902033F4B33607161327611B93E496C
:1048B000716130760024FF25E2B210213046FFF707
:1048C00006FD38B909E0EAB210213046FFF7FFFCD7
:1048D00030B96D1EA542F6D802E0641CAC42EBD3A1
:1048E000281BC6E90745401C00F074F90746F06232
:1048F00018E0A4F16100192810D8E2B21021304666
:10490000FFF7E5FC50B1A4F1200808F0FF020821F0
:104910003046FFF7DCFC08B1404600E0204607F8CF
:10492000010B641CAC42E4D90024FF25E2B208214B
:104930003046FFF7CCFC38B909E0EAB2082130462E
:10494000FFF7C5FC30B96D1EA542F6D802E0641C25
:10495000AC42EBD3281BC6E90945401C00F03AF9EC
:104960000746306318E0A4F14100192810D8E2B2DC
:1049700008213046FFF7ABFC50B104F1200808F0E5
:10498000FF0210213046FFF7A2FC08B1404600E0CC
:10499000204607F8010B641CAC42E4D93046BDE860
:1049A000F0810000B48D0008C88A000810B500F03E
:1049B00005F8BDE8104000F009B9000010B5044644
:1049C00008482060207E10B1606900F0FBF8E06AC2
:1049D00000F0F8F8206B00F0F5F82046AFF3008007
:1049E00010BD0000B48D000810B5AFF30080BDE825
:1049F000104000F0EBB8000070B51D4E3069002883
:104A000027D1202000F0EAF8044602230A2219A147
:104A1000FFF7D4FA00241025B06008E0B1680868F8
:104A2000896900EB840003F08FFA6D00641C15F4B3
:104A30007C7FF3D1202000F0D1F8044601230A2224
:104A40000DA1FFF7BBFA4FF47C71F0600161B06813
:104A5000306170BDAFF30080B06818B1FFF724FB80
:104A600000F0B4F800203061B060AFF3008070BD9A
:104A7000C4000020430000000000000010B50D4CF1
:104A8000206908B9FFF7B8FF2078C0070FD109489F
:104A900000F064F958B10748A168001D00F010F853
:104AA000054A0649FCF788FA0248AFF3008001483E
:104AB000001D10BDC4000020000000080D4B0008C0
:104AC00010B5044601600548006908B9FFF794FF76
:104AD0002168C869401CC861204610BDC400002080
:104AE00009680160CA69521CCA61704770B5064CFA
:104AF0000546206808B9FFF77FFF21682960C8696B
:104B0000401CC861284670BDD400002010B5044682
:104B1000006848B1C169491EC16105D1206818B15A
:104B2000FFF7C2FA00F052F8204610BD70B50D46EE
:104B300004460168286881420FD0C169491CC161DF
:104B40002068C169491EC16105D1206818B1FFF70D
:104B5000ABFA00F03BF828682060204670BD10B525
:104B600000F004F8BDE8104000F030B810B5103087
:104B7000FFF7F2FD1038AFF3008010BD014901606E
:104B800070470000088E00080A4810B50078C0077A
:104B90000ED1084800F0E2F850B107480021074A5A
:104BA000016041600649FCF707FA0248AFF3008054
:104BB000014810BD10010020140100200000000871
:104BC000FD7A000810B500F001F810BD10B500F036
:104BD00097FD10BD10B500F001F810BD10B5040030
:104BE00007D1012405E0FCF7DDF9006800B90448AD
:104BF0008047204600F09AFE0028F4D010BD000047
:104C0000090700080FB4024610B504A9034B039826
:104C100000F0C6F910BC5DF814FB0000E556000872
:104C20000FB4054B10B503A9044A029800F0B8F977
:104C300010BC5DF814FB0000E5560008E4000020FD
:104C40007CB5044600201D46164600290BD0491E9F
:104C5000CDE90041044B6A462946304600F0A0F9F0
:104C6000009A002111707CBDCF5600082DE9FF4D40
:104C700082B08B46824601200F9990460AFB0BF6C4
:104C8000009006B901261446301911B1884720B1A9
:104C900001E0FFF79FFF044400E0002484B1B8F175
:104CA000000F01D044E902BA059848B10025274613
:104CB00004E00599384688475F446D1C5545F8DB8C
:104CC00006B02046BDE8F08DAFF300800E9828B105
:104CD00003465A4629463846FCF73BFC009860B12B
:104CE000109AA4EB080006EB0801904705E0AFF32B
:104CF0000080FBF70BFDAFF30080FCF7D1F900005B
:104D000002480068C0F30220704700000CED00E08C
:104D100010B5002804DB0A07130E054A135406E0F9
:104D20000A07140E034A00F00F031B1FD45410BDD2
:104D300000E400E018ED00E0002804D0A0F1080233
:104D40000CCAFCF7AEB9704738B50C460093134651
:104D500001460822204600F009F838BD016809B173
:104D6000002070470121016008467047FEB5044EDF
:104D7000089C00258DE87000FFF778FFFEBD00005D
:104D8000C54B0008EFF311807047EFF305807047C3
:104D9000EFF31080704702E008C8121F08C1002A14
:104DA000FAD170477047002001E001C1121F002AAC
:104DB000FBD17047024800210160001D016070476F
:104DC000D800002070B50A4D022400260820FFF705
:104DD00001FFC5E900042868641E40F82460FAD188
:104DE0002846BDE87040034A0349FCF7E5B80000D7
:104DF000EC00002000000008537A0008024800215F
:104E00000160001D01607047BC0000202DE9FF5FBC
:104E100082B00021DDE90430020DDDF840B003432B
:104E200018D044F61050A2F2FF32424315141198E4
:104E300001281FD0A5EB0B00401C5FEA000A4FF0D1
:104E400000064E4FDFF83891B046504615D5CAF1EE
:104E5000000413E0119801244AA3012801D16FEA4C
:104E60000B010298119AC0E90031C0E9024206B074
:104E7000BDE8F09FCBF10000DFE704460021404A87
:104E8000491842EB0450CDE9001012E0E00707D0CA
:104E900032463B4640464946FBF725FB804689465D
:104EA00032463B4610461946FBF71DFB06460F46A9
:104EB0006410002CEAD1DDE90401DDE90023BAF138
:104EC000000F06DAFBF70FFB42464B46FBF70BFBE6
:104ED00005E0FBF77AFB42464B46FBF776FB0446C0
:104EE0000E460022284BFBF7F7FB03D84FF0FF30AC
:104EF000014607E00022254B20463146FBF74CFADD
:104F0000FBF7D2FB102409E0002C0ADB0A22002365
:104F1000FBF7D0F9039B30321A55641E50EA0102A8
:104F2000F2D1641C039AC4F111031444119A012AAA
:104F300003D0012208430DD10AE0084304D0002029
:104F40004FF0110B119072E7A3EB0B056D1E0DE0F6
:104F50005B4504DD4FF0000205F1010504E003DAD2
:104F60004FF00002A5F10105002AECD0029811993A
:104F7000C0E90231C0E9004579E7000000001440B3
:104F80000000F03F300000000000F0430000E03F70
:104F900030380A2801D201207047002070470000F5
:104FA0002DE9FF4F95B09B468946064600250FE246
:104FB000252877D100242746F84A0121059400E0EE
:104FC000044316F8013F203B01FA03F01042F7D1E9
:104FD00030782A2811D06FF02F033078A0F13002FA
:104FE000092A16D8059A44F0020402EB820203EB68
:104FF00042021044761C0590EFE759F8042B059205
:10500000002A03DA504244F40054059044F00204AC
:10501000761C30782E2816D116F8010F44F00404BF
:105020002A280DD06FF02F023078A0F13003092B21
:1050300009D807EB870302EB4303C718761CF3E795
:1050400059F8047B761C30786C280FD006DC4C288D
:1050500017D068280DD06A2814D104E0742810D025
:105060007A280FD10DE044F400140AE044F48014CF
:1050700001E044F440147278824202D104F58014B5
:10508000761C761C307866280BD013DC582877D035
:1050900009DC002875D04528F6D04628F4D04728EA
:1050A0001AD19DE118E0632835D0642879D06528AD
:1050B00012D195E1702873D008DC6728F1D06928F7
:1050C0006FD06E280DD06F2806D1B5E073282CD094
:1050D000752875D0782874D05A46179990476D1C5A
:1050E00075E1C4F30250022809D003280DD0D9F885
:1050F000001004280DD00D6009F1040967E1D9F80A
:105100000010EA17C1E90052F6E7D9F800100D8047
:10511000F2E70D70F0E719F8041B8DF8001000207D
:105120008DF80100EA46012003E059F804AB4FF086
:10513000FF3061074FF0000102D40DE008F10101DA
:105140008846B9420FDA8045F8DB1AF808100029C2
:10515000F4D108E008F1010188468142FADB1AF82F
:1051600008100029F6D105985B46A0EB08072146F8
:105170003846179A00F094FA284400EB080507E037
:105180004DE029E10DE01AF8010B5A4617999047B6
:10519000B8F10108F7D25B4621463846179A13E169
:1051A00042E00A220092C4F302524FF0000A022A9F
:1051B00008D059F804CB032A4FEAEC710AD00DE06D
:1051C00029E02AE009F1070121F00702F2E802C113
:1051D000914609E00FFA8CFC4FEAEC71042A03D1E6
:1051E0004FFA8CFC4FEAEC71002907DA0A460021DD
:1051F000DCF1000C61EB02012D2202E0220504D556
:105200002B228DF80420012203E0E20701D02022A6
:10521000F7E7904659E00A2102E010220DE0102144
:105220004FF0000A00910BE010224FF0000A44F00A
:1052300004040827009203E008224FF0000A0092BD
:10524000C4F30252022A05D059F804CB0021032AE4
:1052500008D009E009F1070121F00702F2E802C1D4
:10526000914605E01FFA8CFC042A01D10CF0FF0CDA
:105270004FF00008220728D5702806D0009B83F045
:10528000100353EA0A0305D00EE040228DF80420F3
:10529000012208E05CEA010206D030228DF80420E9
:1052A0008DF8050002229046009B83F0080353EA24
:1052B0000A030AD15CEA010201D1620705D5302256
:1052C0008DF804204FF001087F1E582804D034A028
:1052D00003900EA802900DE036A0F9E75346604611
:1052E000009AFAF7E7FF84460398825C0298401E12
:1052F000029002705CEA0100F0D1029806A9081A37
:1053000000F1200A600702D524F4803400E0012770
:10531000574502DDA7EB0A0000E0002000EB0A0180
:10532000009005984144401A0590E00306D45B467E
:105330002146179A059800F0B3F90544002706E0C6
:1053400001A85A46C05D179990476D1C7F1C4745C0
:10535000F6DBE0030CD55B462146179A059800F072
:105360009FF9054404E030205A46179990476D1C78
:105370000099481E00900029F5DC08E00298029987
:105380005A460078491C0291179990476D1CBAF152
:105390000001AAF1010AF1DC65E100000928010021
:1053A000303132333435363738396162636465669B
:1053B000000000003031323334353637383941425D
:1053C000434445460000000000F058F90544761CAF
:1053D000307800287FF4ECAD19B02846BDE8F08F96
:1053E000620700D4062709F1070222F0070CFCE847
:1053F0000223E14603F000485FEA080C02D00FF2F6
:10540000702C0DE05FEA045C02D50FF2682C07E017
:105410005FEAC47C02D00FF2602C01E0AFF2700CA6
:105420004FF0FF3823F00043CDF850C065280CD072
:1054300006DC452809D046281DD047283DD13DE04F
:10544000662818D067287ED138E00021112F01DBB3
:10545000112000E0781CCDE9000106A90EA8FFF795
:10546000D5FCDDE90F010E9A03910021009207F1AE
:10547000010A04914DE04FF000400097CDE9011082
:1054800006A90EA8FFF7C2FCDDE90F0203920E9BEE
:1054900011990022DDF80CA00093049211B9791C37
:1054A00000EB010AB7EB0A0004D4C0F1FF3007F1AA
:1054B000010A0490AAEB0700019044E0012F00DAF2
:1054C00001270021112F01DD112000E03846CDE930
:1054D000000106A90EA8FFF799FCDDE90F010E9A5D
:1054E0000391002104910092BA4621070CD403993C
:1054F000514500DA8A46BAF1010F05DD009AAAF19A
:105500000101515C302908D0B84202DA10F1040FD1
:1055100006DA0121CDE9011015E0AAF10101E9E760
:10552000002805DC049901440491AAEB000102E083
:10553000411C514500DD8A460499401A401C0190E7
:105540004FF000400290200704D40198504501DB41
:10555000CDF8048000208DF84F0002980DF14F0720
:10556000B0F1004F25D02B200E9002984FF002088A
:1055700000280CDA404202902D200E9007E00A210C
:105580000298FAF781FE3031029007F8011DB8F158
:105590000001A8F10108F2DC02980028EFD1791E81
:1055A0000E980870307800F0200040F0450007F8B1
:1055B000020D12A8C01B00F107081498007800B172
:1055C000012000EB0A01019801EBE07105984144CC
:1055D000401A401E0590E00306D45B462146179A08
:1055E000059800F05DF805441498007818B15A4603
:1055F000179990476D1CE00324D55B462146179A06
:10560000059800F04DF805441CE00498002807DBDD
:10561000DDE90301884203DD0098405C179901E051
:10562000179930205A469047049805F10105401C0F
:1056300004900198401E019004D12E205A461799DB
:1056400090476D1CBAF10001AAF1010ADDDC05E00A
:1056500017F8010B5A46179990476D1CB8F10001D5
:10566000A8F10108F4DC5B462146179A0598ABE6E1
:105670002D0000002B000000200000002DE9F0416B
:10568000044600251E461746880404D405E0394622
:105690002020B0476D1C641EF9D52846BDE8F08176
:1056A0002DE9F041044600251E469046C80301D569
:1056B000302700E02027880404D505E0414638461D
:1056C000B0476D1C641EF9D52846BDE8F0814A68D4
:1056D000002A06D00A68531C0B6010704868401EF0
:1056E0004860704713B50C464FF6FF7301226946B8
:1056F0000248FDF747FC00981CBD00001C0100207B
:1057000010B5002821D0114B0022001F196803E0BA
:10571000814203D80A4649680029F9D152B1136879
:10572000841A9C4204D1006818441060104602E0BC
:10573000506000E0186039B102680B1A934203D13F
:105740000B681A4402604968416010BD00010020E6
:10575000ADF5916D0DF27C440DF2844500BF00BFA4
:1057600000BF00BF00BF02F045FA206000BFFCF799
:105770000BFEFEF7D1F8FEF75BF8FEF73FF8FEF7F9
:10578000F3F8FEF791F83E490DF26C40FEF726FD66
:105790006846FEF7BEFB3BA1204602F0D5FB3DA2CA
:1057A0002146081D02F01BFCDDF88004044621465A
:1057B00039A0FFF735FA05460DF5906002F0BDFB04
:1057C0006846FEF721FA064616B934A0FFF728FA14
:1057D00035A10DF27C4002F0B7FB00BFDDF87C0480
:1057E00004460123324A21466846FEF7F0FA68462D
:1057F000FEF7CAF901232E4A2EA16846FEF7E7FA02
:105800006846FEF7C1F99DF804106846FEF7E5F911
:1058100000F0DEF829A02C490860182088614FF4B8
:105820008060486129A02C49086010208861C0016F
:1058300048612AA02C490860182088614FF48060D4
:1058400048612AA02C4908602020886140014861F5
:105850002AA02D4908600A460221082000F0FAF823
:105860002A490860184A0021294800F04FF92949BF
:10587000086029A0FFF7D4F900F0CAF800BFFEE7DE
:105880005C01002048656C6C6F2073746D33326668
:10589000313033000D0A0000257300004C434420D2
:1058A0004572726F7221000048656C6C6F210000B8
:1058B000140000206466736766647300496E69743F
:1058C0005461736B00000000F401002044697370A0
:1058D0006C61795461736B0018020020566F6C750F
:1058E0006D655461736B00003C020020436F6E7461
:1058F000726F6C5461736B0060020020566F6C75A0
:105900006D655175657565008402002010000020EA
:10591000E1380008000000206F734B65726E656C03
:1059200053746172742E2E200D0A0000F0B50B30F6
:10593000154D20F007010024144A0FE003688B4244
:105940000BD38B4205D95E1A43184768C3E9006739
:1059500000E04368136002C004E0021D10680028E4
:10596000ECD12046002802D1286808B10020F0BD03
:10597000064A07481060074A121A22F00702C0E9D7
:10598000002401202860D7E7040100200001002046
:10599000DC3F0020D841002070B50546FFF7F5F93F
:1059A00048B9FFF7F5F930B908480068022805D171
:1059B000FFF7E8F910B16FF0050404E0002415B119
:1059C000284601F027F8204670BD00007C0000202A
:1059D00010B5FFF7DAF948B9FFF7DAF930B90B4833
:1059E0000068022805D1FFF7CDF910B16FF005046A
:1059F00009E00648006820B9012004490860002435
:105A000001E04FF0FF34204610BD00007C00002074
:105A100010B5FFF7BAF948B9FFF7BAF930B90C4831
:105A20000068022805D1FFF7ADF910B16FF0050449
:105A30000CE007480068012806D1022004490860EC
:105A400001F064F8002401E04FF0FF34204610BD5F
:105A50007C0000202DE9F84305460E4614464FF021
:105A60000009FFF792F900284BD1FFF791F90028C0
:105A700047D125480068022803D1FFF783F90028A1
:105A80003FD1002D3DD0002E3BD04FF0FF37BCB1B1
:105A9000A06858B1E068502808D3206930B105FBF0
:105AA00006F06169814201D301270AE0A06840B98C
:105AB000E06830B9206920B9606910B9002700E0BA
:105AC0000027012F09D10020009031462846A36805
:105AD000226901F072F9814606E02FB900223146B1
