:020000040800F2
:10000000680B002009010008912800080725000856
:100010008F280008EB140008012A000800000000E7
:10002000000000000000000000000000952800080B
:100030001715000800000000932800089728000802
:100040002301000823010008230100082301000800
:1000500023010008230100082301000823010008F0
:1000600023010008230100082301000823010008E0
:1000700023010008230100082301000823010008D0
:1000800023010008230100082301000823010008C0
:1000900023010008230100082301000823010008B0
:1000A00023010008230100082301000823010008A0
:1000B0002301000823010008230100082301000890
:1000C0002301000823010008230100082301000880
:1000D0002301000823010008230100082301000870
:1000E000230100082301000823010008DFF814D0D1
:1000F00000F0F6FA00F064F800480047DD4600081A
:1001000001F05AF9680B002006488047064800476E
:10011000FEE7FEE7FEE7FEE7FEE7FEE7FEE7FEE7B7
:10012000FEE7FEE79D280008ED000008202A04DB1A
:10013000203A21FA02F00021704721FA02F3D04060
:10014000C2F12002914008431946704710B5431A86
:10015000934209D28318881803E010F8011D03F8B0
:10016000011D521EF9D210BD40EA01039B0703D0C6
:1001700009E008C9121F08C0042AFAD203E011F8E6
:10018000013B00F8013B521EF9D210BDD2B201E092
:1001900000F8012B491EFBD270470022F6E710B58C
:1001A00013460A4604461946FFF7F0FF204610BDE5
:1001B000421C10F8011B0029FBD1801A7047000077
:1001C00070B5054C054D03E0206820448047241D90
:1001D000AC42F9D170BD0000105F0008205F00083C
:1001E00010B503F072FDBDE8104003F0C1BC30B59E
:1001F0000B46014600202022012409E021FA02F5E5
:100200009D4205D303FA02F5491B04FA02F528447E
:10021000151EA2F10102F1DC30BD2DE9F05F0546AB
:10022000002092469B4688460646814640241BE0B5
:100230002846414647462246FFF778FF53465A462E
:10024000C01A914110D311461846224600F05AFABE
:100250002D1A67EB01084F4622460120002100F0CD
:1002600051FA17EB00094E41201EA4F10104DFDC16
:10027000484631462A464346BDE8F09F421E12F8E2
:10028000013F002BFBD111F8013B02F8013B002B91
:10029000F9D17047034611F8012B00F8012B002A11
:1002A000F9D1184670470246C9B200E0401C0378F5
:1002B000002BFBD102E003788B4203D0401E90421A
:1002C000F9D20020704700000FB400B58DB010A91E
:1002D00009900B9000914FF0FF300A9000200C9095
:1002E00005480690054807906A4609A80F9900F04E
:1002F000DFFD0DB05DF814FBCD0E0008EB0E00081D
:100300002DE9FE4F804681EA0300C00F0C460090A5
:1003100021F0004123F00045B8EB0200A94105D2CD
:100320004046214690461C460B46024623F00040BC
:10033000104347D0270DC7F30A00C3F30A510290B8
:10034000401A019040286BDAC3F3130040F4801B7D
:100350000098924620B10023D2EB030A63EB0B0B0B
:1003600001985946C0F14002504600F0CBF90646CC
:100370000D4650465946019A00F0D3F910EB08009B
:100380006141002487EA115284EAE7731A4340D09E
:10039000009A62B3019A012A4FEA075215DC001B4A
:1003A00061EB02014FF0004202EA0752CDE9004240
:1003B000001C41F5801132462B4600F0D7FD03B0FA
:1003C000BDE8F08F40462146F9E7001B61EB0201D2
:1003D000001C41F5801300185B412018A2F500179E
:1003E00047EB030140EAD570B6196D4111E06D0885
:1003F0004FEA360645EAC0754FEA0752001B61EB2B
:100400000201001C41F5801149084FEA3000001933
:10041000514132462B4603B0BDE8F04F00F097BD86
:100420000098012240000023D0EB020263EBE0734E
:10043000009821464FEAE074B8EB000061EB04013C
:10044000E9E783F000435BE781F0004158E72DE9DD
:10045000FE4F81EA030404F0004421F000410094BF
:100460004FF0000B23F0004350EA01045ED052EA43
:1004700003045BD0C3F30A54C1F30A552C44A4F21D
:10048000F3340194A0FB0254C1F3130141F4801131
:10049000C3F3130343F4801301FB024400FB034E38
:1004A000840A970A44EA815447EA8357A4FB076801
:1004B00002958D0A05FB07854FEA932C04FB0C542B
:1004C0002705029D4FEA065847EA1637B5EB08059F
:1004D0006EEB070C870E920E47EA811742EA8312F1
:1004E000A7FB0201B6EB0B0164EB00042B0D43EA02
:1004F0000C335E1844EB1C50DA465146E7FB020110
:10050000C5F313044FEA0B3343EA14534FEA0432A2
:10051000019C43EA0603A4F10C040294009CCDE97B
:1005200000B400F023FD03B0BDE8F08F00200146C9
:10053000F9E72DE9F04D81EA030404F0004B21F0C6
:10054000004514464FF0000A23F0004150EA05022E
:1005500020D054EA01021DD0C5F30A570246C5F364
:100560001303C1F31300C1F30A5640F4801543F49A
:100570008013A7EB0608101BD64608F2FD3873EB74
:10058000050002D308F1010801E092185B41B8F1BF
:10059000000F03DA00200146BDE8F08D00204FF483
:1005A0008011064684460EE0171B73EB050705D342
:1005B000121B63EB050306434CEA010C49084FEAA2
:1005C000300092185B4150EA0107EDD152EA030076
:1005D00012D082EA040083EA0501084305D0101B0B
:1005E000AB4106D20122002306E000224FF0004377
:1005F00002E06FF0010253101AEB06004CEB0851B9
:1006000010EB0A0041EB0B01BDE8F04D00F09FBC80
:10061000C1F30A52C1F3130140F2FF3341F48011D8
:100620009A4202DA00200146704740F233439A4270
:10063000A2F2334202DC5242FFF778BD00F062B80A
:1006400030B5041E71F1000404DB4FF00044404259
:1006500064EB0101141E73F1000405DB1C464FF02E
:100660000043524263EB0403994208BF904230BDFD
:10067000AFF3008010B500F00EF8016919B1002247
:100680000261884701E080688047AFF30080000086
:1006900010B5AFF3008070B500F03AFC0468054671
:1006A000A4B9202004F0A6F8040011D009490020C4
:1006B0002C60C4E900010849A160207320616061D9
:1006C0000649A06109B100F0B1FCE061204670BDAF
:1006D000AFF3008000000000910600080000000059
:1006E000064C074D06E0E06840F0010394E807007F
:1006F00098471034AC42F6D3FFF7FCFCF05E0008DC
:10070000105F0008202A04DB203A00FA02F10020E2
:1007100070479140C2F1200320FA03F3194390403F
:100720007047202A06DBCB17203A41FA02F043EA51
:10073000E07306E041FA02F3D040C2F1200291409A
:10074000084319467047000000487047AC5B00083A
:1007500010B50446FFF7F8FF0068005D00F00100E7
:1007600010BD10B5441A0346944209D284181144AE
:1007700003E011F8013D04F8013D521EF9D210BD0D
:1007800040EA0104A40703D009E010C9121F10C3F6
:10079000042AFAD203E011F8014B03F8014B521E70
:1007A000F9D210BD10B5002200E0521C835C8C5CB5
:1007B000A34201D1002BF8D1D8B2E1B2401A10BD4A
:1007C0002DE9FF4F1C4681B00021D4E90167914615
:1007D0004FF0FF358A468846A1696D1C029888470C
:1007E000216A834688470028F6D1BBF1FF3F0CD031
:1007F00026F4C066002F1ADD700615D5BBF12B0F4D
:100800000AD0BBF12D0F0FD104E04FF0FF3005B03F
:10081000BDE8F08F46F48066A1696D1C0298884798
:100820007F1E8346002F02DDBBF1300F03D0B9F1EC
:10083000000F2AD025E0A1696D1C46F400767F1ECA
:10084000029888478346002F05DDBBF1780F06D05C
:10085000BBF1580F03D0B9F1000F10D011E0B9F17E
:10086000000F02D0B9F1100F0BD1A1696D1C26F455
:1008700000767F1E029888478346102000E00820FB
:1008800081464FEAE970009017E00A20F8E74346F6
:10089000AAFB092803FB0980DDF800C07F1E0AFBC4
:1008A0000C0112EB0B0A41EBEB78A16946F40076E0
:1008B00005F10105029888478346002F06DD494669
:1008C000584600F0D1FB5FEA000BE0D5E1690298E1
:1008D0008847B00502D46FF0010098E7F00718D1FF
:1008E000700610D57005514605D50023D1EB0301E4
:1008F00063EB080200E042462068031D23600068A5
:10090000C0E9001205E02068011D21600068C0E90F
:1009100000A828467BE72DE9FF5F1D464FF0FF3B0F
:10092000D5E9014691465F464FF00008A9697F1C52
:1009300001988847296A824688470028F6D1BAF18B
:10094000FF3F0CD024F4C064002E19DD600614D5DE
:10095000BAF12B0F09D0BAF12D0F0ED103E0584692
:1009600004B0BDE8F09F44F48064A9697F1C01983D
:100970008847761E8246002E02DDBAF1300F03D082
:10098000B9F1000F26D032E0A969761E44F4007454
:100990007F1C019888478246002E05DDBAF1780F4A
:1009A00006D0BAF1580F03D0B9F1000F10D01EE0F5
:1009B000B9F1000F02D0B9F1100F18D1A969761E54
:1009C00024F400747F1C019888478246102002E0BE
:1009D000082000E00A20814609E008FB0908A9690F
:1009E000761E44F400747F1C019888478246002ECE
:1009F00005DD4946504600F037FB0028EDDAE9698D
:100A000001988847A00502D46FF00100A8E7E0072D
:100A100025D1600613D5600502D5C8F1000000E0BD
:100A2000404629680A1D2A600968220501D5087018
:100A300015E0220701D5088011E008600FE0286862
:100A4000011D29600068210502D580F8008006E0BC
:100A5000210702D5A0F8008001E0C0F800803846E8
:100A60007EE72DE9FF5FD2E901A74FF00008916909
:100A700099461446DDF838B0464601988847054641
:100A800059EA0B0005D009E0A169761C0198884756
:100A90000546216A284688470028F5D1681C03D0FE
:100AA0005FEACA7005D015E04FF0FF3004B0BDE832
:100AB000F09F2068011D2160D0F800800AE05FEA05
:100AC000CA7001D108F8015BA169761C7F1E0198EC
:100AD00088470546002F1ADD681C18D0B9F1000FB1
:100AE0000DD0E81705EBD060421120F01F0059F837
:100AF00022102A1A012090400142E0D107E0BBF108
:100B0000000FDCD1216A284688470028D7D0E16948
:100B100001988847BBF1000F07D1002E05DD5FEA81
:100B2000CA7002D1002188F80010A068B84203DD25
:100B3000BBF1000F03D017B16FF00100B6E73046EC
:100B4000B4E700002DE9FF4F087883B09946FF28ED
:100B500005D0491C2D2804D00024002008E00020E6
:100B60000BE00124F9E700EB800003EB4000491C97
:100B70000B78FF2BF7D104B1404200230293147885
:100B800019461D462D2C01D02B2C04D1521C2D2C86
:100B900013D000240294AA461478FF2C0FD00A2503
:100BA000A3FB057801FB05814FF0000C03FB0C1142
:100BB000521CE3194AEB0101EEE70124EAE7814404
:100BC00053EA010002D019F5C87F06DA0398002124
:100BD000C0E9001107B0BDE8F08F0025AE4E2F46EA
:100BE000DFF8B882184600F008FCCDE90001B9F141
:100BF000000002DAC9F1000400E004460023A74A1D
:100C00001AEB030B42EB045A12E0E00707D02A4626
:100C1000334638464146FFF71AFC074688462A46BF
:100C2000334610461946FFF712FC05460E4664107F
:100C3000002CEAD1DDE90001B9F1000F5A46534614
:100C400006DAFFF776FC3A464346FFF772FC05E00A
:100C5000FFF7FDFB3A464346FFF7F9FB029A0AB15C
:100C600081F00041039AC2E90001B3E72DE9FF4F8B
:100C70001F468DB0D7E901464FF0FF382E2045467C
:100C80004FF000090B90B9696D1C0E988847396ABE
:100C9000824688470028F6D1BAF1FF3F0AD024F4F3
:100CA000D064002E11DDBAF12B0F08D0BAF12D0F50
:100CB0000BD102E0404611B08DE744F48064B9697D
:100CC0006D1C0E9888478246761E6946600501D5E0
:100CD0002D2000E02B208DF8000001F1010B0DF11B
:100CE000200809E0B9696D1C0E98884782460F9864
:100CF00044F40074761E0560002E02DDBAF1300F58
:100D0000F0D00B998A453ED144F0800406E00F995B
:100D1000681CA9F1010944F400740860B9696D1CEC
:100D2000761E0E98884782463028F0D02BE00B992B
:100D30008A4505D1200603D444F08004761E18E0CD
:100D4000504603F0EDF808B30DF11301761E44F49C
:100D500000748B4508D2AAF130000BF8010B200675
:100D600007D5A9F1010003E0200602D409F1010032
:100D70008146A00502D50F99681C0860B9696D1CF1
:100D80000E9888478246002ED1DC53E0002E51DDBC
:100D9000BAF1650F02D0BAF1450F4BD1A00549D584
:100DA000B9696D1C24F44074761E0E9888478246FB
:100DB000002E0CDD2B2804D0BAF12D0F07D144F4FE
:100DC0008074B9696D1C0E9888478246761EE005CE
:100DD00001D52D2100E02B2108F8011BCDF82C8036
:100DE00021E00DF12901761E44F4007488450CD2EF
:100DF000AAF1300010F0FF0088F8000002D10B9932
:100E0000884509D908F1010806E0E00501D5244824
:100E100001E042F20F708146B9696D1C0E98884757
:100E200082460F980560002E04DD504603F078F8E6
:100E30000028D6D1F9690E988847FF208BF800006A
:100E400088F800000020069007904B466A4608A9E3
:100E500006A8FFF777FEA00502D46FF001002AE78D
:100E600014F0240F0AD0E00714D1DDE90612386827
:100E7000031D3B600068C0E900120BE0DDE90601DC
:100E800000F0C7FA0146E00704D13868021D3A6055
:100E90000068016028460EE7000014400000F03FA3
:100EA000F1D8FFFF026811441378016018467047BB
:100EB000D160044951610449116200211161114658
:100EC00000F0E0B8A50E000851070008426842B1E2
:100ED000016811F8013B23B1521EC0E90012184607
:100EE00070470121C160881E704742685AB1C368CB
:100EF000016843B983688B4205D0491E521CC0E982
:100F00000012002070474FF0FF30704703487047D1
:100F10000248001D011F8860001D70476800002006
:100F20002DE9F041074615460E46102003F062FCFD
:100F300004000AD06760C4E9026500F039FA01686C
:100F4000216004600020BDE8F0810120FBE710B5BE
:100F5000141E73F1000408DA401C41F100019218DC
:100F60005B411A4301D120F0010010BD2DE9F04D85
:100F700092469B4611B1B1FA81F202E0B0FA80F2DA
:100F800020329046FFF7BEFB04460F4640EA0A00B7
:100F900041EA0B0153465A46084313D0114653EA1F
:100FA000010019D0C8F140025046FFF7BFF80546CE
:100FB0000E46504659464246FFF7A4FB084305D06B
:100FC000012004E020463946BDE8F08D00200543AD
:100FD00046EAE0762C4337430A986305E40AA0EB1F
:100FE00008000022FD0A44EA47540A3002D50020D6
:100FF0000146E9E7010510196941DDE908450019D5
:101000006941BDE8F04DA2E700DE2DE9F041174649
:101010000E46054633B107FB0354E41B2046B04798
:10102000A542FAD1A5F10800BDE8F08110B58820ED
:1010300003F0E0FB002801D00021017010BD8029E1
:1010400002D808B1017809B100207047012100F8E9
:10105000081B704718B100F10802914201D000202E
:1010600070470021017070473A2800D2303820F0D4
:101070002002412A01D3A2F13700884201D34FF068
:10108000FF3070472DE9F34F8BB04FF0000801F1AE
:101090000C000C464FF0010B46460DF1080A01907A
:1010A0006269012101989047051E2DD0252D2CD075
:1010B000216A8847C0B16269012101989047216A7D
:1010C00088470028F7D1411E62690198904700E0E7
:1010D000761CA1690B988847216A88470028F7D1B8
:1010E000E1690B988847DBE7A1690B9888470746B9
:1010F000A84201D1761CD3E7E1690B9888477F1C91
:1011000002D1B8F1000F6FD046E1002762693D4679
:101110003946019890472A2804D162690121019833
:1011200090470125DFF88492626901210198904778
:10113000A0F130010A290AD24F45E5DC07EB87010F
:1011400000EB4107303FDFD445F01005ECE7E9063E
:1011500001D46FF000476C280AD04C2814D06828BE
:1011600015D06A280DD074281CD07A281AD01DE01A
:1011700062690121019890476C2802D045F004056E
:1011800014E045F002050DE045F020050AE0626933
:10119000012101989047682802D045F0080505E034
:1011A00045F400656269012101989047C4E901573F
:1011B00065283DD019DC58287AD00CDC452837D07A
:1011C00004DC252826D0412831D131E046282FD013
:1011D00047282CD12CE05B2877D0612828D06328C1
:1011E0007CD0642823D15AE0D0E06F2848D008DCB6
:1011F00066281DD067281BD0692821D06E2816D1FB
:1012000027E0702845D0732868D0752847D0782803
:101210000DD14DE0A1690B988847054625283FF47C
:1012200069AFE1690B9888476D1C3FF46AAFB3E082
:1012300023466A466FF001000B99FFF717FD9EE009
:1012400045F040006060A80723464FF0000236D406
:101250003EE0E8077FF447AF2068011D2160006889
:10126000290501D506701BE7290701D5068017E778
:10127000A90703D5F117C0E9006111E706600FE780
:1012800045F040006060A80723464FF0080216D4DE
:101290001EE040F60E0125EA0100606016E045F010
:1012A00040006060A80723464FF00A0207D40FE011
:1012B00045F040006060A80708D5234610226FF073
:1012C00001000B99FFF77CFA59E007E02346102252
:1012D0006FF001000B99FFF71EFB50E04FF0000983
:1012E0004F464B46632802D05B2806D040E0E80614
:1012F00001D40120A06001273AE062690121019830
:1013000090475E2805D14FF001096269494601986E
:101310009047216939B900210A46534643F82120F4
:10132000491C0829FADBB0B3216969B9C11700EB80
:10133000D16253110AEB830122F01F02821A0120AD
:101340000B68904003430B6062690121019890474C
:101350005D28E8D1B9F1000F09D00020514651F8BD
:101360002020D24341F82020401C0828F7DB02ABA4
:10137000224600976FF001000B99FFF772FB0028DF
:101380000CDA401C08D1BBF1000F05D04FF0FF3044
:101390000DB0BDE8F08FFFE74046F9E7E90701D15E
:1013A00008F1010806444FF0000B79E6CCCCCC0CD8
:1013B000004870477C0000202DE9F0410646FFF709
:1013C000F7FF8046454613E016B1E068B0420ED103
:1013D00020682860D4E90101D8F8007088472046C9
:1013E00003F054F9D8F80000B842EBD100E02546EC
:1013F0002C68002CE8D1BDE8F0810EB540F23342F4
:1014000002920022CDE900221346FFF7AFFD03B0A0
:1014100000BD01F0004330B421F0004150EA010268
:1014200006D00A0DA2F56072C1F31301002A02DC96
:1014300030BC00207047440F44EAC104C100E018EA
:1014400030BC00EBC25000F001B870470029A8BFC3
:101450007047401C490008BF20F00100704710B4DD
:10146000B0FA80FC00FA0CF050EA010404BF10BC92
:10147000704749B1CCF1200421FA04F411FA0CF1BF
:1014800018BF012121430843A3EB0C01CB1D4FEAF8
:1014900000614FEA102042BF002010BC704700EBF3
:1014A000C35010440029A4BF10BC7047401C490021
:1014B00008BF20F0010010BC70472DE9F04116462E
:1014C0001F460C46851B02E02846B847AD1B641E2C
:1014D000FAD2BDE8F08138B504466846AFF3008023
:1014E0000146204603F018FC38BDFEE730B590F801
:1014F00040500124AC40C56B6C6004686360436875
:10150000102B036803D099600068C26030BD9A60F8
:101510000068C16030BD704790F82100704770B519
:10152000044690F82000002501280CD0012084F802
:10153000200094F821600020012E06D084F82000BD
:101540000225284670BD022070BD022684F8216065
:10155000A0632068066826F0010606602046FFF7B3
:10156000C5FFE06A00282068016802D041F00E0142
:1015700006E021F0040101602068016841F00A01E1
:1015800001602068016841F001010160D9E70000B5
:1015900070B5044600F0FEF80546601C02D0044811
:1015A0000078044400F0F6F8401BA042FAD370BD66
:1015B000080000202DE9F84FDFF8B891002409F168
:1015C000040A0AF1040B23460F270BF1040EC9E0AD
:1015D0000125A5402A40AA427DD1674ED1F804C01A
:1015E000ACEB0608B44532D014DCBCF1030F3AD0A2
:1015F00009DCBCF1000F2AD0BCF1010F1CD0BCF1FA
:10160000020F31D11DE0BCF1110F17D0BCF1120F48
:101610002AD119E0B8F5881F19D006DCB8F5803F4B
:1016200015D0B8F5801F1FD111E0B8F5001F0ED0FE
:10163000B8F5041F18D10AE0CB6815E0CB681B1D74
:1016400012E0CB6808330FE0CB680C330CE08B68FA
:101650002BB1012B4FF0080303D0456104E00423B4
:1016600002E0056100E00023FF2A01D8064601E000
:1016700000F104064FEA840501D9A5F12005D6F84A
:10168000008007FA05FC28EA0C0803FA05F548EA89
:101690000508C6F800804D68ED0062D5374DAE698B
:1016A00046F00106AE61AD6924F0030605F00105C0
:1016B0000095334D06EB050CDCF80850A607360FF5
:1016C00007FA06F825EA0805DFF8B880404503D197
:1016D0004FF0000817E044E0DFF8AC80404502D14D
:1016E0004FF001080FE0DFF8A480404502D14FF031
:1016F000020808E0DFF89880404502D14FF0030867
:1017000001E04FF0040808FA06F848EA0508CCF8AA
:1017100008804D68D9F80060ED034D4601D51643A9
:1017200000E096432E604D68DAF80060AD03554640
:1017300001D5164300E096432E604D68DBF800604B
:10174000ED025D4601D5164300E096432E604D68DC
:10175000DEF80060AD02754601D5164300E0964301
:101760002E60641C0D682A46E5407FF431AFBDE869
:10177000F88F00000004014000001110001002402A
:101780000000014000080140000C01400010014031
:1017900000140140014880687047000008000020E4
:1017A0007047000070B504001BD094F83D00002580
:1017B00020B984F83C50204600F094FA242084F8A4
:1017C0003D002068016821F00101016000F0DAFBB2
:1017D0004D4A6168914201D84C4900E04C49884229
:1017E00001D2012070BD4B492368B0FBF1F15E6866
:1017F00026F03F060E435E606368934206D94FF4BD
:10180000967359434FF47A73B1FBF3F12368491C83
:101810001E6A26F03F06314319626168914210D872
:101820004900401EB0FBF1F2521CC2F30B02042A25
:1018300001D2042022E0B0FBF1F0401CC0F30B0009
:101840001CE0A368F3B301EBC10202EB0116421ED8
:10185000B2FBF6F2521C42F48042120549D093B317
:1018600001EBC10202EB0111401EB0FBF1F0401C84
:10187000C0F30B0040F4804040F400402168CA6986
:101880004CF6FF739A431043C861D4E9070108433B
:1018900021680A6822F0C00210430860D4E90301FD
:1018A00001432068826848F2FF339A431143816004
:1018B000D4E9050108432168CA6822F0FF021043F9
:1018C000C86001E00EE016E02068016841F0010107
:1018D00001602564202084F83D00256384F83E5093
:1018E000002070BD01EB4106421EB2FBF6F2521C15
:1018F000B3E70120C2E701EB4101401EB0FBF1F06C
:10190000401CC0F30B00B7E7A086010080841E00D6
:1019100000093D0040420F002DE9FF4F81B089468C
:101920000446FFF737FF054694F83D004FF00108E5
:1019300020287AD1192301224B492046009500F036
:1019400001FF002871D194F83C0001286DD00120DE
:1019500084F83C0020680168C90703D1016841F0A0
:10196000010101602068016821F400610160242008
:1019700084F83D00002626643C48E0624FF0011BDD
:1019800020272068016841F48071016000950022E1
:1019900059462046049B00F0D5FE002856D1216808
:1019A00009F0FE000861FFF7F5FE21680546486969
:1019B0004969C0F34000C1F380214FF0A00A0FE055
:1019C000FFF7E8FE411B0498814200D808B984F86B
:1019D0003DA0216848694969C0F34000C1F38021F6
:1019E00094F83D20A02A02D008B90029E8D084F854
:1019F0003D7020684169C943890717D4016841F4E3
:101A0000007101602068416980691923012216492B
:101A10002046009500F096FEC0B984F83D7084F829
:101A20003C60002005B0BDE8F08F1BE0016841F488
:101A30000071016021686FF4806048611923012200
:101A400009492046009500F07DFE08B10120E9E734
:101A5000039808F10108804593D384F83D7084F819
:101A60003C60F3E70220DDE7020010000000FFFF0A
:101A7000704700002DE9F84F1F4690468A460446FD
:101A8000DDF82890FFF786FE054694F83D002028F3
:101A90007FD11923012240492046009500F052FED3
:101AA000002876D194F83C00012872D0012084F8F7
:101AB0003C0020680168C90703D1016841F00101B9
:101AC00001602068016821F400610160212084F830
:101AD0003D00102084F83E0000262664C4F82480CF
:101AE0006785608D20852D48E0622B464A46514629
:101AF000204600F0BDFD90B92068416980690090E2
:101B000036E02A464946204600F09BFE50B1206C44
:101B1000042804D12068016841F4007101600120AB
:101B2000BDE8F88F606A216800780861606A401C2F
:101B30006062618D491E6185218D491E89B22185B2
:101B400022685369DB435B070BD451B10078106105
:101B5000606A401C6062608D401E6085208D401E62
:101B600020852A464946204600F0C6FD0028CED1F1
:101B7000208D0028C5D154F83D0B016841F4007157
:101B80000160202004F81E09E67766770020C7E789
:101B9000FFE70220C4E70000020010000000FFFF82
:101BA000F8B500250446009590F83D0020287AD12C
:101BB000474846F2A8160068B0FBF6F000EBC006F6
:101BC00006EB0010202600900098401E009010D0D8
:101BD00020688069C0438007F6D594F83C0001284E
:101BE00074D0012084F83C0020680768FF070AD001
:101BF0000DE044F8305F6673A573206940F0200063
:101C00002061257335E0076847F001070760206809
:101C1000076827F400670760212084F83D00102042
:101C200084F83E00256462626385608D20852948C2
:101C3000E0626164208DB8B3616B27488862616B94
:101C400026480863606BC562606B45632268238D1C
:101C50001032616A606BFFF762FC60B184F83D602E
:101C600084F83E5054F8400F40F0100044F8040946
:101C700025700120F8BD2068016841F48061016091
:101C80002068016841F48071016084F83C5020684C
:101C9000416841F4407141602068416841F400614D
:101CA00041600020F8BD11E0FFE72068016841F4C1
:101CB000806101602068016841F48071016084F8EE
:101CC0003C502068416841F4E061E9E70220E9E71F
:101CD000140000200000FFFF3B2500080925000834
:101CE0007047000010B586B000210091019102916B
:101CF000039100680F4988421AD10F4CA06940F047
:101D00000800A061A069694600F008000490C020A6
:101D1000009012200190032003900848FFF74AFC2E
:101D2000E06940F40010E061E06900F40010049004
:101D300006B010BD0054004000100240000C0140ED
:101D4000704770470248816802781144816070478B
:101D500008000020074810B5016841F0100101603B
:101D6000032000F067F8002000F006F800F024F8E7
:101D7000002010BD0020024070B50D4D04464FF408
:101D80007A712878B1FBF0F00A490968B1FBF0F0EC
:101D900000F0DEFA48B9102C07D200222146501E6E
:101DA00000F028F800206C6070BD012070BD0000BC
:101DB00008000020140000200C4808B5816941F09B
:101DC00001018161816901F001010091C16941F066
:101DD0008051C161C06900F08050009004484168A2
:101DE00021F0E06141F00071416008BD0010024047
:101DF00000000140F0B40E4B1B680C46C3F30223F5
:101E0000C3F10705042D00D90425191D072901D2A6
:101E1000002300E0DB1E012606FA05F1491E2140E1
:101E200099409E40761E16403143F0BC01F03DBF04
:101E30000CED00E0064900F0070208684FF6FF03CA
:101E4000184040EA0220034A10430860704700002F
:101E50000CED00E00000FA052DE9F0470F46050003
:101E600061D0434E306800F00700B84209D23068B4
:101E700020F0070038433060306800F00700B842B7
:101E800051D128683B4C810712D5400703D56068C3
:101E900040F4E06060602878000703D5606840F493
:101EA000605060606068A96820F0F00008436060DE
:101EB0002878C00728D06868012810D02168022837
:101EC00010D0890700292EDA616821F0030101434F
:101ED0006160FFF75FFC804641F288390DE02168C0
:101EE0008903EFE78901EDE7FFF754FCA0EB080158
:101EF000494502D90320BDE8F0876068696800F0B1
:101F00000C00B0EB810FEFD1306800F00700B84251
:101F10000BD9306820F0070038433060306800F09B
:101F20000700B84201D00120E5E72878400705D531
:101F30006068E96820F4E060084360602878000782
:101F400006D56068296920F4605040EAC1006060ED
:101F500000F038F86168084AC1F30311515CC840C9
:101F60000649086006480068FFF706FF0020C2E740
:101F70000020024000100240B45800081400002065
:101F80000C0000200448054900684968044AC1F370
:101F90000221515CC840704714000020001002402C
:101FA000C45800080448054900684968044AC1F358
:101FB000C221515CC840704714000020001002404C
:101FC000C458000812A185B00FC98DE80F0014A0F5
:101FD000144A006804905168134801F00C03042B64
:101FE00010D0082B0ED1C1F38343C9031DF80300A1
:101FF0000AD5516804AAC1F34041515C0A4A5043D2
:10200000B0FBF1F005B0704708494843FAE700001B
:1020100002030405060708090A0B0C0D0E0F101029
:10202000010200000010024000127A0000093D0089
:102030002DE9F84F040070D02078C04DC00749D07A
:102040006868C0F38100012807D06868C0F3810088
:10205000022809D16868C00306D52868800339D5ED
:1020600060680028E7D035E06068B0F5803F0BD0AD
:1020700010B1B0F5A02F11D0286820F4803028606E
:10208000286820F4802002E0286840F4803028602E
:10209000606890B1FFF77EFB06460AE0286840F4CE
:1020A00080202860F0E700BFFFF774FB801B6428E6
:1020B00073D828688003F7D50CE0FFF76BFB064662
:1020C00005E000BFFFF766FB801B6428F0D8286896
:1020D0008003F7D420789A4E80074FF001094FF023
:1020E000000839D5686810F00C0F07D06868C0F395
:1020F0008100022809D16868C00306D428688007D7
:1021000014D52069012808D110E02069B0B1C6F8C3
:102110000090FFF73FFB074605E00AE1FFF73AFBB7
:10212000C01B0228C4D828688007F7D528686169D1
:1021300020F0F80040EAC10028600DE0C6F80080F9
:10214000FFF728FB074604E0FFF724FBC01B02282B
:1021500023D828688007F7D4207800072CD5794841
:10216000A169D9B1C0F80090FFF714FB074604E05D
:10217000FFF710FBC01B02280FD8686A8007F7D54D
:1021800071484FF4FA510068B0FBF1F0009000BFC5
:102190000098411E0091FAD20EE080E0C0F8008065
:1021A000FFF7F8FA074604E0FFF7F4FAC01B02282D
:1021B00075D8686A8007F7D42078400760D5E86949
:1021C0000027C00008D4E86940F08050E861E86961
:1021D000012700F0805000905C480168C90513D4C5
:1021E0000168834641F480710160FFF7D3FA8246AB
:1021F00006E000BFFFF7CEFAA0EB0A0064284ED835
:10220000DBF80000C005F5D5E06801280AD008B168
:10221000052813D0286A20F001002862286A20F0DF
:10222000040002E0286A40F001002862E06841F200
:10223000883B98B1FFF7AEFA82460BE0286A40F07F
:1022400004002862EEE700BFFFF7A4FAA0EB0A0142
:1022500059455AD8286A8007F6D50CE0FFF79AFA54
:10226000824605E0FFF796FAA0EB0A0159454CD8E3
:10227000286A8007F6D41FB1E86920F08050E86131
:10228000E06988B36968C1F38101022944D002285A
:10229000C6F8608004D0FFF77DFA044638E034E0E9
:1022A000FFF778FA074604E0FFF774FAC01B02282C
:1022B0002BD828688001F7D4206AB0F5803F05D17B
:1022C0006868A16820F4003008436860D4E9080118
:1022D0000843696821F4741108436860C6F8609087
:1022E000FFF758FA044606E025E000BFFFF752FA70
:1022F000001B022809D828688001F7D51BE000BF21
:10230000FFF748FA001B022802D90320BDE8F88F26
:1023100028688001F4D40EE00128F7D06868226AAA
:1023200000F48031914204D1616A00F47010884257
:1023300001D00120EAE70020E8E700000010024099
:10234000000042428004424214000020007000401D
:1023500010B5401EB0F1807F01D3012010BD4FF0B9
:10236000E02460610F21601701F09FFC0020A06154
:1023700007202061002010BD70B5040004D094F83F
:102380003900002510B106E0012070BD84F83850F6
:10239000204600F023F8242084F839002068C16822
:1023A00021F40051C160204600F09CFA20680169C8
:1023B00021F4904101612068416921F02A014161C5
:1023C0002068C16841F40051C160E563202084F8B1
:1023D000390084F83A00002070BD000030B585B0A7
:1023E00000240094019402940394006814498842E4
:1023F00024D11448816941F480418161816901F4EB
:1024000080410491816941F00401816180690E4D30
:1024100000F0040004904FF400700090022001903E
:102420000320039069462846FFF7C4F82815CDE934
:102430000004694628460294FFF7BCF805B030BD99
:102440000038014000100240000801402DE9F84327
:10245000044690F839001F4616460D46202850D1F4
:10246000A5B19EB194F8380001284AD0012084F823
:1024700038004FF00008C4F83C80212084F839006F
:10248000FFF788F9A6848146E68426E00120BDE8AE
:10249000F883E08C401EE084A0684B46B0F5805F76
:1024A0004FF000024FF080012046009703D000F06B
:1024B00075FAE8B90DE000F071FAC8B9288821680A
:1024C000C0F308004860206908B16D1C05E0AD1C30
:1024D00003E0216815F8010B4860E08C0028D8D192
:1024E0004B46002240212046009700F057FA08B1E1
:1024F0000320CCE7202084F8390084F838800020BD
:10250000C5E70220C3E7FEE710B5406A0021426B31
:102510009162826B91620268136823F48063136096
:102520004185202280F83D2080F83E10016C41F06A
:1025300010010164FFF734F910BD2DE9F041446A40
:1025400094F83D2094F83E60E16A2068436823F4E3
:1025500040734360636B00204FF022059862A36BC9
:102560009862212333EA02070CD035EA020701D131
:10257000202E07D094F83E20002A21D0628D012A17
:1025800020D024E021684E6826F400664E60608505
:102590002820292A02D02A2A07D00CE0236384F8B5
:1025A0003D002046FFF7CDFB05E0256384F83D00A4
:1025B0002046FFF7C5FB2068416841F44071416047
:1025C000BDE8F0812268136823F4806313602268F9
:1025D000536823F44073536011F5803F06D00829F7
:1025E00004D0B1F12A4F01D0202904D121680A6812
:1025F00042F400720A6021684A6822F480524A60FC
:1026000021684A6822F400624A606085216C19B131
:102610002046FFF7C5F8D3E7202184F83D1094F851
:102620003E1084F83E00402905D012202063204649
:10263000FFF71EFAC4E720632046FFF751FBBFE710
:1026400001684A69D24352050FD46FF480624A612F
:10265000002140F8301F202242738173026942F04A
:1026600004020261017301207047002070470000DE
:10267000F8B50446C06A1E460D461746082807D01E
:10268000012805D010F5803F02D0206B122804D11C
:102690002068016841F480710160134600224FF008
:1026A00001112046009600F04DF808BB2069B0F5F6
:1026B000804F0ED00620216800EAD51040F0F000CF
:1026C000086133463A460B49204600F06FF878B966
:1026D00002E005F0FE0000E0E8B22168086105496B
:1026E00033463A46891F204600F060F8002800D0A3
:1026F0000120F8BD0800010070B516460D460446DD
:102700000DE02046FFF79CFF08B1012070BD681C5A
:1027100005D0FFF73FF8801BA84207D835B12068E5
:102720004069C0434007ECD4002070BD002044F84D
:10273000300F20216173A073216941F020012161D4
:102740002073E2E72DE9F0471E4690460D46044609
:10275000C1F30747DDF8209008E0701C06D0FFF7B2
:1027600019F8A0EB0900B0420FD876B12068012F0C
:1027700018D0806925EA00000004000C14D0002164
:102780004145EAD00020BDE8F087002044F8300F32
:1027900020216173A073216941F020012161207320
:1027A0000120F0E74069E5E70121E9E72DE9F0477D
:1027B0009A4691460E46044600254FF02008C1F384
:1027C000074725E020684069C043400514D42068CD
:1027D000016841F40071016021686FF48060486114
:1027E000256384F83D8084F83E50206C40F004005E
:1027F000206484F83C501FE0B9F1FF3F08D0FEF799
:10280000C9FFA0EB0A0149450CD8B9F1000F09D066
:102810002068012F13D0806926EA00000004000C14
:102820000BD0CFE744F8305F84F80D80A5732069A2
:1028300040F02000206125730120BDE8F087406949
:10284000EAE770B516460D4604460DE02046FFF750
:10285000F7FE08B1012070BD681C05D0FEF79AFF95
:10286000801BA84207D835B120684069C0430006E4
:10287000ECD4002070BD002044F8300F202161739B
:10288000A073216941F0200121612073E2E7FEE796
:10289000704770477047FFF755BA00000D48016850
:1028A00041F00101016041680B4A1140416001683B
:1028B0000A4A11400160016821F4802101604168E9
:1028C00021F4FE0141604FF41F0181600449C003FF
:1028D00008607047001002400000FFF8FFFFF6FE9E
:1028E00008ED00E02DE9F041044600680169E26866
:1028F00021F44051114301612169A06808436169D5
:1029000008432168CA6841F20C639A430243CA60D3
:1029100020684169A26921F44071114341611E4957
:10292000206864253226884202D1FFF73BFB01E094
:10293000FFF728FB00EBC00101EB001160686FF0AE
:1029400018078000B1FBF0F2B2FBF5F2B1FBF0F337
:102950007A4303EB8202B1FBF0F306EB0212B2FB07
:10296000F5F2B3FBF5F302F0F00202EB0312B1FB58
:10297000F0F3B1FBF0F0B0FBF5F0784303EB80002F
:1029800006EB0010B0FBF5F0216800F00F001044DA
:102990008860BDE8F0810000003801402DE9F04179
:1029A000984617460E460446069D1DE0681C1BD03F
:1029B0002DB1FEF7EFFEA0EB0800A84214D9206865
:1029C000C16821F4D071C1602068416921F0010122
:1029D0004161202084F8390084F83A00002084F80E
:1029E00038000320BDE8F0812068006836EA000066
:1029F00004D00020B842D9D00020F3E70120F9E745
:102A0000FEE710B590B028216846FDF7C6FB1421FB
:102A10000AA8FDF7C2FB02200090012004901020BC
:102A20000024059007946846FFF702FB0F20CDE9CC
:102A30000A040C940D9400210AA80E94FFF70CFAD6
:102A400010B010BD1FB51C4600F0A0FB044949683A
:102A500004B0204610BDAFF30080AFF30080F7E76D
:102A60006000002013B50024012001F08DF8044619
:102A7000204601F081F84FF0FF301CBDAFF300801D
:102A8000AFF30080F4E72DE9F0411F4690460D00BA
:102A9000064601D00C4600E040241EB9204601F055
:102AA0006FF806463B464246214601F09FF8002853
:102AB00002DA0020307010E0844202DA00F10104F2
:102AC00002E00AD14FEA44041DB14FF00000BDE816
:102AD000F081304601F04CF8E0E73046F7E70000BF
:102AE0002DE9FF4F484D002789B028689B46924644
:102AF000002857D145A0002000BF040001D105F1F6
:102B00000C0420463A21FDF7CEFB68B13E4A00F89E
:102B1000017B121D40A1FDF7D7FB012802D1686897
:102B2000002801DC012068603C49142089460846E1
:102B300000BF06001BD04FF40070C6E901073848FB
:102B4000F760306006F1100807A8AFF30080024676
:102B5000344904A802F0C4F80146404602F0E4F803
:102B6000A0F1100604A802F0FEF82F4830602B4EAA
:102B700006A8AFF3008002462146684602F0B0F88E
:102B8000074601A800F088FF024630683946C3684E
:102B900030469847A86001A800F08EFF684602F012
:102BA000E2F82C60AC68601C26D06F680DF1080854
:102BB0001A4E554605A8AFF30080024615A103A89A
:102BC00002F08EF8CDE9005030683B462246056998
:102BD00031464046A84703A802F0C5F8029A52F8C9
:102BE000040C60B1DDE909015B46FFF74CFF0446C8
:102BF00002A802F0B8F820460DB0BDE8F08F02A898
:102C000002F0B1F80020F7E71800002052575354A3
:102C10004445525200000000256400004005002099
:102C2000B85B0008775C0008485C000810B50446F3
:102C3000402084F866006078A17804F16602484379
:102C4000012101EBD003217804F10C00FEF7A8FF6D
:102C500002E00120FEF79CFC206CFEF75DFC0128E1
:102C6000F7D110BD0B460178002200F035B90A46B5
:102C7000417883785943C378C908934201D100222F
:102C800000E0FF22D0F86804FDF780BA10B50446D2
:102C900000F0E8F8217844F62063012204F10C00EA
:102CA000FEF73AFE08B1002010BD40F6C210401EEB
:102CB000FDD18D212046FFF7D5FF10212046FFF7DB
:102CC000D1FFAE212046FFF7CDFFD5212046FFF7EB
:102CD000C9FF80212046FFF7C5FFA8212046FFF746
:102CE000C1FF3F212046FFF7BDFFD3212046FFF75C
:102CF000B9FF00212046FFF7B5FF40212046FFF72E
:102D0000B1FF8D212046FFF7ADFF14212046FFF7CC
:102D1000A9FF20212046FFF7A5FF00212046FFF74D
:102D2000A1FFA1212046FFF79DFFC8212046FFF704
:102D300099FFDA212046FFF795FF12212046FFF781
:102D400091FFCF212046FFF78DFFD9212046FFF7C5
:102D500089FFF1212046FFF785FFD8212046FFF7A4
:102D600081FF40212046FFF77DFFA4212046FFF789
:102D700079FFDA212046FFF775FF8D212046FFF706
:102D800071FF14212046FFF76DFFAF212046FFF7AA
:102D900069FFE1782046FFF76AFF2046FFF746FF0C
:102DA000002024F8600F60800120607110BD0000D9
:102DB0002DE9F04700279A461446894680463E464C
:102DC0002DE0002527E0A278616809FB021000EBE6
:102DD000D70007F007010078C840C00709D0B8F84D
:102DE00062005346304482B2B8F86000284481B291
:102DF0000CE0BAF1000F1ED05FF00003B8F86200DB
:102E0000304482B2B8F86000284481B2404600F0F5
:102E10003FF86D1C7F1C2078A842D4D8761C6078BF
:102E2000B042CED8B8F8600021780844A8F8600015
:102E30004846BDE8F0870123E0E7F0B51D46164699
:102E40000C46074608E02B4632463846FFF7B0FFEF
:102E50002178884203D1641C21780029F3D1C8B2BB
:102E6000F0BD0000084940F80C1F084941600021EE
:102E70004FF480428160C0E9031241618161C16108
:102E80000162FEF78FBC000000540040A0860100E4
:102E9000F0B545788D4216D98478944213D990F8CC
:102EA00064400CB183B10023012402F007060779C6
:102EB000B440D208D0F868049F4207D102FB050253
:102EC000885C20438854F0BD0123EDE702FB050038
:102ED0000A5CA2430A54F0BD1CB50C308DF80420E6
:102EE0000A228DF805300092022301AAFEF7C2FDE6
:102EF0001CBD78210170802141704021817000212A
:102F0000C1700121017144F62061816000F1670107
:102F1000C0F86814704700000FB47FB5144D2A68DC
:102F2000002A04D00898032804DC002190477FBCC5
:102F30005DF814FB09AE69460820084600BF18B1C9
:102F400000F0C8FB044600E0002432462046089901
:102F500000F07EFB206881682046884701462A6889
:102F6000089890472068016820468847DFE70000FE
:102F70005400002013B5002400F006FE044614B9E6
:102F80000320FFF7C9FF20461CBDAFF30080AFF35D
:102F90000080F4E700F0F0BD704700002DE9FC4729
:102FA00007464FF00008C7F800809A46894600F1AE
:102FB0000805C0F804801400464608D0B4F1804FDC
:102FC00001D3AFF30080A00000F0DAFD00E00020A4
:102FD000C5E9000403E02868641E40F82460002C62
:102FE000F9D1A5F10804C5F80880C5F80C80C4E93A
:102FF000068AB9F100000AD0FDF7DAF8401C054650
:1030000000F0BEFD2A464946FDF7ABFBA06106274E
:1030100001A8AFF300800146684601F07DFE8246BC
:103020003946174B174A042000F057FE6568804662
:10303000062D00D33D46C146266806E03146484687
:1030400001F0BEFE09F10409361D206800EB850081
:10305000B042F3D105E008EB850051466D1C01F04C
:10306000AFFEBD42F7D306492068FDF7B9F8C4E9C1
:103070000087684601F077FE2046BDE8FC87000027
:10308000674D0008D714000810B50446806900F0A9
:103090006FFD04F1080001F03BFC083801F046FC2C
:1030A00010BD2DE9F04104460D461646104600219C
:1030B0002260002000BF606048B1FDF779F8401C35
:1030C00000F05EFD07466168FDF7E4F86760294699
:1030D0003046002000BF2046BDE8F08110B54168B1
:1030E000044629B12068002000BF606800F040FD60
:1030F000204610BD0C0008D00A460DA1104800F073
:1031000057FD204600F034FD09E050B101280AD0F7
:1031100002280AD00BA206A1094800F049FDAFF32E
:1031200000800AA2F7E70CA2F5E711A2F3E700007E
:10313000457863657074696F6E3A2025732E0A00B6
:103140005C000020756E6B6E6F776E20657863652E
:103150007074696F6E000000756E657870656374D9
:10316000656420657863657074696F6E00000000A7
:103170006261645F616C6C6F633A206F7574206F7D
:1031800066206D656D6F72790000000010B50A4908
:1031900004460020D1E9003200E0401C824204D9FC
:1031A00053F8201009B1A142F7D153F8201000299B
:1031B00000D1104610BD000060000020406870473C
:1031C0002DE9FC410D46174601684FF0FF340622F9
:1031D0006846FFF766FF21462868FFF743FC06466E
:1031E000401C12D000F0A6FC0546D5E9004104EBD6
:1031F000C100A0420FD12846491C01F0A1FBD5E92E
:10320000000100EBC104083C0AE06846FFF766FFD6
:103210002046BDE8FC812268521C01D00834E8E752
:103220003946201D266000F057FC2868201AC4107B
:10323000EBE710B50C4600F07DFC4168A14204DDCF
:10324000006800EBC400001D10BDBDE8104000F098
:10325000EBBBF8B51C4615460E4600F06BFC41680A
:10326000B1420EDD006850F83600411C09D0002143
:1032700000916B4622462946FFF7E4FB69468842E7
:1032800000D10020F8BD406930F81200084000D09D
:10329000012070472DE9F84F0646006889461D4613
:1032A0004169DDF828B09246294201D0002406E0A9
:1032B00000693749284201D0CC6800E08C684FF0A3
:1032C000000884B1D9F80070E068B84207D86A46AF
:1032D000791C04F10800CDF8008001F0EEFAA06836
:1032E00050F82770F7BBBAF1000F02D10420FFF7A6
:1032F00013FE84B1D9F80070E068B84207D86A4676
:10330000791C04F10800CDF8008001F0D6FAA0681D
:1033100050F8277037BB326800231EA1506928423D
:103320000ED00223102100200D4203D0116851F865
:10333000201009E04900401C0628F5D3164903E097
:103340001069284200D00123184600225B469847A6
:1033500007463CB13068A04212D02146684600F0D2
:1033600085FB00E00CE04A463946684600F016F856
:10337000CDF80080E069401EE061684600F09CFBEB
:103380004A463946304600F009F83846BDE8F88F1D
:103390003800002000000000745C0008F8B5064604
:1033A000087A15460C46C0070FD1286820B917497E
:1033B0000868401C08602860206831468268204602
:1033C0009047A06840F00100A06030682D68C06898
:1033D000A84207D80020009030686A46691C08306F
:1033E00001F06BFA3068806850F8250030B1C16890
:1033F000491EC16002D1016849688847E068401CE5
:10340000E0603068806840F82540F8BD800000200A
:103410007CB5054608680C46806948B16846AFF33C
:103420000080024620688169284601F059FC7CBD75
:1034300001A8AFF30080024600A1F5E72A000000D2
:1034400010B50446FDF78DF9204610BD7CB5044645
:103450002DA1FDF7A7F9E8B32CA12046FDF7A2F9AD
:10346000C0B34FF4007000F08BFB054602222146EA
:103470006846FFF716FE0024FDF766F906464FF48E
:10348000807330680021005D10F0010F00D0012131
:1034900010F03E0F01D041F0020110F0400F01D0BA
:1034A00041F0040110F0100F01D041F0080110F0BC
:1034B000080F01D041F0100110F0980F01D041F039
:1034C000200120281DD000220AB141F0400110F057
:1034D000020F00E013E001D041F0800180EA80009B
:1034E00010F0800F01D041F4807125F81410641C95
:1034F0009C42C6D16846FFF7F1FD28467CBD0548D1
:103500007CBD0122E0E7000043000000504F53491A
:1035100058000000285900082DE9FC4106461546D0
:103520000C460846FFF792FF01462B460022304624
:1035300000F086F93E490160064640693D498842EF
:1035400073D001203076022221466846FFF7A9FD9C
:103550000024FF25E2B210213046FFF794FE38B96F
:1035600009E0EAB210213046FFF78DFE30B96D1E3A
:10357000A542F6D802E0641CAC42EBD3C6E907458D
:10358000F76A18E0A4F16100192810D8E2B21021FE
:103590003046FFF778FE50B1A4F1200808F0FF0292
:1035A00008213046FFF76FFE08B1404600E0204694
:1035B00007F8010B641CAC42E4D90024FF25E2B2F9
:1035C00008213046FFF75FFE38B909E0EAB208216A
:1035D0003046FFF758FE30B96D1EA542F6D802E01E
:1035E000641CAC42EBD3C6E90945376B18E0A4F183
:1035F0004100192810D8E2B208213046FFF743FEF7
:1036000050B104F1200808F0FF0210213046FFF706
:103610003AFE08B1404600E0204607F8010B641C62
:10362000AC42E4D96846FFF759FD3046BDE8FC815D
:10363000CC5B00082859000810B500F004F8BDE87C
:10364000104000F099BA10B500F08EF910BD0000DE
:10365000F7B51746002413460D4606460A4621468E
:103660002046FFF73DFA04000DD1002D01DB172D98
:1036700000D30025164800213B4650F82520084677
:10368000FFF701FA04467068B8B1FCF791FD0546F2
:103690002046FCF78DFD2844401C00F071FA71684B
:1036A000FCF7F8FD2146FCF7E9FD0546706800F0DF
:1036B0005FFA204600F05CFA2C4674603046FEBD8E
:1036C000AFF30080204600F053FAAFF30080F5E737
:1036D000CC58000810B500F027FA0249016000211B
:1036E000416010BD005C000810B50446044820602D
:1036F000606800F03DFA2046AFF3008010BD000086
:10370000005C000810B501F02EFB10BD10B504469A
:103710004FF0FF30206000F087F90146201D00F0D7
:10372000B5F9001F10BD10B5001D00F0C5F9001F50
:1037300010BD10B5044601C92060201D00F0CCF971
:10374000204610BD2DE9FE43064602A8FFF760FEA5
:10375000022268460299FFF7A4FC02A801F003FBCD
:103760000024FF25E2B210213046FFF78CFD38B966
:1037700009E0EAB210213046FFF785FD30B96D1E31
:10378000A542F6D802E0641CAC42EBD3C6E907457B
:10379000F76A18E0A4F16100192810D8E2B21021EC
:1037A0003046FFF770FD50B1A4F1200808F0FF0289
:1037B00008213046FFF767FD08B1404600E020468B
:1037C00007F8010B641CAC42E4D90024FF25E2B2E7
:1037D00008213046FFF757FD38B909E0EAB2082161
:1037E0003046FFF750FD30B96D1EA542F6D802E015
:1037F000641CAC42EBD3C6E90945376B18E0A4F171
:103800004100192810D8E2B208213046FFF73BFDED
:1038100050B104F1200808F0FF0210213046FFF7F4
:1038200032FD08B1404600E0204607F8010B641C59
:10383000AC42E4D96846FFF751FCBDE8FE830000C6
:103840002DE9F0410646202070600020C6E9020301
:103850003F4B33607161327611B93E497161307608
:103860000024FF25E2B210213046FFF70CFD38B9E5
:1038700009E0EAB210213046FFF705FD30B96D1EB0
:10388000A542F6D802E0641CAC42EBD3281BC6E983
:103890000745401C00F074F90746F06218E0A4F1F7
:1038A0006100192810D8E2B210213046FFF7EBFC76
:1038B00050B1A4F1200808F0FF0208213046FFF7BC
:1038C000E2FC08B1404600E0204607F8010B641C0A
:1038D000AC42E4D90024FF25E2B208213046FFF7CC
:1038E000D2FC38B909E0EAB208213046FFF7CBFC38
:1038F00030B96D1EA542F6D802E0641CAC42EBD391
:10390000281BC6E90945401C00F03AF90746306318
:1039100018E0A4F14100192810D8E2B2082130467D
:10392000FFF7B1FC50B104F1200808F0FF021021AC
:103930003046FFF7A8FC08B1404600E0204607F8F3
:10394000010B641CAC42E4D93046BDE8F0810000B4
:10395000145C00082859000810B500F005F8BDE80F
:10396000104000F009B9000010B504460848206076
:10397000207E10B1606900F0FBF8E06A00F0F8F812
:10398000206B00F0F5F82046AFF3008010BD00007A
:10399000145C000810B5AFF30080BDE8104000F0E3
:1039A000EBB8000070B51D4E3069002827D12020EB
:1039B00000F0EAF8044602230A2219A1FFF7EEFA02
:1039C00000241025B06008E0B1680868896900EB40
:1039D000840001F0CFF96D00641C15F47C7FF3D1F5
:1039E000202000F0D1F8044601230A220DA1FFF7A0
:1039F000D5FA4FF47C71F0600161B068306170BD40
:103A0000AFF30080B06818B1FFF73EFB00F0B4F8E8
:103A100000203061B060AFF3008070BD380000203E
:103A2000430000000000000010B50D4C206908B9EB
:103A3000FFF7B8FF2078C0070FD1094800F057F909
:103A400058B10748A168001D00F010F8054A064962
:103A5000FDF766FA0248AFF300800148001D10BD73
:103A60003800002000000008B93A000810B50446EC
:103A700001600548006908B9FFF794FF2168C8692B
:103A8000401CC861204610BD380000200968016054
:103A9000CA69521CCA61704770B5064C0546206859
:103AA00008B9FFF77FFF21682960C869401CC86119
:103AB000284670BD4800002010B50446006848B193
:103AC000C169491EC16105D1206818B1FFF7DCFA50
:103AD00000F052F8204610BD70B50D46044601684E
:103AE000286881420FD0C169491CC1612068C16941
:103AF000491EC16105D1206818B1FFF7C5FA00F071
:103B00003BF828682060204670BD10B500F004F82E
:103B1000BDE8104000F030B810B51030FFF7F2FDEE
:103B20001038AFF3008010BD0149016070470000FC
:103B3000685C00080A4810B50078C0070ED1084834
:103B400000F0D5F850B107480021074A01604160F4
:103B50000649FDF7E5F90248AFF30080014810BDC2
:103B6000840000208800002000000008C9490008E7
:103B700010B500F001F810BD10B500F087FD10BDC4
:103B800010B500F001F810BD10B5040007D10124F4
:103B900005E0FDF7BBF9006800B9044880472046FE
:103BA00000F028FE0028F4D010BD000071060008C7
:103BB0000FB4024610B504A9034B039800F0B8F9FE
:103BC00010BC5DF814FB0000754600080FB4054BEF
:103BD00010B503A9044A029800F0AAF910BC5DF8D8
:103BE00014FB000075460008580000207CB5044610
:103BF00000201D46164600290BD0491ECDE9004184
:103C0000044B6A462946304600F092F9009A00219A
:103C100011707CBD5F4600082DE9FF4D82B08B46D8
:103C2000824601200F9990460AFB0BF6009006B9D8
:103C300001261446301911B1884720B101E0FFF781
:103C40009FFF044400E0002484B1B8F1000F01D0CC
:103C500044E902BA059848B10025274604E00599D1
:103C6000384688475F446D1C5545F8DB06B0204652
:103C7000BDE8F08DAFF300800E9828B103465A4698
:103C800029463846FDF719FC009860B1109AA4EB5C
:103C9000080006EB0801904705E0AFF30080FCF751
:103CA000E9FCAFF30080FDF7AFF90907090E002822
:103CB00004DB00F1E02080F80014704700F00F00F2
:103CC00000F1E02080F8141D7047002804D0A0F116
:103CD00008020CCAFDF799B9704738B50C46009335
:103CE000134601460822204600F00AF838BD016854
:103CF00009B10020704701210160084670470000AB
:103D0000FEB5044E089C00258DE87000FFF784FF87
:103D1000FEBD0000713B000802E008C8121F08C188
:103D2000002AFAD170477047002001E001C1121F3C
:103D3000002AFBD170470000024800210160001DED
:103D4000016070474C00002070B50A4D0224002627
:103D50000820FFF715FFC5E900042868641E40F835
:103D60002460FAD12846BDE87040034A0349FDF7B4
:103D7000D7B8000060000020000000081F490008BC
:103D8000024800210160001D0160704730000020E2
:103D90000148FFF7AEB80000D00000202DE9FF5F1A
:103DA00082B00021DDE90430020DDDF840B00343AC
:103DB00018D044F61050A2F2FF3242431514119865
:103DC00001281FD0A5EB0B00401C5FEA000A4FF052
:103DD00000064E4FDFF83891B046504615D5CAF16F
:103DE000000413E0119801244AA3012801D16FEACD
:103DF0000B010298119AC0E90031C0E9024206B0F5
:103E0000BDE8F09FCBF10000DFE704460021404A07
:103E1000491842EB0450CDE9001012E0E00707D04A
:103E200032463B4640464946FCF711FB80468946F0
:103E300032463B4610461946FCF709FB06460F463C
:103E40006410002CEAD1DDE90401DDE90023BAF1B8
:103E5000000F06DAFCF7FBFA42464B46FCF7F7FA8E
:103E600005E0FCF766FB42464B46FCF762FB044666
:103E70000E460022284BFCF7E3FB03D84FF0FF303F
:103E8000014607E00022254B20463146FCF738FA70
:103E9000FCF7BEFB102409E0002C0ADB0A220023F9
:103EA000FCF7BBF9039B30321A55641E50EA01023D
:103EB000F2D1641C039AC4F111031444119A012A2B
:103EC00003D0012208430DD10AE0084304D00020AA
:103ED0004FF0110B119072E7A3EB0B056D1E0DE077
:103EE0005B4504DD4FF0000205F1010504E003DA53
:103EF0004FF00002A5F10105002AECD002981199BB
:103F0000C0E90231C0E9004579E700000000144033
:103F10000000F03F300000000000F0430000E03FF0
:103F200030380A2801D20120704700207047000075
:103F30002DE9FF4F95B09B468946064600250FE2C6
:103F4000252877D100242746F84A0121059400E06E
:103F5000044316F8013F203B01FA03F01042F7D169
:103F600030782A2811D06FF02F033078A0F130027A
:103F7000092A16D8059A44F0020402EB820203EBE8
:103F800042021044761C0590EFE759F8042B059285
:103F9000002A03DA504244F40054059044F002042D
:103FA000761C30782E2816D116F8010F44F0040440
:103FB0002A280DD06FF02F023078A0F13003092BA2
:103FC00009D807EB870302EB4303C718761CF3E716
:103FD00059F8047B761C30786C280FD006DC4C280E
:103FE00017D068280DD06A2814D104E0742810D0A6
:103FF0007A280FD10DE044F400140AE044F4801450
:1040000001E044F440147278824202D104F5801435
:10401000761C761C307866280BD013DC582877D0B5
:1040200009DC002875D04528F6D04628F4D047286A
:104030001AD19DE118E0632835D0642879D065282D
:1040400012D195E1702873D008DC6728F1D0692877
:104050006FD06E280DD06F2806D1B5E073282CD014
:10406000752875D0782874D05A46179990476D1CDA
:1040700075E1C4F30250022809D003280DD0D9F805
:10408000001004280DD00D6009F1040967E1D9F88A
:104090000010EA17C1E90052F6E7D9F800100D80C8
:1040A000F2E70D70F0E719F8041B8DF800100020FE
:1040B0008DF80100EA46012003E059F804AB4FF007
:1040C000FF3061074FF0000102D40DE008F101015B
:1040D0008846B9420FDA8045F8DB1AF80810002943
:1040E000F4D108E008F1010188468142FADB1AF8B0
:1040F00008100029F6D105985B46A0EB0807214679
:104100003846179A00F094FA284400EB080507E0B7
:104110004DE029E10DE01AF8010B5A461799904736
:10412000B8F10108F7D25B4621463846179A13E1E9
:1041300042E00A220092C4F302524FF0000A022A1F
:1041400008D059F804CB032A4FEAEC710AD00DE0ED
:1041500029E02AE009F1070121F00702F2E802C193
:10416000914609E00FFA8CFC4FEAEC71042A03D166
:104170004FFA8CFC4FEAEC71002907DA0A4600215D
:10418000DCF1000C61EB02012D2202E0220504D5D6
:104190002B228DF80420012203E0E20701D0202227
:1041A000F7E7904659E00A2102E010220DE01021C5
:1041B0004FF0000A00910BE010224FF0000A44F08B
:1041C00004040827009203E008224FF0000A00923E
:1041D000C4F30252022A05D059F804CB0021032A65
:1041E00008D009E009F1070121F00702F2E802C155
:1041F000914605E01FFA8CFC042A01D10CF0FF0C5B
:104200004FF00008220728D5702806D0009B83F0C5
:10421000100353EA0A0305D00EE040228DF8042073
:10422000012208E05CEA010206D030228DF8042069
:104230008DF8050002229046009B83F0080353EAA4
:104240000A030AD15CEA010201D1620705D53022D6
:104250008DF804204FF001087F1E582804D034A0A8
:1042600003900EA802900DE036A0F9E75346604691
:10427000009AFBF7D2FF84460398825C0298401EA6
:10428000029002705CEA0100F0D1029806A9081AB7
:1042900000F1200A600702D524F4803400E00127F1
:1042A000574502DDA7EB0A0000E0002000EB0A0101
:1042B000009005984144401A0590E00306D45B46FF
:1042C0002146179A059800F0B3F90544002706E047
:1042D00001A85A46C05D179990476D1C7F1C474541
:1042E000F6DBE0030CD55B462146179A059800F0F3
:1042F0009FF9054404E030205A46179990476D1CF9
:104300000099481E00900029F5DC08E00298029907
:104310005A460078491C0291179990476D1CBAF1D2
:104320000001AAF1010AF1DC65E1000009280100A1
:10433000303132333435363738396162636465661B
:1043400000000000303132333435363738394142DD
:10435000434445460000000000F058F90544761C2F
:10436000307800287FF4ECAD19B02846BDE8F08F16
:10437000620700D4062709F1070222F0070CFCE8C7
:104380000223E14603F000485FEA080C02D00FF276
:10439000702C0DE05FEA045C02D50FF2682C07E098
:1043A0005FEAC47C02D00FF2602C01E0AFF2700C27
:1043B0004FF0FF3823F00043CDF850C065280CD0F3
:1043C00006DC452809D046281DD047283DD13DE0D0
:1043D000662818D067287ED138E00021112F01DB34
:1043E000112000E0781CCDE9000106A90EA8FFF716
:1043F000D5FCDDE90F010E9A03910021009207F12F
:10440000010A04914DE04FF000400097CDE9011002
:1044100006A90EA8FFF7C2FCDDE90F0203920E9B6E
:1044200011990022DDF80CA00093049211B9791CB7
:1044300000EB010AB7EB0A0004D4C0F1FF3007F12A
:10444000010A0490AAEB0700019044E0012F00DA72
:1044500001270021112F01DD112000E03846CDE9B0
:10446000000106A90EA8FFF799FCDDE90F010E9ADD
:104470000391002104910092BA4621070CD40399BC
:10448000514500DA8A46BAF1010F05DD009AAAF11A
:104490000101515C302908D0B84202DA10F1040F52
:1044A00006DA0121CDE9011015E0AAF10101E9E7E1
:1044B000002805DC049901440491AAEB000102E004
:1044C000411C514500DD8A460499401A401C019068
:1044D0004FF000400290200704D40198504501DBC2
:1044E000CDF8048000208DF84F0002980DF14F07A1
:1044F000B0F1004F25D02B200E9002984FF002080B
:1045000000280CDA404202902D200E9007E00A218C
:104510000298FBF76CFE3031029007F8011DB8F1EC
:104520000001A8F10108F2DC02980028EFD1791E01
:104530000E980870307800F0200040F0450007F831
:10454000020D12A8C01B00F107081498007800B1F2
:10455000012000EB0A01019801EBE071059841444C
:10456000401A401E0590E00306D45B462146179A88
:10457000059800F05DF805441498007818B15A4683
:10458000179990476D1CE00324D55B462146179A86
:10459000059800F04DF805441CE00498002807DB5E
:1045A000DDE90301884203DD0098405C179901E0D2
:1045B000179930205A469047049805F10105401C90
:1045C00004900198401E019004D12E205A4617995C
:1045D00090476D1CBAF10001AAF1010ADDDC05E08B
:1045E00017F8010B5A46179990476D1CB8F1000156
:1045F000A8F10108F4DC5B462146179A0598ABE662
:104600002D0000002B000000200000002DE9F041EB
:10461000044600251E461746880404D405E03946A2
:104620002020B0476D1C641EF9D52846BDE8F081F6
:104630002DE9F041044600251E469046C80301D5E9
:10464000302700E02027880404D505E0414638469D
:10465000B0476D1C641EF9D52846BDE8F0814A6854
:10466000002A06D00A68531C0B6010704868401E70
:104670004860704713B54FF6FF7301226946024840
:10468000FDF7E4FE00981CBD9000002010B5002846
:1046900021D0114B0022001F196803E0814203D88A
:1046A0000A4649680029F9D152B11368841A9C421C
:1046B00004D1006818441060104602E0506000E029
:1046C000186039B102680B1A934203D10B681A447F
:1046D00002604968416010BD740000200EB5334887
:1046E0000090FDF737FBFEF78CF93148816941F006
:1046F00020018161816901F020010291816941F00D
:1047000004018161816901F004010291816941F034
:10471000080181618069274900F00800029026485D
:104720000C2201604FF4E131416000218160C160E1
:10473000C0E904128161C161FDF71EFE1FA1684638
:1047400000F018FB21A2694601A800F05FFB20A041
:104750000199FFF73BFA01A800F09EFA1648403095
:10476000FEF794FA10B91BA0FFF730FA1CA16846B7
:1047700000F000FB104801231B4A40300099FEF76F
:104780005CFB0D484030FEF751FA0B480123164AF6
:1047900016A14030FEF751FB07484030FEF746FABD
:1047A000054840300179FEF762FAFEE76405002013
:1047B00000100240003801409000002048656C6CF9
:1047C0006F2073746D333266313033000D0A000090
:1047D000257300004C4344204572726F7221000023
:1047E00048656C6C6F2100000000002064667367F0
:1047F00066647300F0B50B30154D20F007010024FE
:10480000144A0FE003688B420BD38B4205D95E1A22
:1048100043184768C3E9006700E04368136002C0BB
:1048200004E0021D10680028ECD12046002802D1C7
:10483000286808B10020F0BD064A07481060074A02
:10484000121A22F00702C0E9002401202860D7E7ED
:1048500078000020740000206C050020680700200C
:104860000349884202D00168491C0160704700007A
:104870005805002070B560B1012814D00C461546CB
:104880003420FFF781F906462A462146FEF744FE0A
:1048900070BD3420FFF778F9002304461A46194604
:1048A000FEF7CEFF70BD3420FFF76EF900220446FC
:1048B00001231146FEF7C4FF70BD2DE9F0411746F4
:1048C0000D460446B1F1804F01D3AFF30080A8003C
:1048D000FFF756F906466068A84200D328463246DC
:1048E000216801E008C908C2236803EB80038B42FA
:1048F000F8D103E0396846F82010401CA842F9D3EB
:104900002068FFF735F9C4E900653046BDE8F0815D
:1049100010B504460068FFF72BF9204610BD10B50E
:1049200004460068FFF724F9204610BD10B5044680
:1049300000680249FBF754FC204610BD674D000893
:104940002DE9FC4706460D466846FEF7DFFE824627
:104950001A48854201D9AFF300802946184B194AFD
:104960000820FFF7BAF974688046AC4200D32C46A1
:10497000C146376806E039464846FEF7DAFE09F1D7
:1049800008090837306800EBC400B842F3D105E0ED
:1049900008EBC4005146641CFEF7CBFEAC42F7D3D3
:1049A00007493068FBF71CFCC6E9008544466846A9
:1049B000FEF7B9FE2046BDE8FC870000FEFFFF1FA2
:1049C000273700080D37000810B504460068024973
:1049D000FBF706FC204610BD273700082DE9FE43F3
:1049E0001D461746DDE90A3801F1100406462A463D
:1049F00039462046FEF72DFC05002CD039462046CE
:104A0000FEF717FC1749026804460868D2F80C80C4
:104A100001272023DFF850C0804503D9926852F85F
:104A2000200000E0002028B93A462046CDF800C01A
:104A3000FEF730FC02A8AFF300800246294601A829
:104A400000F04EF90146304600F06EF901A800F082
:104A50008AF9BDE8FE8303B041463046BDE8F04325
:104A600000F062B930000020754800081030FEF7F1
:104A7000A7BB7FB5064601EB510000EBD104203106
:104A800082B01D46A14200D90C4604A96846009494
:104A900000F0B5F901682A46304600F0C3F806B0C8
:104AA0000C3070BD3EB50546069C0020CDE90040A7
:104AB0002846029400F002F828463EBD2DE9FC5F2E
:104AC00005460068DDE90C6A50F8040C0C46DDF878
:104AD000389098469346A04201D3B2450FD9B042D0
:104AE00001D9014600E03146A04201D2234600E050
:104AF00053464A4A009111460920FEF70DFA2868EC
:104B0000594650F8040C071BBB4500D20F46A6EBD4
:104B10000A064946B14500D20E46C31B6FF00E008F
:104B2000801B834205D93D4A009011460820FEF7BC
:104B3000F3F92868A0F10C0150F8042CD31B9F193D
:104B40004AD0A3EB04090B68C2445B1CA344012BAD
:104B50000AD84968B94207D3B8F1000F42D040459E
:104B600040D8024442453DD950F8040C00EB5001B6
:104B700001EBD0018030884200D90146CDE9001711
:104B800001A9684600F03BF901683A46284600F062
:104B900049F807462CB107F10C0022462968FEF7B8
:104BA0004FFC36B107F10C00204451463246FEF767
:104BB00047FCB9F1000F09D02A6807F10C00204426
:104BC00002EB0B0130444A46FEF73AFC284600F05F
:104BD00063F80C372F601DE0284600F05DF81048A0
:104BE000286017E0B9F1000F07D0A119431800EBB6
:104BF0000B014A461846FBF7A9FA2EB12868514620
:104C000020443246FBF7A2FA2868002140F8047CD1
:104C10002868395428682044BDE8FC9F755C00086A
:104C200064050020F8B56FF00E0017460C4681426F
:104C300006D9174A0B46009011460820FEF76CF97A
:104C4000A74206D9124A3B46114608200094FEF7B7
:104C500063F9DCB104F10E000021FEF78BF9054683
:104C600001460C20084600BF002610B106604660D1
:104C700086602E6005F10C00C5E90147C1190120CD
:104C8000084600BF00B106702846F8BD0148F8BDCF
:104C9000765C00085805002038B5044602680F48C5
:104CA000824219D052F80C0D411C07D00B490C3927
:104CB0008A4211D0401E1060401C0DD12068214650
:104CC00050F8085C68460E35AFF30080206829462E
:104CD00000220C38FEF75EF938BD000064050020A4
:104CE00070B50D461146AFF3008006462846FBF727
:104CF0005FFA040006D003461A4600213046FFF74B
:104D0000B8FE00E00348224629463060FEF798FBD3
:104D1000304670BD6405002010B5AFF30080014936
:104D2000016010BD6405002070B50D460446AFF368
:104D300000802868A0F10C010968491C04D020609B
:104D40000C38FFF78DFD0CE050F8046C204632461D
:104D50003146FFF767FF0C30206032462968FEF7C6
:104D60006FFB204670BD10B50446FFF795FF204647
:104D700010BD000038B504460D460846FBF718FA8A
:104D800048B121682B4651F8042C009000212046A0
:104D9000FFF788FE38BD2068014650F80C0C30B192
:104DA0002046FFF779FF05482060204638BD0022E5
:104DB00041F8042C20680270F7E700006405002029
:104DC00038B5054608680C46034650F80C1D491CCA
:104DD00007D0FFF745FD2846FFF75EFF20682860F3
:104DE0000BE0A54209D0296853F8040C51F8042CB3
:104DF000009000212846FFF755FE284638BD02687E
:104E00000B689A4200D20846704700002DE9FE4325
:104E10000D680746904655F8040C01AC2844461B23
:104E20000CD0202002906946009602A8FFF7E7FF09
:104E3000016832462046FFF7F5FE00E01C48324686
:104E40000C3029460190FEF7FBFA019940464FF0DD
:104E5000000851F8046C0546FBF7AAF900902B46B0
:104E6000424631462046FFF71DFE04460068A0F189
:104E70000C010968491C08D00D4938600C3888427B
:104E800010D00168491C01600CE050F8045C384601
:104E90002A462946FFF7C6FE0C3038602A462168AC
:104EA000FEF7CEFA01A8FFF7F7FEBDE8FE8300008B
:104EB0005805002000000000000000000000000471
:104EC00087E3E37010000000001545454151540090
:104ED00000000089C42391F0201008000087C02042
:104EE000D02130080400008E40C0E1903824120028
:104EF000008140E0E11138040200000E85C201008B
:104F000000000000000002E143207C000000008956
:104F1000C5A2911008041E0000000000000000005F
:104F20000000080402F1000000000000000000F092
:104F300040201008040000000080432010080400F6
:104F400008040281030000000000080402F143206D
:104F5000100804003F00000000000000000000C036
:104F60000F00000000000000000000F0030000003F
:104F700000000000000000FC000000000000000035
:104F80000000003F000008040281432010080400D4
:104F9000080402F1402010080400080402F1030094
:104FA00000000000000000F0432010080400080486
:104FB0000281402010080400001084202040403E60
:104FC0000000000101028210043E00000000C04702
:104FD000A150280000000010C487F0110400000058
:104FE000000C89E021706C040000000000800000CB
:104FF00000000000000000000000000000000004AD
:105000000281400010000000000A8502000000003C
:105010000000000AC547F15128000000000447C104
:1050200041711000000000928A82A0A824000000B4
:1050300000824241504958000000000C82000000EC
:105040000000000000088240202020000000000234
:105050000202812008000000008088E2A38800008E
:105060000000000002E143200000000000000000FA
:10507000006010040000000000E0030000000000D9
:1050800000000000002038080000001008822008FE
:105090000400000000044524125110000000000428
:1050A000438140207C000000008E088421087C00A1
:1050B0000000001F088201893800000000088622D5
:1050C000F14120000000009F406302893800000089
:1050D000000C41A0318938000000001F0802411077
:1050E00008000000008E48C4118938000000008EBE
:1050F00048C60241180000000000828300203808E2
:1051000000000000828300601004000000100441D1
:105110004040400000000000C007F0010000000017
:1051200000010101411004000000008E08824000CF
:1051300010000000008E48A6D208380000000004CD
:105140004524F28944000000000F89C421913C00ED
:105150000000008E4820108838000000000F8944AD
:1051600022913C000000009F40E011087C000000FC
:10517000009F40E0110804000000008E4820908944
:1051800038000000009148E4138944000000000E3C
:105190000281402038000000001C08040289380009
:1051A000000000914461504844000000008140200C
:1051B00010087C0000000091C8A61289440000007D
:1051C0000091C8A4928944000000008E48241289EE
:1051D00038000000008F48E4110804000000008E31
:1051E000482412A938200000008F48E451484400A8
:1051F0000000008E48C0018938000000001F0281B5
:10520000402010000000009148241289380000005E
:1052100000914844A15010000000009148A452D9C8
:105220004400000000918882A088440000000091A2
:105230008882402010000000001F088220087C00A7
:105240000000000E814020103800000000818080A6
:10525000808040000000000E040281403800000001
:1052600000044504000000000000000000000000F1
:10527000003E0000000602020000000000000000E6
:105280008003E289780000000081406312993400B5
:1052900000000000802312883800000000108825DC
:1052A00013C95800000000008023F20938000000F4
:1052B000000C89E021100800000000008025610832
:1052C00038220E000081406312894400000000046F
:1052D0008081402038000000000800038140241233
:1052E000060000814024714844000000000602814D
:1052F0004020380000000000C0A252A94400000075
:1053000000004063128944000000000080231289DD
:105310003800000000004063326904020100000010
:10532000802593B140201000000040631208040063
:10533000000000008023E0803C0000000002C14328
:105340002090300000000000402412C958000000E6
:1053500000004024A250100000000000402452A988
:1053600028000000000040444150440000000000BC
:10537000402492B140220E000000C00741107C0082
:105380000000001802C280206000000000040281BA
:105390004020100000000003828021200C0000004B
:1053A00000924A020000000000000000000000001F
:1053B00000000000000000000000000000000000ED
:1053C00000000000000000000000000000000000DD
:1053D00000000000000000000000000000000000CD
:1053E00000000000000000000000000000000000BD
:1053F00000000000000000000000000000000000AD
:10540000000000000000000000000000000000009C
:10541000000000000000000000000000000000008C
:10542000000000000000000000000000000000007C
:10543000000000000000000000000000000000006C
:10544000000000000000000000000000000000005C
:10545000000000000000000000000000000000004C
:10546000000000000000000000000000000000003C
:10547000000000000000000000000000000000002C
:10548000000000000000000000000000000000001C
:10549000000000000000000000000000000000000C
:1054A00000000000000000000000000000000000FC
:1054B00000000000000000000000000000000000EC
:1054C00000000000000000000000000000000000DC
:1054D00000000000000000000000000000000000CC
:1054E00000000000000000000000000000000000BC
:1054F00000000000000000000000000000000000AC
:10550000000000000000000000000000000000009B
:10551000000000000000000000000000000000008B
:10552000000000000000000000000000000000007B
:10553000000000000000000000000000000000006B
:105540000000000014804FE011087C0000001C5196
:10555000B25ACC8A380000000000000000000000B1
:10556000000000000000000000000000000000003B
:10557000000000000000000000000000000000002B
:10558000000000000000000000000000000000001B
:105590000000000000040501000000000000000001
:1055A00000000000000000000000000000000000FB
:1055B00000000000000000000000000000000000EB
:1055C00000000000000000000000000000000000DB
:1055D000000000000000000000000000008000004B
:1055E00000000000000A8023F209380000000000DB
:1055F00000000000000000000000000000000000AB
:10560000000000000000000000000000000000009A
:10561000000000000000000000000000000000008A
:10562000000000000000000000000000000000007A
:105630000000000000822212F9442200000080478E
:1056400020F088441E000000804724F288441E0099
:105650000000804F2010080402000000000C85228A
:1056600091483E110000804F20F008043E000000E9
:10567000804AA5E2A8542A000000004704C28044E2
:105680001C000000804824539944220000000A4274
:1056900024539944220000008048A230282422008C
:1056A0000000008E4422914822000000804864538C
:1056B000894422000000804824F28944220000002E
:1056C0000047241289441C000000804F24128944A2
:1056D00022000000804724F2080402000000004776
:1056E000241008441C000000800F81402010080096
:1056F0000000804824A22008020000000082A3527B
:10570000A9380800000080484441504422000000AD
:105710008044229148243E100800804824E28140C1
:1057200020000000804AA552A9543E000000804A93
:10573000A552A9543E100800808140E090481C000A
:10574000000080482472C9642E000000008140E0FF
:1057500090481C000000004704C281441C00000067
:105760008044A572A95412000000004F24E2A14811
:10577000220000000000C001F1443C000000004F86
:10578000C01189441C0000000000E01179441E0093
:1057900000000000C023100804000000000080A1E9
:1057A00050283E1100000000C011F9041C00000048
:1057B0000000A05271542A0000000000C011614492
:1057C0001C00000000002092A94C220000000005EF
:1057D0002192A94C220000000000209238242200CF
:1057E000000000008023914822000000000020B249
:1057F000A9442200000000002012F9442200000009
:105800000000C01189441C0000000000E01389441E
:10581000220000000000A031894C1A810000000025
:10582000C01109441C0000000000E04320100800E3
:105830000000000020128978201107000002C151E9
:10584000A9541C040200000020A22028220000000D
:105850000000209148243E10080000002012F14072
:10586000200000000000A052A9543E0000000000EB
:10587000A052A9543E1008000000602070481C008F
:10588000000000002012B9642E000000000040203B
:1058900070481C0000000000C011E1441C00000022
:1058A00000002051B954120000000000C013F14460
:1058B00022000000000000000000000001020304BC
:1058C000060708090000000001020304A45D0008A7
:1058D000505D0008605D0008BC5E0008905E000836
:1058E000945D0008DC5E0008905E0008A05E000881
:1058F000C05C0008BC5D0008985C0008E45D00081E
:10590000D05D0008685E0008185E0008405E000870
:10591000F85D0008045D00087C5C00082C5D000850
:10592000EC5C00087C5D0008040004000400040036
:105930000400040004000400040005000500050044
:105940000500050004000400040004000400040035
:105950000400040004000400040004000400040027
:10596000040004000400040003008200820082009E
:105970008200820082008200820082008200820017
:105980008200820082008200420142014201420103
:105990004201420142014201420142018200820071
:1059A000820082008200820082002A012A012A01EC
:1059B0002A012A012A012A002A002A002A002A0094
:1059C0002A002A002A002A002A002A002A002A0087
:1059D0002A002A002A002A002A002A002A0082001F
:1059E0008200820082008200820032013201320194
:1059F0003201320132013200320032003200320014
:105A00003200320032003200320032003200320006
:105A100032003200320032003200320032008200A6
:105A200082008200820004000000000000000000EC
:105A30000000000000000000000000000000000066
:105A40000000000000000000000000000000000056
:105A50000000000000000000000000000000000046
:105A60000000000000000000000000000000000036
:105A70000000000000000000000000000000000026
:105A80000000000000000000000000000000000016
:105A90000000000000000000000000000000000006
:105AA00000000000000000000000000000000000F6
:105AB00000000000000000000000000000000000E6
:105AC00000000000000000000000000000000000D6
:105AD00000000000000000000000000000000000C6
